:100000006826FF1F595400004155000013120000DC
:100010008F12000017150000BB1600000000000042
:100020000000000000000000000000006317000056
:10003000031800000000000033180000BD5200004B
:100040007155000079550000815500008955000068
:100050009155000099550000A1550000A9550000D8
:10006000B1550000B9550000C1550000C955000048
:10007000D1550000D9550000E1550000E9550000B8
:10008000F1550000255700002557000025570000B6
:100090002557000025570000255700002557000070
:1000A000F9550000015600000956000011560000E5
:1000B000195600002156000025570000295600005F
:1000C00031560000395600004156000049560000E4
:1000D0005156000059560000615600002557000097
:1000E0002557000025570000255700002557000020
:1000F0002557000025570000255700002557000010
:10010000C73600003D37000083370000E5370000A8
:1001100025570000255700002557000025570000EF
:1001200025570000255700002557000025570000DF
:1001300025570000255700002557000025570000CF
:1001400025570000695600007156000079560000DE
:1001500025570000255700002557000025570000AF
:1001600025570000255700008156000089560000E1
:100170009156000099560000A1560000A9560000B3
:10018000B1560000B9560000C1560000C956000023
:10019000D1560000D9560000E15600002557000056
:1001A000255700002557000025570000E95600009C
:1001B0002557000025570000F1560000F9560000B1
:1001C000015700000957000011570000195700009F
:1001D000255700002557000025570000255700002F
:1001E000255700002557000025570000255700001F
:1001F000255700002557000025570000255700000F
:1002000025570000255700002557000025570000FE
:1003F000255700002557000025570000FFFFFFFF8D
:10040000FFFFFFFFFFFFFFFFFFFFFFFFFEFFFFFFFD
:100410002DE9F0439FB00FF28419269CDFF8CC8AB7
:1004200002918DF83B4000210B914FF0FF370446BD
:1004300016461D460AE016F8011B0298A047002840
:10044000029000F099800B98401C0B90307850B1CE
:100450002528F0D1002000210590069107900891F1
:1004600009900A9103E00B989CE041F0010116F815
:10047000010F2028F9D023280CD02B2804D02D28B8
:1004800005D0302809D079E041F00201EFE741F0D2
:100490000401ECE741F00801E9E741F01001E6E76B
:1004A00000200D9009E00D98404505DA00EB80032F
:1004B00002EB4302303A0D92761C3278A2F1300002
:1004C0000A28F0D332782E2A18BF0C9723D116F8B9
:1004D000010F2A2807D128682860761C50F8042BC1
:1004E00028600C9217E02D280CBF16F8010B002095
:1004F00000220C920AE040B90C9A424505DA02EB60
:10050000820203EB4203303B0C93761C3378A3F159
:1005100030020A2AEFD3ADF838104846317800F09F
:100520006DFE08B116F8010B8DF83A009DF83A00FF
:10053000682804BF3178682903D162208DF83A0019
:1005400007E06C2804BF30786C2803D171218DF846
:100550003A10761C10A804902A4616F8013B69460A
:10056000204600F05FF838B910AA6946204600F02E
:100570008BF900287FF56AAF384613E02A288FD11F
:100580002A682A6052F8040B2A6000280D9003D5CF
:1005900040420D9041F00401761C93E7686A6C7448
:1005A0007A4C00001FB0BDE8F083622820D0682894
:1005B00011D06A2803D06C2827D0712825D108686B
:1005C000C01D20F007000860D0E900230830086053
:1005D000194610467047002A0A680A60106803D05E
:1005E000121D0A6000B217E0121D0A6080B217E007
:1005F000002A0A680A60106803D0121D0A6040B21F
:100600000AE0121D0A60C0B20AE0002A0A680A6005
:10061000106803D0121D0A60C1177047121D0A60CE
:100620000021704770B51C460D46B4F125002E69B7
:10063000114600F017811C386AD0001F022867D9C4
:10064000133843D0093863D0801E16D0401E1ED008
:10065000401E02285CD9001F19D0401F00F0838083
:10066000401E33D0401E00F0CD80C01E00F0D88068
:10067000801E2BD0C01E29D0FAE06869421C6A6136
:100680000A680A6052F8043B0A603354FAE095F8AD
:100690003A000122FFF789FFC5E9000100239942D2
:1006A00004DA6869411C69612D210DE0288F8107FA
:1006B00004D56869411C69612B2105E0C00722D57A
:1006C0006869411C6961202131541CE095F83A00A9
:1006D0000022FFF76AFFC5E9000195F8380001071D
:1006E00011D5D5E900230020834208BF82420AD0F9
:1006F00044F02000782806D1686930213154401C2C
:10070000411C69613454214668693044E86083E0E3
:100710000868C01D20F007000860D0E900230830F9
:100720000860C5E90023D5E90001C80F04D0686955
:10073000411C69612D210DE0288F810704D568696E
:10074000411C69612B2105E0C00704D56869411C83
:1007500069612021315468693044E86021462846A7
:1007600000F0C4F98EE005F13A02507820B14FF064
:10077000FF340FF620205EE01078622808D0682849
:1007800024D06A2812D06C282ED071280ED02BE0ED
:100790000A680A6052F8040B0A6020B94FF0FF346F
:1007A0000FF6082047E0E96A01706BE00A680A600A
:1007B00052F8040B0A6020B94FF0FF340FF6EC102A
:1007C00039E0EA6AD317C0E900235BE00A680A60EF
:1007D00052F8040B0A6020B94FF0FF340FF6CC102A
:1007E00029E0E96A01804DE00A680A6052F8040BCA
:1007F0000A6020B94FF0FF340FF6B0101BE0E96A31
:1008000001603FE00A680A6052F8040B0A600021A8
:10081000C5E90001EE607821284600F0BBF831E020
:100820000868086050F8044B0860EC603CB94FF071
:10083000FF340FF6901000F0EDFC201A70BD2E6B07
:10084000002E04D5204600F007FD044608E032469D
:100850000021204600F01CFD002814BF041B344674
:10086000AC610FE06869411C69612521315409E0E0
:100870006969481C686125227254210002D0411C1C
:1008800069613454002070BD2DE9FC410F460646D5
:10089000796B7869BC6A091A386A091AB869091A41
:1008A000786A091AF869091A97F838000C1B410789
:1008B00090460FD42021002C8DF800100ADD25462B
:1008C00001236A463946304600F04DFC00285DD1D0
:1008D0006D1EF5D17B6942463946304600F043FC37
:1008E000002853D130208DF800003D6A002D09DD2D
:1008F00001236A463946304600F035FC002845D1D0
:100900006D1EF5D1BB69FA683946304600F02BFC04
:1009100000283BD130208DF800007D6A002D08DDD5
:1009200001236A463946304600F01DFC70BB6D1E3F
:10093000F6D1F868B969FB6942183946304600F0CB
:1009400012FC18BB30208DF80000BD6A002D08DDB8
:1009500001236A463946304600F005FCB0B96D1EE9
:10096000F6D197F8380041070DD52021002C8DF8DD
:10097000001008DD01236A463946304600F0F3FBDB
:1009800020B9641EF6D10020BDE8F6814FF0FF309B
:10099000BDE8F6812DE9FC4704468A462569BAF18F
:1009A0006F0F08BF082605D04AF02001782914BF30
:1009B0000A2610263C27D4E90023BAF1640F18BF99
:1009C000BAF1690F9046994606D100218B4203DAAD
:1009D000D8F1000869EB49090020814508BF80452E
:1009E0001FD1206BE8B9082E4CD194F838000107CC
:1009F00048D530203B2785F83B0043E000280ED542
:100A000094F8380000F01400102808D1626B606977
:100A1000121A206A121A511A0029C8BF2162BDE8B1
:100A2000F3878DF800A0404649463246F31700F0A0
:100A30005BFC3032D2B27F1E3A2A019704DB9DF86C
:100A40000000A0F151018A18EA5540464946324655
:100A5000F31700F049FC804689460020814508BF15
:100A6000804503D0E068E9198842DCD3082E09D11B
:100A700094F83800010705D5E95D302902D07F1EC2
:100A80003020E855C7F13C01A161E819E060206B16
:100A90008142B3DA411A21624FF6EF70218F014093
:100AA0002187BDE8F3872DE9D04306460F4614465B
:100AB0004FF00008DFF8389412E0E00707D542460F
:100AC0004B463046394600F027FD06460F46404665
:100AD000494642464B4600F01FFD64108046894659
:100AE000002CEAD130463946BDE8D0832DE9F34FDA
:100AF000054641F020048DB0D5E90089612C02AE95
:100B000009D0286B002848BF062003D408BF672CF3
:100B100001D101202863D5E9002358004015401C6D
:100B20000ED119030CD00320A8619DF8380061385C
:100B30001A2802D20FF2A86111E00FF2A8610EE0AC
:100B400058004015401C0FD119030DD10320A86196
:100B50009DF8380061381A2814D30FF29061E868C4
:100B6000032200F0ABFDD3E1194621F00043B3F5B9
:100B7000801F10460DD20027BB4208BFBA42019722
:100B800003D111E00FF26061E9E701AA00F0EAFD8C
:100B90000AE0DFF8607307EB1352DFF85C33019271
:100BA0001940DFF858331943C5E90001612C0ED113
:100BB000E86830210170811CE9609DF838106129D6
:100BC0000CBF7821582141706869801C6861D5E9A3
:100BD00000AB2BF0004300202AF00002834204BF48
:100BE0008242002300F05A81612C40F0A980286BDA
:100BF00000284CBF2120401C00904046009F7F1CD5
:100C000049460022002300F0E5FDD94601988DF801
:100C1000082038BF89F00049001F0190002FD046FE
:100C20000DF1090040F3498140F2FF71DFF8D0B2C5
:100C30000C910646404649460022002300F0E2FDA2
:100C400080F03A814800400D00F11C0210D0002ACB
:100C50000EDD0C98824205DB09F0004040EA0B01F2
:100C6000002013E0A448084040EA025140460DE04D
:100C700029F00043002028F00002834208BF82428E
:100C80000FBF40461C22404600F0D4FD80468946F6
:100C900000F06EFEFF1F002F044609DD00F086FE07
:100CA00002460B464046494600F092FE8046894681
:100CB000F01D072104E004F00F0200F8012D2411BB
:100CC000002C01DD491EF6D5491E5CBF002200F84C
:100CD000012DF9D5ECE00020194602AA0A4400E0F3
:100CE0005B1E12F80149491E8442F9D00F2804D135
:100CF0000DF10900425C521C4254002904D50198B0
:100D0000001D02AE5B1C0190591E12D49DF83800E4
:100D10007218A0F13A04177830375FFA87F8B8F103
:100D2000390FC8BFA044491E02F80189F3D58DF8D8
:100D30003800286B002840F1B080591E2963ACE0D0
:100D4000404649460022002300F044FD019938BF87
:100D500089F0004947F2975041436A4A91FBF2F209
:100D60000192D2F1070204DD40464946FFF79BFE9F
:100D70000AE0524200206449FFF795FE02460B4606
:100D80004046494600F096FE8046662C286BDFF808
:100D90007CB106BF019F0A3706273F18142FC8BF32
:100DA000142730208DF8080089460DF1090000E075
:100DB0003046002F34DD06464046494600F09EFF8F
:100DC00001460A4606F1080304200A26B2FBF6F69D
:100DD00006EB860EA2EB4E02303203F8012C0A22FB
:100DE000B6FBF2F202EB820EA6EB4E063036401E48
:100DF00003F8026DE9D1083F002F03F10806D7DDA3
:100E0000084600F08FFF02460B464046494600F078
:100E1000DFFD00225B4600F07FFB80468946CBE782
:100E20000DF10901401A0DF1090604E00199491E6E
:100E3000401E0191761C31783029F7D0662C02D102
:100E40000199491C03E0652C0CBF012100212B6B8B
:100E5000CB189842B8BF431E002B1ED4834204DA3D
:100E6000F05C3528A8BF392000DA30201946721E00
:100E700002EB010800E05B1E18F80199491E81454C
:100E8000F9D0392802D1705C401C7054002904D577
:100E90000198401C16465B1C0190019800B200901E
:100EA0001BB29DF838103246284600F034F82FE087
:100EB000C61D002F3FF7BEAE30460DF10901401AA6
:100EC000009903468842C8BF0B46002B0DF1090666
:100ED0003FF52FAF8342BFF6FEAE0DF10900C05CB7
:100EE00007287FF7F8AE0F20F6E60000CBCCCC0C3D
:100EF0000000244002FCFFFFFFFF0F800000E03FE6
:100F00000000F07FA08601000000F03F84D79741E9
:100F10000FB0BDE8F08F2DE9F84E83B006468B4642
:100F200092461C4600F00CFF002C406A376B90F88C
:100F3000009002DC01240FF2B82ABDF930504BF0CA
:100F40002000662808BF6D1C12D0672877D115F1E4
:100F5000040F7ADBBD4278DA96F838006D1C010781
:100F600002D4BC42B8BF27462DB27F1B48BF002722
:100F70002DB2F068B169002D22DC4A1C30234354A5
:100F8000002F03DC96F83800010703D5F06800F85D
:100F90000290521CEF42B8BF7D422DB2EF19684259
:100FA000A742B8BF3C46B261706224B2F461F068F7
:100FB000B36922465146184400F080FB3F1B18E0FD
:100FC0002A469442084416DA2246514600F076FB3F
:100FD000B0692018B0612C1B002F746203DC96F8F6
:100FE00038100A0705D5F16801F80090F069401C37
:100FF000F061B762A0E0514600F060FBB0692818CC
:10100000641B002F03DC96F838100A0703D5F1683B
:1010100001F80090401CB06124B2A742B8BF3C4622
:10102000F068B36924B222460AEB0501184400F0C7
:1010300045FBB0692018B0613C1B74627CE0BBF1D9
:10104000610F14D14FF0700B16E0BC4204DA96F831
:1010500038100A0758BF27467F1E48BF0027BBF13C
:10106000670F14BF4FF0450B4FF0650B04E0BBF169
:10107000410F08BF4FF0500BB169F368481CB061D5
:10108000002F1AF8012B5A5403DC96F838100A077F
:1010900017D5F168431CB36101F80090002F10DDF3
:1010A000641E24B2A742B8BF3C46F06824B2224670
:1010B0005146184400F002FBB0692018B0613F1B94
:1010C0007762F068B1690844002D80F800B003D45D
:1010D0002B214170811C03E02D2141706D42811C48
:1010E00000206A460AE02B460A2493FBF4F505EB40
:1010F0008504A3EB440302F8013B401C2DB2002DF4
:10110000F1DC012806DC4BF02002652A04BF302206
:1011100001F8012B48B9302001F8010B07E0401E0F
:101120001DF80020303201F8012B0028F7DCF068B0
:10113000B2691044091AF16196F8380000F0140001
:1011400010280DD17169B0694118706A4118F069B1
:101150004118B06A4118706B8142BCBF411A3162BC
:1011600004B0BDE8F08EF8B505460E4617461C469D
:10117000002074B117F8011BB068A847B06030B107
:10118000F06A401CF0620020641EF3D1F2BD4FF003
:10119000FF30F2BD7072696E74665F733A20256E1F
:1011A00020646973616C6C6F776564007072696E3E
:1011B00074663A2062616420256E20617267756DE5
:1011C000656E74007072696E74665F733A20626156
:1011D0006420257320617267756D656E7400000070
:1011E0006E616E004E414E00696E6600494E4600CB
:1011F00030000268531C0360117070470278C9B256
:101200008A421AB11CBF10F8012FF9E718BF00205D
:101210007047FEE780B508B90FF21C0005490B685E
:101220001BB122220021984701E000F08FFD22200F
:1012300002BD00005C06FF1F636F6E73747261690C
:101240006E742068616E646C65723A20626164201D
:101250006D6573736167650000F10103810704D058
:1012600010F8011B89B18107FAD10268B2F101318E
:10127000914311F0803F04BF50F8042FF6E710F8B7
:10128000011B11B110F8011BFBE7C01A7047FEE704
:10129000C9B2830706D0521E22D310F8013B9942EF
:1012A000F7D11FE0083A13D302F1040241EA012109
:1012B00041EA014150F8043B121F21BF4B40A3F10A
:1012C000013C2CEA030C1CF0803FF3D0C9B2001F94
:1012D000083210F8013B521E28BF91EA030FF8D8DC
:1012E00018BF0120401E7047B3BBD9B1B2F5803F93
:1012F0007DD2022A1ED98C46B1FBF2F102FB11C34A
:101300001B0443EA1043B3FBF2FC02FB1C3380B224
:1013100040EA0343B3FBF2F002FB103240EA0C4018
:1013200000237047022A05D98446B0FBF2F002FB85
:1013300010C270474AB105D100F0010249085FEAC6
:101340003000704700220023704700F003BD0B00FF
:101350000200002100207047904271EB030CF6D38D
:10136000B3F5803F2FD2F0B5B3FA83F7B1FA81F429
:10137000A7F10F0E3D1B5340CEF1200602FA0EF2EC
:10138000F3415340B5F10F0746D80F3C2C44414080
:10139000C4F12006A040F1414140B1FBF3F603FB4C
:1013A0001611A2FB0645001BA94102D2761E801829
:1013B000594180EA010221FA0EF362FA0EF200218D
:1013C0005A403046F0BD30B4B1FBF3FC03FB1C11B6
:1013D000A2FB0C45001BA94103D2ACF1010C801803
:1013E000594130BC02460B46604600217047B2F1BD
:1013F000807F65D3F0B5B2FA82F7B1FA81F4C7F114
:101400000F063D1B22FA06F307F1110EF2412035BB
:101410005A40B5F10F07B8D94140C4F12006A040A9
:10142000F1414140B1FBF3FC03FB1C11A2FB0C4555
:10143000001BA94103D2BCF1010C801859410F2FA8
:1014400012D30F3FC90341EA5041B1FBF3F603FB4E
:101450001611A2FB0645D4EBC030A94102D2761E7C
:101460008018594146EACC3C07B34140C7F12006F9
:10147000B840F1414140B1FBF3F603FB1611A2FB6A
:101480000645001BA94102D2761E8018594180EA08
:10149000010221FA0EF3C7F1200462FA0EF20CFAEF
:1014A00007F05A402CFA04F13043F0BD80EA010203
:1014B00021FA0EF3002162FA0EF260465A40F0BDA6
:1014C0008C46B1FBF2F102FB11C31B0243EA10632D
:1014D000B3FBF2FC02FB1C331B024CEA002043EA84
:1014E0001063B3FBF2FC02FB1C331B024CEA00202E
:1014F00043EA1063B3FBF2FC02FB1C331B024CEA11
:10150000002043EA1063B3FBF2FC02FB1C324CEAFE
:10151000002000237047FEE7B0B581EA030C0CF011
:10152000004C40F2FF7515EA11541DBF15EA135720
:10153000AC42AF4239E0E41923EA455343F4801347
:10154000C90241F0004141EA505EC7021100A7FB09
:10155000020200284FF00000EEFB01204FF00001D6
:10156000E3FB072118BF42F0010240180021494166
:10157000E3FB0E01A4F580640F0302D25200404148
:10158000494154F101046CDD470872F1004250F109
:10159000000051EB0451A1F580115CBF41EA0C0140
:1015A000B0BD4CEA05510020B0BD05EA1357AC426E
:1015B00014BFAF4241E050EA410E1CBF52EA430E55
:1015C00002E061460020B0BD24423C441BD15FEAEA
:1015D000070EF6D0090302BF01460020AEF1140E3B
:1015E000B1FA81F7AEEB070401FA07FE0C37C7F139
:1015F000200100FA07F7C8404EEA000E23EA4553DF
:1016000043F48013A2E733F00043B3FA83F704BF37
:10161000B2FA82FE77440B3FE41BB7F1200E2FBFD6
:1016200002FA0EF3BB40C7F1200E22FA0EFE38BFBD
:1016300043EA0E03BA40641C82E750EA410E14BF2D
:1016400052EA430E6FF000014FF4001717EB430FFF
:101650008ABF194617EB410FB5E74CEA0551002048
:10166000B0BDD4F10104B4F120070FDAC4F12007B2
:10167000520828BF42F0010210FA07F501FA07F7F5
:10168000E1BF2A43E0403843E1400FE0352C98DCCD
:10169000C7F1200452EA400220FA07F218BF42F0D4
:1016A000010231FA07F0A1400A43002172F1004221
:1016B00050F1000051EB0C01B0BDFEE762B38B07A7
:1016C00008D0521E11F8013B00F8013B00F02480C5
:1016D0008B07F6D1830740F0208000BF103A07D374
:1016E00030B4B1E83810103AA0E83810F9D230BC64
:1016F000530724BFB1E80810A0E8081044BF51F810
:10170000043B40F8043BD20724BF31F8022B20F8F9
:10171000022B44BF0B7803707047121F17D35B0076
:1017200009D151F8043B20F8023B1B0C121F20F892
:10173000023BF6D20BE051F8043B00F8013B1B0AD8
:1017400020F8023B1B0C121F00F8013BF3D238BFFC
:10175000121D521E24BF11F8013B00F8013BF8D8BE
:101760007047FEE710B5144600F002F8226010BD85
:10177000C1F30A5343B14A0012F5001F28D2A3F265
:10178000FE32A1EB0251704750EA410C20D001F02B
:10179000004C31EA0C01B1FA81F204BFB0FA80F3D7
:1017A000D2180B3AB2F120032CBF00FA03F191409A
:1017B00041EA0C013EBFC2F1200C20FA0CF31943A0
:1017C0009040524240F2FD33D21A01EB0351704770
:1017D000002270474FF4001C1CEB410F94BF1CEB20
:1017E000430F09E041EA030C50EA4C0C52EA0C0C9E
:1017F00003D2994208BF9042704714BF8B42824285
:101800007047FEE74FF4001C1CEB410F94BF1CEB2C
:10181000430F09E041EA030C50EA4C0C52EA0C0C6D
:1018200003D28B4208BF8242704714BF9942904254
:101830007047FEE7124254D440F2FF7C1CEA115379
:101840000FD0634531D09B1863453CBF01EB02517B
:10185000704701F0004141EA0C510020AFF30080D5
:10186000704750EA410320D001F0004C91EA0C018E
:101870001CD0B1FA81F30B3B9A420DD9D21A994090
:1018800051EA0C01C3F1200C20FA0CFC6144984091
:10189000531C40F2FF7CD7E7914041EA0C01C2F1B2
:1018A000200C20FA0CF3194390407047B0FA80F3F3
:1018B0001533202BE0D3202AEED3203A203B9A4246
:1018C00009D9D21A00FA03F141EA0C010020531C95
:1018D00040F2FF7CB8E700FA02F141EA0C01002077
:1018E0007047524240F2FF7C1CEA11530DD0634511
:1018F000DBD0B2EB030C3CBFA1EB025170470CF103
:10190000010221EA035141F4801150EA410CCCD08C
:1019100001F0004C352A27DC30B481EA0C01B2F129
:10192000200309DAC2F12003044601FA03F5D0408E
:101930002843D1409C400CE0C3F12002450020FA2E
:1019400003F418BF44F0010421FA03F091400C4362
:10195000002174F1004550F1000051EB0C012442CC
:1019600030BC7FF47BAF70476146002076E7000013
:10197000C1F30A5340F2FE329B1A14DDD3F1200367
:101980004FEAE17208DDC90241EA505141F00040DE
:10199000D84080185040704703F2E13010B1D24374
:1019A00082F000407047002070470000C11768B106
:1019B0004840401AB0FA80F29040D21CC907C2F5E4
:1019C000846241EA025202EBD021400570470000D8
:1019D00070B44FF0004591EA030F40F1C5816B40B0
:1019E000841A71EB030603D2001BB1411219734133
:1019F0004FF4001C1CEB410F34BF7CEB430442E06E
:101A00000C0DA4EB1356352E4FDC45EAC323DB0A3D
:101A100045EAC121C912B6F120050DDD63FA05F6CC
:101A2000EB4086EA0305124218BF45F00105C018D5
:101A300051F100010CD213E062FA06F5F240554074
:101A4000F3415A40B340F3405A408018594107D3FC
:101A500049085FEA30005FEA350528BF45F0010517
:101A600001F58011420875F1004250F1000041EB90
:101A700004514E0016F5001F70BC38BF704700209F
:101A8000090D090570471CEB410F10D252EA4306BD
:101A90000BD0BCEB410F05D80C0DAB43661E342EAA
:101AA000B6DD02E0AB438018594170BC704770BC92
:101AB00070470000F0B540F2FF7581EA030C0CF0AE
:101AC000004C15EA11541DBF15EA1357AC42AF4242
:101AD000E5E0BC41C1F31301C3F31303801A99413C
:101AE00043F4801304D2641E4000494180185941D8
:101AF000C90241EA5051B1FBF3F603FB1611A2FBF8
:101B00000675D7EBC020A94102D2761E8018594134
:101B1000C90241EA5051B1FBF3FE03FB1E11A2FBC7
:101B20000E75D7EBC020A94103D2AEF1010E80188B
:101B30005941890241EA9051760546EA8E2EB1FB61
:101B4000F3F603FB1611A2FB0675D7EB8020A94123
:101B500002D2761E80185941C90241EA50514EEA1C
:101B6000060EB1FBF3F603FB1611A2FB0675D7EBCD
:101B7000C020A94102D2761E80185941C90241EA0B
:101B80005051B1FBF3F703FB1711A2FB0735D3EB61
:101B9000C020A94167F100070CBF004247F00107D0
:101BA00066F3D5274FEA1E31B80814F5806412DDBC
:101BB000BD0775F1004250EB0E5051EB045111F589
:101BC000801F5CBF41EA0C01F0BD4CF07F6141F029
:101BD000E0410020F0BDBD076D0840EA0E5041F421
:101BE0008011D4F10104B4F120060ADAC4F1200610
:101BF0000200E04001FA06F3E1401843B240154309
:101C00000EE0342C13DCC6F1200445EA40056D08D3
:101C100020FA06F2154321FA06F0A1400D430021F7
:101C200075F1004250F1000051EB0C01F0BD0020B5
:101C30005FEA0C01F0BDCFB992185B41B3FA83F7AC
:101C400004BFB2FA82F6BF190B3FB7F120062FBFCF
:101C500002FA06F3BB40C7F1200622FA06F638BFA7
:101C60003343BA401CB1E419641E33E77F4231F0BC
:101C70000041B1FA81F404BFB0FA80F6A4190B3C1C
:101C8000B4F120062FBF00FA06F1A140C4F12006EE
:101C900020FA06F638BF3143A0403C1B1AE7AC429D
:101CA0001ABF05EA1357AF4212E050EA41061CBFC3
:101CB00052EA4306BFE750EA4107304661461CBF7F
:101CC00041EA0551F0BD52EA430C08BFC143F0BDE3
:101CD00000204FF4001616EB410F98BF16EB430F90
:101CE00008BF16EB410F24BFC14305E016EB430FBD
:101CF0000CBF61464CEA0551F0BD0000400D49188B
:101D000040EA81200CD2490DA1F58061491C40F0C8
:101D1000004005DBD1F11F0154BFC840C017704718
:101D200000207047014648B1B0FA80F18840C91CD4
:101D3000C1F58461090501EBD02140057047000021
:101D400001487047000000000004FF1F012000F060
:101D5000BFB800007047000070B44FF0004591EA32
:101D6000030F7FF53DAE6B40841A71EB030604D27E
:101D70006E40001BB141121973414FF4001C1CEB63
:101D8000410F34BF7CEB430682E00C0DA4EB1356ED
:101D9000362E7BDC012E45EAC32341DC43EA525355
:101DA00012BFD20292025B08240545EAC12141EA32
:101DB0005051D2EBC020994125D407D1B0FA80F61A
:101DC00010FA06F162D00020203608E0B1FA81F660
:101DD000B140C6F1200220FA02F21143B0404FEAAE
:101DE000F474B4EB465434F001064FEA74040AD894
:101DF000D6F50016760D04F00044F04061FA06F2C4
:101E00005040F1404840C00A40EA415021F00041B2
:101E100028BF5FEA500550F1000044EBD12135E0C6
:101E2000DB0A45EAC121C90AB6F120050EDD42EA06
:101E30000242120CC5F1200603FA06F6EB4042EA14
:101E400006056D42984161F100010DE062FA06F568
:101E5000F240554063FA06FC82EA0C02F3405A4015
:101E60006D42904161EB030111F4801F05D1641EA6
:101E7000620502D06D004041494121F480114308C0
:101E800075F1004350F1000041EB045170BC704704
:101E90001CEB410F15D223F0004352EA43060BD04E
:101EA0004FEA4C0CBCEB410F04D80C0D661E342ECF
:101EB000B7DDEBE7801A994150EA410608BF0021DF
:101EC000E4E708BF1CEB430F28BF6FF00001DDE71C
:101ED00080B5AFF30080024A11001820ABBEFBE7CB
:101EE0002600020000BF38B5DFF8D44642F2107574
:101EF00000232A460321204600F07CFB00232A46CB
:101F00000221204600F076FB00232A4601212046CC
:101F100000F070FB00232A460021204600F06AFBF7
:101F2000DFF8A0060021A0F84810A0F8E010DFF8C4
:101F3000980600F0C8FBBDE83240DFF8AC0600F0C0
:101F4000C2BB00002DE9F84341F641712DED068B2F
:101F50000446884282B0A8BF4FF4FA5402DA01283E
:101F6000B8BF0024DFF85C6606F14807F97800295D
:101F700000F0AD80B878002840F0A380706BB063AB
:101F8000F0688047B6F90080B0EE408A00EE108A13
:101F900086ED0D8AF8EEC08A2046FFF707FD002285
:101FA000DFF82836FFF786FD9FEDB70A044688EE76
:101FB000800A0D4610EE100A00F0A4FC22462B46C3
:101FC000FFF7AAFA00F0C2FC00EE100AFDEEC00A0C
:101FD000444610EE900A8442B8BFB0EE680AB6F9E3
:101FE000025010EE100A00F08DFC8046894628460B
:101FF000FFF7DCFC02460B4640464946FFF7E8FC8B
:102000000022DFF8C835FFF787FA80468946601B53
:10201000FFF7CCFC02460B4640464946FFF74AFD17
:1020200000F094FC00EE100AD6ED098A96ED089AAD
:1020300086ED110A30EE488AC6ED0A8A86ED099AC5
:1020400086ED088A18EE100A00F05CFC21F00041D1
:1020500041EC1A0BB7F90040F06900F053FC53EC67
:102060001A2BFFF7B7FB09D2B5EE408AF1EE10FA52
:10207000D4BFDFF85C4542F210741EE038EE490A26
:10208000D6ED040A96ED061A20EE200AD6ED050AD2
:1020900000EE880AF0EE000A09EE608A78EE280A5F
:1020A00000EE810ADFED780A20EE200A86ED0B0AA9
:1020B000BDEEC00A10EE100A04193C80B7F900000A
:1020C0000AE0F068804786ED0D0A204604E0F068DB
:1020D000804786ED0D0A002002B0B168CEE0000016
:1020E0002DE9F84341F641712DED068B04468842F7
:1020F00082B0A8BF4FF4FA5402DA0128B8BF002416
:10210000DFF8C00400F1E00600F19807F17800293B
:1021100000F0AD80B078002840F0A380786BB86301
:10212000F8688047B7F90080B0EE408A00EE108A68
:1021300087ED0D8AF8EEC08A2046FFF737FC0022B3
:10214000DFF88834FFF7B6FC9FED4F0A044688EEAF
:10215000800A0D4610EE100A00F0D4FB22462B46F2
:10216000FFF7DAF900F0F2FB00EE100AFDEEC00A0C
:10217000444610EE900A8442B8BFB0EE680AB7F940
:10218000025010EE100A00F0BDFB8046894628463A
:10219000FFF70CFC02460B4640464946FFF718FC89
:1021A0000022DFF82834FFF7B7F980468946601B24
:1021B000FFF7FCFB02460B4640464946FFF77AFC18
:1021C00000F0C4FB00EE100AD7ED098A97ED089ADB
:1021D00087ED110A30EE488AC7ED0A8A87ED099A21
:1021E00087ED088A18EE100A00F08CFB21F0004100
:1021F00041EC1A0BB6F90040F86900F083FB53EC90
:102200001A2BFFF7E7FA09D2B5EE408AF1EE10FA81
:10221000D4BFDFF8BC4342F210741EE038EE490A26
:10222000D7ED040A97ED061A20EE200AD7ED050A2D
:1022300000EE880AF0EE000A09EE608A78EE280ABD
:1022400000EE810ADFED100A20EE200A87ED0B0A6E
:10225000BDEEC00A10EE100A04193480B6F9000071
:102260000AE0F868804787ED0D0A204604E0F86828
:10227000804787ED0D0A002002B0B968BDEC068BDF
:10228000BDE8F443084700000000C842D14908787F
:1022900000283ED0D04882680B2A08D388684A6854
:1022A000401C002A2BDD521E4A60886010E0426C00
:1022B0000B2A3CBFD0F880300B2BEFD250F8BC2F4C
:1022C0000B2A3CBFC06B0B28E8D24A68521C4A60FC
:1022D00048680A2802DA8A68042A1ADD8A684B6884
:1022E000B8489A420DDA0A224A600021BF4A1170AA
:1022F00080F84B1080F8E3104E2000F0A2BB8860FD
:10230000E9E700224A608A60012180F84B1080F8DA
:10231000E3107047F8B52DED028BAB48A94E00F0E5
:10232000F3F904462200B6F9001048BF5242914228
:1023300004DA002C0C4644BF644224B22200B6F9F1
:10234000021048BF52428A4204DA002C0C4644BFB5
:10235000644224B20020F067DFEDA00A204600EEC0
:10236000100AB8EEC00A20EE200A86ED1F0A10EE11
:10237000100A06F1800500F0C5FAD5E90023FFF741
:10238000EBFC41EC100B9FED968B85ED000B53ECB5
:10239000102B51EC180BFFF7BFF8FFF7E9FAA86014
:1023A000DFED930A686996ED1F0A401C6861C0EE74
:1023B000200AC5ED030A002095ED050A2861B8EE54
:1023C000400ADFED8B0A60EE200A10EE900A00F062
:1023D00099FA02460B46D5E90001FFF76BFB00F0C6
:1023E000B5FA28613486B6F90270E01BFFF7DEFA11
:1023F00053EC182BFFF790F80446B6F900000D4691
:10240000C01BFFF7D3FA02460B4620462946FFF7CA
:1024100051FB00F09BFABDEC028B00EE100AF1BDFF
:10242000F8B52DED028B82B06F4800F06DF90446CF
:10243000644800F1980664422200B6F9001048BFD3
:102440005242914203DA002C0C4648BF64422200FB
:10245000B6F9021048BF52428A4203DA002C0C46F9
:1024600048BF644200EE104A0021B8EEC00ADFED1A
:102470005B0AF16720EE200A00F58C75348686ED44
:102480001F0A10EE100A00F03DFAD5E90023FFF70D
:1024900063FC41EC100B9FED528B85ED000B53EC70
:1024A000102B51EC180BFFF737F8FFF761FAA86013
:1024B000DFED4F0A686996ED1F0A401C6861C0EEA7
:1024C000200AC5ED030ADFED4A0A95ED050AB8EECC
:1024D000400A60EE200A10EE900A00F013FA02465D
:1024E0000B46D5E90001FFF7E5FA00F02FFA286165
:1024F000B6F90270E01BFFF759FA53EC182BFFF7FF
:102500000BF80446B6F900000D46C01BFFF74EFA63
:1025100002460B4620462946FFF7CCFA00F016FA91
:1025200002B000EE100ABDEC028BF1BD38B50446D6
:10253000210048BF494242F211729142A8BF42F2C3
:10254000107001DA002C09DD1D4C82B203212046F7
:1025500000F095F800220221204609E0184D0022E3
:102560000321284600F08BF86442A2B202212846DB
:1025700021E038B50446210048BF494242F21172B9
:102580009142A8BF42F2107001DA002C09DD0C4C18
:1025900082B20121204600F072F80022002120467C
:1025A00009E0074D00220121284600F068F8644246
:1025B000A2B200212846BDE8384000F060B8000013
:1025C00000900B40B001FF1F0090034000005940F5
:1025D000F0D8FFFF0406FF1F8804FF1FB7BF35397F
:1025E000000000000000594000A003405706FF1FF4
:1025F0006F12033B2DE9F04104460D4690461F46FD
:1026000000F088F8064601222946204600F098F896
:10261000AD49AE4809784143080CB0FBF8F080B2F0
:10262000002200E0521C20FA02F3012BFADAD2B2A7
:10263000082A22DAD140B1FBF8F0A54980B241F86E
:10264000260002F0070242F00802226004EBC501F6
:102650002823CA6822F00402CA60CB60A06000226E
:10266000401CE26447439B4887FB0020001300EBBB
:10267000D07080B2086100206060BDE8F08130B4A5
:10268000954B984208BF00230FD0944B984208BF47
:1026900004230AD0924B984208BF082305D0914BDF
:1026A00098420CBF0C234FF47F73894C8E4DE35836
:1026B0005B1C5A43A2FB0554E20000EBC100120C64
:1026C000026130BC704710B504460022002100F0C2
:1026D00037F8606D40F0040060650021D4F8800098
:1026E00040F00800C4F88000E1644FF6FF70A0607D
:1026F000D4F8800040F00100C4F88000606D40F024
:1027000001006065616010BD0146002248684A60B2
:1027100000B270477049884201D1002070476F496C
:10272000884201D1012070476D49884201D10220C1
:1027300070476C49884201D103207047FF207047E1
:10274000654B984208BF00200ED0644B984208BFEA
:10275000012009D0624B984208BF022004D0614B8F
:1027600098420CBF0320FF20002A00F0918003282C
:1027700000F2A880DFE800F0023346575B48C268E9
:1027800042F080720729C26000F29C80DFE801F00D
:1027900004080C1014181D224FF48060544952E0B4
:1027A0004FF48061524A53E04FF48060504954E046
:1027B0004FF480624E4855E04FF440714D4A56E068
:1027C0004D4A4FF48060506170474B484FF4806130
:1027D0008161704748494FF48062CA61704743483D
:1027E000C26842F00072C26011B1012905D0704781
:1027F00040494FF44070486170473E484FF4407282
:10280000826170473948C26842F08062C26011B18B
:10281000012904D070474FF44070384913E04FF459
:102820004071364A14E03148036843F000730729C9
:10283000036047D8DFE801F004090E13181D2227B2
:102840004FF480602C49086070474FF480612A4A39
:10285000516070474FF480602749886070474FF49B
:1028600080622548C26070474FF4C061244A1160FD
:102870007047234A4FF4C060506070471C484FF4C3
:102880004071416270471A494FF440728A62704742
:10289000012802D002280BD070471448C16841F0CB
:1028A0000071C1604FF4C06112484160816070479F
:1028B0000E48C16841F08061C1604FF4C0610D48AD
:1028C000C1600161704700004B06FF1F40420F00CE
:1028D0003006FF1FAD8BDB68008003400090034093
:1028E00000A0034000900B405917B7D1308004403E
:1028F00004B004401C90044000C0044048A00440C0
:1029000024D00440C0F3C75181B1FF2906D0C110C3
:10291000400721F0E04101F16051704741020CBFD6
:1029200040F4E0016FF000410020704700F00041EA
:1029300000020AD0B0FA80FC00FA0CF001F16051FC
:10294000A1EB0C5101EBD0214005704701F0004292
:102950008B1AA3F16051B1F5801F0ADBB1F17F6FD3
:102960001FD242EAC102C10071F1004142EB507036
:1029700070470B15C3F10903212B10D2890241EADC
:10298000905180020128494141F0004121FA03F0B1
:10299000C3F12003994071F100415041704710008C
:1029A00070476FF0000013EB103F5CBF000E42EA6F
:1029B000C050704778B4324C25684FF40076430914
:1029C0009E403543256000F01F002E4C04EB83062B
:1029D000756955F8206026F4E06645F8206055F8E2
:1029E000206046F4807645F8206055F820600E435C
:1029F00045F8206054F8233001240029596904FA6D
:102A000000F014BF014381435961002A196814BFC3
:102A1000084321EA0000186071BC7047194B81B06F
:102A2000420953F8222000F01F00012300295169B8
:102A300003FA00F014BF084321EA0000506101B01E
:102A40007047104B81B0420953F8222000F01F005C
:102A500001230029116803FA00F014BF084321EA9A
:102A60000000106001B07047014606484A0950F85E
:102A70002200006901F01F01C84000F0010070470A
:102A8000388004403804FF1FDFF8C814DFF8C8049A
:102A900091F90030032B81B000F1BC020FD1416CE1
:102AA000002904BF1068002823D0B2F9002009B221
:102AB0008B1A64204343511893FBF1F019E08168AD
:102AC000002904BFD06B002808D0B2F93C2009B21D
:102AD0008B1A64204343511893FBF1F000B20100BC
:102AE00048BF4942502904DB002854BF50206FF0F2
:102AF0004F00DFF8681400220A8008808A5E0B2AE3
:102B000002DB4B68D2184A6000B201B0704740F255
:102B1000762332220521DFF84804FFF76BBD2DE94B
:102B2000F0418046DFF83C4404F1D20604F1680528
:102B30003078002840F0678104F1B007F88A2988CE
:102B4000F8836980606A8047A7F800802880B7F919
:102B5000001094ED160A84ED170A84ED180A081A7D
:102B6000FEF724FFFFF7F2FEA065002004EB400112
:102B70006C31401C4A880A8004EB40016C31401CD7
:102B80004A880A8004EB40016C31401C4A880A8064
:102B90000828EBDD298BD5ED070A95ED081AB5F964
:102BA00000006983E882B5F9041000EE101AB8EE4F
:102BB000C00AB5F9061020EE200A00EE901AF8EED1
:102BC000E00AB5F9081000EE810A00EE901AF8EE5E
:102BD000E00A95ED091AB5F90A1000EE810A00EE37
:102BE000901AF8EEE00A95ED0A1AB5F90C1000EE0D
:102BF000810A00EE901AF8EEE00A95ED0B1AB5F98D
:102C00000E1000EE810A00EE901AF8EEE00A95ED43
:102C10000C1AB5F9101000EE810A00EE901AF8EEC9
:102C2000E00A95ED0D1AB5F9121000EE810A00EEDA
:102C3000901AF8EEE00A95ED0E1AB5F9141000EEB0
:102C4000810A00EE901AF8EEE00A95ED0F1A00EEF8
:102C5000810A00EE900AF8EEE00A95ED101A00EEF7
:102C6000810ABDEEC00A10EE100A288300B210FBE4
:102C700000F000EE100AB8EEC00AD4ED010A20EE12
:102C8000201A84ED0E1A94ED0D0AD4ED020A30EEEE
:102C9000011ABDEEC11A11EE100ABDEEE01A11EED6
:102CA000101A8142BCBF30EEC00A84ED0E0A94EDCA
:102CB000100A94ED111AD4ED040A30EE011ABDEE9B
:102CC000C11A11EE100ABDEEE01A11EE101A81427F
:102CD000BCBF30EEC00A84ED110A2146092001F183
:102CE000B202891C53881380401EF8D1B5F9181020
:102CF00094ED0D0AD4ED0E0AB5F91A0094ED111AEF
:102D000030EE200A00EE901AF8EEE00A20EE200ADB
:102D1000D4ED100A70EE810A091A01EE101AB7F903
:102D20000210B8EEC11A00EE810AD5ED070A95ED42
:102D3000081ABDEEC00A10EE100A00EE101AB8EE26
:102D4000C00AB7F90410B88220EE200A00EE901AEB
:102D5000F8EEE00AB7F9061000EE810A00EE901ACC
:102D6000F8EEE00A95ED091AB7F9081000EE810AAD
:102D700000EE901AF8EEE00A95ED0A1AB7F90A107B
:102D800000EE810A00EE901AF8EEE00A95ED0B1ABB
:102D9000B7F90C1000EE810A00EE901AF8EEE00A86
:102DA00095ED0C1AB7F90E1000EE810A00EE901A9C
:102DB000F8EEE00A95ED0D1AB7F9101000EE810A51
:102DC00000EE901AF8EEE00A95ED0E1AB7F912101F
:102DD00000EE810A00EE901AF8EEE00A95ED0F1A67
:102DE00000EE810A00B200EE900AF8EEE00A95EDDE
:102DF000101A00EE810ABDEEC00A10EE100A00B2F1
:102E00004042F88202E0606A80472880707808B10A
:102E1000A16A884704F1B001C88A098B0818E169E2
:102E2000BDE8F04100B208474E4A02F1D00382B03B
:102E3000197979B1B2F902108842B8BF0846B2F9DF
:102E400000108142B8BF084640F27621081A188067
:102E500000B201E040F2762002B03FE07CB5414D87
:102E600005F14806B6F96400B6F966100818B6F917
:102E70002010884205F1C60409DA01202073686A2F
:102E80008047308400202080B5F9020004E0002053
:102E90007060308020802073608073BD7CB5314DC0
:102EA00005F14806B6F96410B6F96620B6F92000B7
:102EB0005118884205F1C60409DA01202073686AB6
:102EC0008047308400202080B5F9020004E0002013
:102ED0002073706030802080608073BD010048BF27
:102EE000494242F211729142A8BF40F2762001009D
:102EF00048BF494240F2BD229142A8BF4FF42F7013
:102F0000010048BF4942B1F50C7FB8BF4FF40C70C7
:102F100082B205211248FFF7B2BB134A134892ED63
:102F20000D0A0168B5EE400AF1EE10FA01BF104A31
:102F300092ED0D0AB5EE400AF1EE10FA08BF491CF9
:102F4000052905DB074A40F27621A2F8D0100021BE
:102F5000016070474406FF1F8804FF1F2803FF1FFE
:102F600000800340E002FF1FB001FF1F5806FF1F53
:102F70004802FF1F0CB410B5DFF8784423790246ED
:102F80005A430846E27002A900F048FAE178207935
:102F900041180020E170A07010BC5DF80CFB10B56A
:102FA000002201211320FFF705FD0022012110203E
:102FB000FFF700FD002201211120FFF7FBFC00229A
:102FC00001210F20FFF7F6FCDFF82C44206840F4C5
:102FD000002020603220216821F400312160C046A9
:102FE000C046206840F400302060AE2000F086F833
:102FF000002000F083F8102000F080F8402000F05E
:103000007DF8812000F07AF8CF2000F077F8A12039
:1030100000F074F8C82000F071F8A62000F06EF8F7
:10302000A82000F06BF83F2000F068F8D32000F0F3
:1030300065F8002000F062F8D52000F05FF88020ED
:1030400000F05CF8D92000F059F8F12000F056F8B3
:10305000DA2000F053F8122000F050F8DB2000F0E6
:103060004DF8402000F04AF8202000F047F80220F8
:1030700000F044F88D2000F041F8142000F03EF8F4
:10308000A42000F03BF8A62000F038F8AF2000F0B4
:1030900035F8002000F069F8B02000F02FF810207B
:1030A00000F02CF8002000F029F8BDE810407AE08C
:1030B00010B4DFF84423116841F400411160082185
:1030C000136823F400231360491E030604D5136814
:1030D00043F48033136003E0146824F480341460F4
:1030E000136853F40023136000BF1468400024F4F5
:1030F000002400291460E7D110BC704710B4DFF839
:10310000F822116821F4004111600821136823F4AA
:1031100000231360491E030604D5136843F480336B
:10312000136003E0146824F480341460136853F4CB
:103130000023136000BF1468400024F40024002919
:103140001460E7D110BC704710B50446A1F15000DF
:10315000C0B2FFF7D3FF200940F01000FFF7CEFF09
:1031600004F00F00BDE81040C8E7F8B5044600259C
:10317000DFF88062A5F15000C0B2FFF7BFFF012069
:10318000FFF7BCFF1020FFF7B9FF002703E0204640
:10319000FFF78EFF7F1C7178F8B28842F7D36D1C61
:1031A000082DE7DBF1BD70B50024DFF84852A4F12B
:1031B0005000C0B2FFF7A2FF0120FFF79FFF1020D1
:1031C000FFF79CFF002603E00020FFF771FF761C4D
:1031D0006978F0B28842F7D3641C082CE7DB70BD35
:1031E0002DE9FC4104460D46904600272FE0E4B24D
:1031F0007F2CA4BF00246D1CA0F12006A5F1500077
:10320000C0B2FFF77BFF200940F01000FFF776FF08
:1032100004F00F00FFF772FFF6B2DFF8E00106EBF3
:10322000460100EB4106A41D3078FFF741FF70789E
:10323000FFF73EFFB078FFF73BFFF078FFF738FF6E
:103240003079FFF735FF7079FFF732FF7F1CFFB24F
:1032500018F807000028CAD1BDE8F381FEB50023A5
:103260008DF80530664D664FA2FB0554E30803EB6D
:103270008305A2EB450430348DF80440604DA3FB78
:103280000554E40804EB8406A3EB46035D4EA2FB61
:103290000665AD09A5FB07765B4FF60806EB8604CD
:1032A000A2FB0776760AA5EB4405554CA6FB04C79E
:1032B000FF0807EB8704A6EB4406544CA2FB04C7A7
:1032C0007A0B4F4CA2FB04C7FF0807EB8704A2EB65
:1032D000440230328DF8002030369DF800208DF801
:1032E0000160303330358DF803308DF80250302ACC
:1032F00001BF20278DF80070F6B2302E0AD1EDB252
:103300008DF80170302D01BF8DF80270DBB2302BCB
:103310008DF803706A4668E0FEB5F2EE040A0022FA
:1033200020EE200A8DF80520B5EE400AF1EE10FAE5
:103330006A4603DD2B238DF8003004E02D238DF841
:103340000030B1EE400ABDEEC00A10EE103A304C2B
:103350002F4F83FB0454A41004EBD47404EB8406B5
:10336000A3EB4605303584FB07C71571BF1007EB8B
:10337000D77707EB8705A4EB45043034D470244D90
:10338000244C83FB0464641104EBD47484FB056552
:10339000AD1005EBD57505EB8507A4EB470430347C
:1033A00094701D4C83FB0454A31103EBD373184C8E
:1033B00083FB0454A41004EBD47404EB8406A3EB45
:1033C0004603303353709DF80030302B01BF20246A
:1033D0008DF800405378302B07D193785470302B00
:1033E00001BF9470D378302BD470FFF7F9FE03B08F
:1033F000F0BD00007404FF1F00F00F40A84E000055
:10340000CDCCCCCC3E0AD7A3986E12835917B7D136
:10341000676666661F85EB51D34D621003B581B0B8
:1034200002460020009002AB012103487844083096
:10343000FCF7EEFF03B000BD0B2100002DE9FC41BD
:10344000DFF8C863DFF8C843DFF8C8330246F07816
:10345000002800F034813078002700289FEDB61A4C
:10346000B8469FEDB50ADFEDB40A54D09C46A64697
:103470000920DCF85850CCF85450401EDEF8585063
:10348000CEF854500EF1040E0CF1040CF1D1DFF81B
:10349000880394ED142AB0F980C0D4ED132A01EE0C
:1034A00090CAF8EEE11A21EE822A22EE222AD3ED0A
:1034B000142A61EEA21AD3ED132ABCF1000F61EEBB
:1034C000A21A04D4C3ED1E1A84ED1E2A07E0F1EE01
:1034D000611AC3ED1E1AF1EE421AC4ED1E1A00F174
:1034E000840C03F1540E0520DCED002A9EED003A19
:1034F000DCED011A9EED012A02EE831A401E01EE58
:10350000821A0EF1080E0CF1080CEDD1BDEEC11AB5
:1035100011EE10CA00E0C4467078002859D0BE48A9
:10352000B0F980E0BEF1150F27DB01EE10EAB4F927
:103530003C80D0ED051AB4F93EE0B8EEC11A21EE98
:10354000211A01EE908AF8EEE11ABEF1000F21EE89
:10355000211A48BFCEF1000E08EBD870DFEDA01A9B
:10356000401081EE211A8645BDEEC11A02DA11EE35
:10357000108A30E001EE100AF9E71EF1140F2ADA82
:1035800001EE10EAB3F93C70D0ED051AB3F93EE054
:10359000B8EEC11A21EE211A01EE907AF8EEE11A86
:1035A000BEF1000F21EE211A48BFCEF1000E07EB4D
:1035B000D770DFED951A401081EE211A8645BDEED9
:1035C000C11A02DA11EE107A05E0404201EE100A4B
:1035D000F8E7D887E087B078DFF840E2002847D0E6
:1035E0008D489EF90050B0F9806015B1012D10D0C2
:1035F00040E08B48D0F880600A2E3BD88568152DB6
:103600003CBFD0F8F800152834D201268EF80060AF
:1036100030E001EE106AB8EEC11AD0ED061AB0F92A
:103620006800002821EE211A0EDDB4F93C6000EE9E
:10363000906AF8EEE00A61EE200A9FED691AC0EE8A
:10364000810AFDEEE00A0DE0B3F93C0000EE100A3D
:10365000B8EEC00A21EE000A9FED6B1A80EE010A57
:10366000BDEEC00A6E48D0F88060092E02D9002055
:103670008EF80000A2EB0C02BA1810EE100AA1EBB3
:103680000C018218414410EE900ADA874118E18754
:1036900012B2B3F94200904204DAD88700214E20DA
:1036A000FFF7CFF9B4F94200B4F93E10884208DAC6
:1036B000E0870021BDE8FC414E20FFF7C2B9D88762
:1036C000E087BDE8F38170B55648524D0168504C13
:1036D00041F001010160B5F94000B4F94010FFF775
:1036E000ADFE514991F90020052A02D000F0AEF854
:1036F00006E04E4890F90010082918BF00F0FDF8C8
:103700004B4890F90000032818BF022806D140F268
:10371000DC56696830468847304609E0A88FE98F53
:103720000818696800B28847A08FE18F081800B2B6
:103730006168BDE8704008470000000010B53D48D2
:103740003D4C016841F00101016000F0CDF900F04D
:1037500057F9B4F94400B4F946100818FFF7DFF937
:103760002E4890F90020012A0AD1B4F90010BDE8D2
:103770001040002954BF6FF045004620FFF754BBAE
:1037800010BD30B42D482E4C0168214A214B41F028
:10379000010101602078204948B1012583F84B5090
:1037A00082F84B5081F8D45030BCFEF76FBD83F8DF
:1037B0004B0082F84B0081F8D40003F17C00002319
:1037C000036042F87C3F036113614361536183618D
:1037D00001F1480093614360038030BC70470000F2
:1037E0000000C84280B51748154A016841F0010140
:1037F0000160107818B9FFF7D6FC00F078FB124989
:103800000120087001BD00000000C8C28004FF1F35
:103810004802FF1FB001FF1FE002FF1F6206FF1FEB
:103820008804FF1F0C7103404C06FF1F6106FF1F39
:103830004406FF1F1C7103404803FF1F2C71034007
:103840005706FF1F3C7103406306FF1F10B59C4CD9
:1038500094F9000005284FD8DFE800F00309192F7C
:103860003B4898490878002846D001223CE0964918
:10387000D1F888002528A2BF9449D1F88820252AAC
:103880003ADB022000F0CEFB0221217010BD9048EF
:103890000021C17001208F4901F1C602002310737D
:1038A0005380B1F90000C969108088478748818F2B
:1038B000C1F57A71C187032009E0606840F2E931FF
:1038C000401C8842606017DB00206060042020708C
:1038D00010BD81487D4A002101804180D18701735C
:1038E00001207B49C8700522227010BDBDE8104040
:1038F00000214E20FFF7A5B810BD70472DE9F84311
:10390000DFF8D88108F5C4794046D9F80010884717
:1039100008F58077D9F80430802239464046984728
:103920000426002400253A4608F1020C7E2040F6C9
:10393000FF731178012901BF51780029917801297D
:1039400003D101215170ACF800301178002904BF77
:103950005178012904D1917811B95470ACF8001054
:10396000521C401E0CF1020CE3D180203978012951
:1039700008BF6D1C002D25DD09E0397829B96D1CC3
:10398000012D1FDD002503261CE00129F8D10025AB
:10399000022617E03978002904BF7A78012A11D16C
:1039A00001260FE03978012905D16D1C002D09DDB4
:1039B0000025052606E00029F8D10326002501E0B0
:1039C000641C04267F1C401E14D0052EFAD8DFE8A4
:1039D00006F0080709060504F4E7F1E7C6E7D9E7AA
:1039E000E0E7CAE73A78012A04BF79780029E9D1EB
:1039F0000026E7E7052CA8BF0120BDE8F283000000
:103A0000374890F90410042981B056D8DFE801F056
:103A1000031931404B003349D1F8F8208968502907
:103A200028BF1E2A03D2502A28BF1E2945D3017859
:103A3000491C0170C9B20A293FDB00210170012134
:103A40003AE02849D1F88020342A09D34178491C2A
:103A50004170C9B2042930DD0021417002212BE000
:103A60008178491C8170C9B2032926DB002181704D
:103A700022E01C49D1F88020342A1ED8C178491C84
:103A8000C170C9B2032918DB0021C170032113E002
:103A9000C188491CC18089B2B1F5C87F0DDB002106
:103AA000C180042108E00189491C018189B2B1F576
:103AB000FA6F02DB00210181017101B07047000043
:103AC0004C06FF1F5706FF1FB001FF1F4802FF1FD4
:103AD0008004FF1FE002FF1FA603FF1F0000FF1F5F
:103AE0004006FF1F8804FF1F38B500F0E0F8814A48
:103AF0001068D168884238BFD0605068D168814270
:103B000038BFD060D06B916C884238BF9064106C25
:103B1000916C814202F1840138BF9064906F0B6810
:103B2000984238BF0860D06F0B68834238BF086086
:103B3000086BCB6B984238BFC863486BCB6B834232
:103B400038BFC863C86E8B6F984238BF8867086FEC
:103B50008B6F834238BF8867052164239068D468DF
:103B6000106150681568241A5C43281AB4FBF0F001
:103B7000906002F11404032065682560A568656003
:103B8000E568A5600C34401EF6D190681469001BEE
:103B900090633C32491EE1D131BD574800F086BAEE
:103BA0002DE9F04F89B080460E46174605A801ADB5
:103BB00000210022002300248C468E4689468A4636
:103BC00080E81E0085E8005605AD04243A463146DB
:103BD000404600F0A5FA81463A463146404600F09C
:103BE0009FFA82463A463146404600F099FACA4565
:103BF00004D2C5F80090D146D5F800A0824538BF60
:103C0000D14602D3814538BF8146641E45F8049BE6
:103C1000DCD1CDF8008001A8042405AD8046686899
:103C2000D5F80C9005903A46A86868600590C5F8EC
:103C30000890C5F80490CDF814903146009800F033
:103C40006FFA824600983A46314600F069FA834698
:103C500000983A46314600F063FAD34504D2C5F8DD
:103C60000CA0DA46D5F80CB0834538BFC5F80CB0C7
:103C700004D3824538BF8246C5F80CA0D8F80000AE
:103C8000059900EB41008144E86848448008641EBF
:103C900048F8040BC3D101AA01985168081891682B
:103CA0000818D1680818800809B0BDE8F08F38B549
:103CB000114D01220B2128460E4CFFF771FFE060E9
:103CC00001220A212846FFF76BFFA06401220D2183
:103CD0002846FFF765FF44F8840F01220C2128468F
:103CE000FFF75EFFE06301220F212846FFF758FF30
:103CF000A06731BD8804FF1F00B00B4010B5FFF76F
:103D000052FA0FF27C2200210020FFF769FA954C4D
:103D1000A26800212320FFF7A1FA0FF26C220121F3
:103D20000020FFF75DFA626C01212320FFF796FA6D
:103D30000FF25C2202210020FFF752FAD4F8802013
:103D400002212320FFF78AFA0FF24C2203210020E0
:103D5000FFF746FA8448B0F98020002A48BF524253
:103D600003212320FFF77AFA0FF2342204210020E6
:103D7000FFF736FAD4F8F82004212320FFF76EFA73
:103D8000BDE81040B3E0000010B52DED028BFFF749
:103D90000AFA0FF2142200210020FFF721FA724CD8
:103DA00094ED020A9FED698A20EE080A0021232083
:103DB000FFF7B2FA0FF2F81201210020FFF710FA14
:103DC00094ED100A20EE080A01212320FFF7A4FA3F
:103DD0000FF2E41202210020FFF702FA94ED050A27
:103DE00020EE080A02212320FFF796FA0FF2D412E0
:103DF00003210020FFF7F4F95C48B0F93C20BDEC4A
:103E0000028B0321BDE810402320FFF727BA1CB521
:103E10005748584A0178107851EA000251D00028DA
:103E200044D10129544C1FD1FFF7AEFF207820B9AF
:103E300047A200214620FFF7D3F92078012804D1BA
:103E400043A201214620FFF7CBF92078022804D1B4
:103E50003FA202214620FFF7C3F92078032845D16D
:103E60003BA2032146203CE002291FD1FFF78CFF33
:103E7000207820B937A200214620FFF7B1F9207839
:103E8000012804D133A201214620FFF7A9F92078A7
:103E9000022804D12FA202214620FFF7A1F92078A1
:103EA000032823D12BA2032146201AE0012804D1A4
:103EB000FFF779F90FF2141211E0022804D1FFF78D
:103EC00072F9BDE8134019E7032804D1FFF76BF935
:103ED0000FF2001203E0FFF766F90FF20012032160
:103EE000232002B0BDE81040FFF77AB913BD3EB5FC
:103EF000224C0FF2F005D4E900232946684600F071
:103F000049F915A205210020FFF76AF96A46052143
:103F10002320FFF765F9E068FEF7F4FC02460B4644
:103F20002946684600F036F90CA206210020FFF76A
:103F300057F96A4606212320FFF752F90A48C26C56
:103F400007A1684600F026F903B030BD0000C84262
:103F50002D0000002B0000004C783A004C763A000F
:103F6000256400008804FF1FE002FF1FB001FF1F4F
:103F70005406FF1F5606FF1F5506FF1F3002FF1F86
:103F80004144313A000000004144323A0000000050
:103F90004144333A000000004144343A000000003C
:103FA0004144353A00000000535F4B703A00000076
:103FB000535F4B643A000000446966665F53706566
:103FC00065643A0053706565643A000052756E3F4F
:103FD0000000000053746F703F0000004552524FC4
:103FE0005221000025342E326600000080B50122E7
:103FF00001214020FEF7DEFC012201216F20FEF7A7
:10400000D9FC012201219A20FEF7D4FC01220121D2
:104010005220FEF7CFFCBDE80840012201215320C9
:10402000FEF7C8BC05281DD8DFE800F003070B0F1A
:10403000131700220121112012E00022012140204B
:104040000EE0002201216F200AE0002201219A20C7
:1040500006E000220121522002E00022012153202B
:10406000FEF7A8BC7047000005281DD8DFE800F067
:1040700003070B0F131701220121112012E0012267
:10408000012140200EE0012201216F200AE00122DF
:1040900001219A2006E001220121522002E00122A2
:1040A00001215320FEF786BC70470000194A1A49C7
:1040B000904207D1486A40F0006048620A6822F0E6
:1040C000900206E0886940F0006088610A6822F486
:1040D00010420A600868086070470E4B92009842D0
:1040E00002F00C0218BF0D4B81B042F0500201F0FB
:1040F0001F019A60042041F04001D86019601868DF
:104100000106FCD51869196821F08001196080B298
:1041100001B0704700B003401880044000B00B406D
:104120002DE9F04106460F469046FFF7D6FF0546BB
:10413000424639463046FFF7D0FF044642463946EC
:104140003046FFF7CAFFAC42014602D22846254658
:1041500004468C4203D32C468C4238BF0C46204682
:10416000BDE8F0812DE9F84304460D469046994696
:104170000026002706E0424629462046FFF7D0FFEA
:1041800036187F1CF8B24845F5D3B6FBF9F080B27B
:10419000BDE8F2830CB430B583B0044606A80290A3
:1041A0000A4600250194009502AB01A9084878440D
:1041B0001E30FCF72DF901990D7000284EBF044602
:1041C0000198041B204603B030BC5DF80CFB00BF17
:1041D00023D0FFFF00F00700C0F1070310B4042B49
:1041E00088BF0423041D072C34BF0020C01E0124F7
:1041F00004FA03F35B1E1940814004FA00F0401EEC
:10420000104010BC084370472DE9F843BC4901F544
:1042100080720B46202000241C8014705C80547037
:104220009C809470DC80D4700833121D401EF3D142
:10423000B44DB54E81F8980105F16C08052405F1DF
:10424000800940F6FF77F06037607060B0603061E1
:10425000282106F1140000F07FF900203C3628F8F0
:10426000020B641EC9F80000EDD1A848A84A00213D
:10427000C187D187002305F1C601C9F82C300B8016
:104280000B814B8040F6C4179623038096240023AD
:1042900043809FED940A00F14203F0EE000A1F8074
:1042A00014809FED911A0024548002F1420427806B
:1042B00040F68C278787978746272F806FF0450722
:1042C0006F804FF47A772F65924F6F6580ED040A07
:1042D00000274761C0ED060A82ED040A5761C2ED6E
:1042E000060A9FED820A80ED070A82ED070A4FF069
:1042F0007A576F61B2EE040A4FF07C57AF6185EDDB
:10430000100A85ED040A4C32834F6F639FED780AE3
:104310000027EF634C30814F6F60DFED760A002796
:10432000AF637F4FAF607F4FEF6000276F6482ED18
:10433000010A80ED010A9FED700A82ED000A80ED0E
:10434000000A9FED6E0A784A784D89ED010A89EDE1
:10435000020AC9ED030A89ED041A89ED051A89EDEF
:10436000061A89ED071AC9ED080A89ED090A89EDCF
:104370000A0A012010702F708F811F8127818F738F
:10438000BDE8F18338B500F01EF8694C694D0AE0CC
:1043900000F05EF92078012803D1FFF738FD0021F5
:1043A0002170FFF753FA95F900000528F0D100F0CD
:1043B00058F800F04DF920780128FAD1FFF727FDD1
:1043C00000212170F5E780B50A2000F015FA5A4A5D
:1043D0005A4813684FF6FF010B40034358481360D7
:1043E00002689047FFF702FE00F088FAFFF7D5FB5E
:1043F000FDF778FDFEF78BFB00F0B2F8FEF7CFFD7E
:1044000000F089FA02E00220FFF70CFE00F09AFAB1
:104410000028F8D10220FFF727FE3948D0F8801194
:10442000884700F009F800F031F800F044F8C04681
:10443000C046BDE80140E7E680B50221002000F05B
:10444000FFFA3D4A106801220021C0F30220FFF765
:10445000C1FE3C493C4A000108704FF480311160B4
:1044600001BD80B50221012000F0EAFA324A10684D
:1044700000220121C0F30220FFF7ACFE3349324A8B
:10448000000108704FF40031116001BD80B51421A6
:10449000022000F0D5FA284A106802220021C0F359
:1044A0000220FFF797FE2A49274A000108704FF4BF
:1044B0008021116001BD80B54FF4FA71032000F036
:1044C000BFFA1D4A106803220221C0F30220FFF741
:1044D00081FE20491C4A000108704FF40021116040
:1044E00001BD0000CDCC94408FC2F53D0000484294
:1044F000A69BC43BCDCCCC3D00401C450AD7A33D78
:104500000000FF1FE002FF1F8804FF1FB001FF1F14
:104510004802FF1F18FCFFFFCDCC4C3DDA03AD393C
:1045200085EB513F8FC2F53E0406FF1F5706FF1F64
:104530006306FF1F4C06FF1F0CED00E00005FA05A7
:104540009C01FF1F30E400E004E100E031E400E002
:1045500032E400E033E400E0002200F099BA000009
:1045600080B5012203219820FEF724FA01220321BD
:104570009920FEF71FFA012203219A20FEF71AFA6A
:10458000012203219B20FEF715FABDE80840012215
:1045900003219C20FEF70EBA10B58F4C012808BFEE
:1045A000207002D02178002936D09820FEF75CFADE
:1045B00078B19920FEF758FA58B19A20FEF754FACC
:1045C00038B19B20FEF750FA18B19C20FEF74CFA48
:1045D00010BB322000F076FA002020709C20FEF7FD
:1045E00043FA08B9012010BD9920FEF73DFA08B939
:1045F000022010BD9B20FEF737FA08B9032010BD3A
:104600009A20FEF731FA08B9042010BD9820FEF771
:104610002BFA08B9052010BD9820FEF725FA0128CD
:1046200014D19920FEF720FA01280FD19A20FEF725
:104630001BFA01280AD19B20FEF716FA012805D1A2
:104640009C20FEF711FA012808BF2070002010BD41
:104650003EB50120FFF7A0FF401E042800F2B58000
:10466000DFE800F003121B5CA5005C498878002895
:1046700040F0AB800878401C0870C0B2022840F3BC
:10468000A48002200870A0E054498878002840F0F7
:104690009C800A78531E0B7097E0504908780128D7
:1046A0000CD18878002840F090804878401C4870F1
:1046B000C0B2032840F3898000203DE0022804BFF7
:1046C0008878002840F081804C7854B9444DA8681F
:1046D000FEF718F9434A444BFDF73EFBFEF736F967
:1046E000A860012C06D13E4C206CFEF70BF93D4A28
:1046F0003D4B3DE0022C06D1394C6069FEF702F9D2
:10470000384A394B42E0032C5FD13848818F6431FD
:1047100081873748818F6431818756E02F49087837
:1047200001280BD1887800284FD14A78501E487054
:10473000C0B2002849D10320487046E0022804BFD7
:104740008878002841D14C7854B9254DA868FEF7E7
:10475000D9F8244A274BFDF7FFFAFEF7F7F8A860CF
:10476000012C0BD11E4C206CFEF7CCF81D4A214BBE
:10477000FDF7F2FAFEF7EAF8206426E0022C0BD1EE
:10478000174C6069FEF7BEF8164A1A4BFDF7E4FABB
:10479000FEF7DCF8606118E0032C16D113496420A1
:1047A00088871348818FA1F1640282870DE00B484E
:1047B0008178491C8170C9B2022908BF012103D048
:1047C000032902DD00218170C17003B0BDE83040D3
:1047D000322000F077B900008404FF1F5406FF1F49
:1047E000E002FF1F7B14AE47E17A843FB001FF1F58
:1047F0004802FF1FE17A84BFF0B43B4B1C6844F4CD
:1048000078541C6004003BD0401E0F2838D8DFE8E5
:1048100000F0080B0E1114171A1D2023262C292F27
:104820003235042100222BE00421022228E0042159
:10483000042225E00421082222E004210A221FE0AC
:1048400004210C221CE004210E2219E00421102274
:1048500016E00421122213E00421142210E00421A6
:1048600018220DE004211C220AE004211D2207E089
:1048700004211E2204E004211F2201E0032116224C
:104880001A481B4F8024047001F007040471194C6E
:104890002568266846F47F062660DF6002F01F0365
:1048A000256043F04003437183799C06FCD58379EE
:1048B0005C06FCD5002404708379C3F38103032BC9
:1048C000FAD152B21032322010FB02F202EBD27255
:1048D00049B209485210491C92FBF1F1017001786C
:1048E00049084170F0BC70473880044000400640E1
:1048F0000000270100F001404A06FF1F01220121AC
:104900004E20FEF757B800000B4909680A791306D4
:10491000FCD5C871704780B5002200216920FEF7E0
:1049200049F84FF4E131054800F0E8F804494FF048
:104930000040086001BD00006004FF1F00A00640A9
:1049400000E100E02DE9FC4700F07AF902E00220E6
:10495000FFF768FB6A467521D02000F063FA9DF8E6
:1049600000006828F3D180226B21D02000F079FA72
:1049700032490A6904466420904700226B21D02006
:1049800000F06FFA041918221B21D02000F069FAF8
:10499000054608221C21D02000F063FA06460022BA
:1049A0001921D02000F05DFA4FF4FA7000F02CF8D5
:1049B000074602221A21D02000F053FA8046002236
:1049C0003821D02000F04DFA814600226A21D02003
:1049D00000F047FA2C19341982463C1901226B2148
:1049E000D020444400F03DFA4C44544404190022C1
:1049F0006C21D02000F035FA0419E0B2401E80414D
:104A0000C043C00FBDE8F687BC2882B0A8BF012212
:104A10000FDA6228A8BF02220BDA2A28A8BF0322D5
:104A200007DA1428A8BF042203DA0A28ACBF05223B
:104A300006221A21D02002B000F013BA9C01FF1FF9
:104A400010B40F4A136843F4000313600D4A14684E
:104A5000A408A40014600C4A0C4C02EB001322784A
:104A600051434FF47A7041431960D86840F0010017
:104A7000D860986840F00300986010BC7047000050
:104A80003C80044000700340007103404B06FF1F50
:104A900000B500BF130096469446103928BFA0E821
:104AA0000C50FAD85FEA417C28BF0CC048BF40F8E0
:104AB000042BC90728BF20F8022B48BF00F8012BA0
:104AC00000BD0000FFE7010013D00A490A6842F068
:104AD00001020A60002308490B60886005204860D5
:104AE0000120086008680206FCD50A6852085200D6
:104AF0000A607047388004400000044038B4414ADE
:104B000090420AD1404BDC6844F48064DC604FF48E
:104B100040743E4B1C615C6136E03D4B98420AD1CB
:104B2000394BDC6844F40064DC604FF44073394C6A
:104B30002360636028E0384B98420AD1324BDC682E
:104B400044F48054DC604FF44074304B5C601C6073
:104B50001AE0324B98420AD12B4BDC6844F40054E3
:104B6000DC604FF440732B4C6363A3630CE02C4B6D
:104B7000984209D1244B1C6844F480641C604FF4B3
:104B80004073284C636023609042C37803F0F303C2
:104B9000C3701CBF1E4A90428378234A837007BFAC
:104BA000224B1B78224C237853430A01B3FBF2F2C9
:104BB00094B2B4F5005FA8BF41F6FF720478150403
:104BC0002D0E04F0E00405F01F052C430470427024
:104BD000B3FBF1F1847AA1EB021104F0E00401F0DF
:104BE0001F010C438472017C41F088010174C1787B
:104BF00041F00C01C17031BC704702791306FCD53D
:104C0000C171704700A006402880044008C00440DD
:104C100000B006400CB0044000C0064000D0064082
:104C200000A00E4060D0044040420F004A06FF1F23
:104C30004B06FF1F642000BF401E0028FBD17047B9
:104C400080B5012201210D20FDF7B4FE01220121D2
:104C50000C20FDF7AFFE9348016841F4005101605C
:104C6000026842F48052026001BD10B501210C209F
:104C7000FDF7D4FE8B4C216841F4805121602068FF
:104C800040F4005020600420FFF7D4FF206820F497
:104C900080502060042057E010B501210C20FDF762
:104CA000BDFE804C216821F400512160206820F471
:104CB000805020600420FFF7BDFF206840F40050C2
:104CC00020600420216841F480512160BDE810403B
:104CD000B0E710B500210C20FDF7A0FE714C216853
:104CE00041F4805121600120FFF7A4FF206840F4C7
:104CF000005020600120FFF79DFFFB212069C0F3D9
:104D0000003028B1491EF9D1FFF7C6FF012010BDC0
:104D1000206820F400502060002010BD10B5614CC8
:104D2000226822F40052226001210C20FDF776FE59
:104D3000226822F4805222600120FFF77BFF206866
:104D400040F4005020600220FFF774FF206820F438
:104D50000050206010BD10B5524C226822F4005261
:104D6000226001210C20FDF759FE226842F4805296
:104D700022600120FFF75EFF206840F400502060B1
:104D80000120E1E770B5054601210C20FDF746FE44
:104D9000444E316821F400513160082430682906FE
:104DA00020F48050C90F40EA013030606D000120CE
:104DB000FFF740FF306840F4005030600120FFF7FB
:104DC00039FF306820F4005030600120FFF732FFD7
:104DD000641EE3D170BDF8B5054600210C20FDF737
:104DE0001DFE002608242F4F386820F4005038603C
:104DF00076000120FFF71EFF386840F4005038604D
:104E00003869C0F3003000B1761C0120FFF712FFB3
:104E1000641EE9D115B1FFF781FF01E0FFF79BFFA9
:104E2000F0B2F2BD70B504460D461646FFF71DFF01
:104E30002046FFF7A7FFFFF74CFF00B12AE0284606
:104E4000FFF7A0FFFFF745FFFFF70FFF641CE0B27D
:104E5000FFF798FFFFF73DFF0020FFF7BCFF307022
:104E60001CE070B504460D461646FFF7FEFE2046D0
:104E7000FFF788FFFFF72DFF50B92846FFF782FFA5
:104E8000FFF727FF3046FFF77DFFFFF722FF00B156
:104E900000E003E0FFF700FF012070BDFFF7FCFE1C
:104EA000002070BD00F00F40000000000000000076
:104EB000002F000000000700070000147F147F147B
:104EC00000242A7F2A120062640813230036495501
:104ED000225000000503000000001C2241000000D9
:104EE00041221C000014083E08140008083E08086F
:104EF000000000A0600000080808080800006060CA
:104F00000000002010080402003E5149453E000008
:104F1000427F4000004261514946002141454B31EA
:104F2000001814127F10002745454539003C4A49B6
:104F30004930000171090503003649494936000628
:104F40004949291E00003636000000005636000090
:104F5000000814224100001414141414000041220B
:104F6000140800020151090600324959513E007CE3
:104F70001211127C007F49494936003E41414122CD
:104F8000007F4141221C007F49494941007F0909B6
:104F90000901003E4149497A007F0808087F000066
:104FA000417F4100002040413F01007F0814224121
:104FB000007F40404040007F020C027F007F0408D9
:104FC000107F003E4141413E007F09090906003E35
:104FD0004151215E007F091929460046494949315E
:104FE0000001017F0101003F4040403F001F204081
:104FF000201F003F4038403F00631408146300073F
:105000000870080700615149454300007F41410095
:1050100000552A552A55000041417F000004020135
:105020000204004040404040000001020400002013
:1050300054545478007F4844443800384444442051
:1050400000384444487F00385454541800087E09FE
:1050500001020018A4A4A47C007F080404780000C6
:10506000447D4000004080847D00007F1028440083
:105070000000417F4000007C04180478007C080494
:10508000047800384444443800FC242424180018D0
:10509000242418FC007C08040408004854545420BC
:1050A00000043F444020003C4040207C001C204045
:1050B000201C003C4030403C004428102844001C88
:1050C000A0A0A07C004464544C4414141414141480
:1050D000100000D1704730B4614901F5807040F68E
:1050E000FF7340F2DC540D88A542A7BF0B80012559
:1050F00000250D80891C521E00F8015BF3D130BCE5
:1051000070470000C1B231B1401E322100BF491EBC
:105110000029FBD1F6E7704780B501220121372035
:10512000FDF748FC012201213520FDF743FCBDE8D5
:1051300002404C48FEF7BABFF8B54B4D494F2968BD
:1051400041F40011064629600120FFF7DBFF2968C2
:1051500041F4000129600120FFF7D4FF286820F402
:105160000010286080240120FFF7CCFF0120FFF70A
:10517000C9FF286840F4000028600120FFF7C2FF43
:10518000052301220F213846FEF7ECFF26F8020B1B
:10519000641E286820F400002860E7D10120FFF792
:1051A000B1FF286840F4000028600120FFF7AAFF43
:1051B000286820F400002860F1BD2DE9F8432B4C4D
:1051C000DFF89C90A0688047074640F2DD58A06851
:1051D0008047C01B3228FAD3A0688047074648465C
:1051E000FFF7AAFF00254E4607212846FDF7ACFF32
:1051F00030884045ACBFFF200020FDF759FF6D1CF3
:10520000B61C802DF0DBE2E770B5FEF777FB18B136
:1052100000214E20FDF715FC15490878421C0A7044
:10522000144980FB0121491001EBD17101EB81018F
:10523000401A14D1104D54212846FFF7DEFC084EC9
:1052400080243088000401162846FFF7D6FC36F883
:10525000021B49B22846FFF7D0FC641EF1D170BD95
:105260000000FF1F00B0034040F00F409C01FF1FF3
:105270006006FF1F6766666600A006402D492E4A3D
:10528000097811604FF47A7010FB01F11920107643
:10529000516064209060192041436FF07F4081424B
:1052A0000BD82648264A21F07F41491E4160F02153
:1052B0001170002282600721016070471E488168DA
:1052C000027E8918816070471E481B4A01689068F9
:1052D0005268B1FBF2F1401A70471A48DFF858C023
:1052E0000168DCF808204FF47A704243DCF80000D3
:1052F000B1FBF0F000230021101A63EB01017047AD
:1053000070B5114E0446706880470023001959415A
:10531000441E61F1000570688047A942FBD301D8A3
:10532000A042F8D370BD084AD3684FF47A7148435D
:10533000184700004A06FF1F1006FF1F10E000E09C
:1053400023ED00E018E000E09C01FF1F2DE9FC4D7B
:10535000016800F10805490805EBC102019200F15E
:105360000802406800F0010A02EBC108400808EB9F
:10537000C00B00200021019A95422FD02A68AE1858
:105380006A68324400920835009A9642F3D016F9C2
:10539000014B009A964205D12A68AE186A683244D9
:1053A0000092083516F8017B884210D1D84508BF15
:1053B000FCF7CCFCD8F80000D8F80410BAF1000FC4
:1053C00018BF48440144884208F10808EED0002C78
:1053D00000F8017B05D5641CE6D1D5E75846BDE849
:1053E000F68D641ED5D5CFE719E050F8042BD3070E
:1053F00044BFA9F101039A18091F0023042942F8A8
:10540000043BF9D25FEA817C134604D54FF0000CCF
:10541000A2F800C09B1CC90744BF0021197050F8B6
:10542000041B0029E1D1704780B500F007F8084956
:105430000A884FF6FE7002400A8001BD72B6054828
:105440004CF2205101804DF62811018062B6704760
:10545000002005400E20054072B605480549016050
:105460000A6882F308880448804762B60348004708
:1054700008ED00E00000000029550000655500001F
:1054800010B5074979441831064C7C44163404E0C1
:105490000A68081D114488470146A142F8D110BD91
:1054A0002C000000540000004EF68851CEF200019E
:1054B000086840F470000860BFF34F8FBFF36F8F30
:1054C0004FF00070E1EE100A704700001DFFFFFF73
:1054D000DC0100008804FF1F0000000071FEFFFFD8
:1054E0000200000002000000400200002001000055
:1054F0000000FF1F850400000120C046002801D0E5
:10550000FFF7BEFFAFF300800020AFF30080FEF78F
:1055100039FF00F000F800F001B8000007463846F7
:10552000FCF7D6FCFBE7000080B5FFF77DFF0348E2
:10553000016841F47001016001BD000088ED00E0E8
:10554000704738B504460D46284600F005F8A842D5
:1055500018BF0024204632BD0149FFF7D5B900BF6E
:10556000B803FF1FAFF30080FFF79EFFFFF7C4FFF4
:105570000048004725570000004800472557000015
:105580000048004725570000004800472557000005
:1055900000480047255700000048004725570000F5
:1055A00000480047255700000048004725570000E5
:1055B00000480047255700000048004725570000D5
:1055C00000480047255700000048004725570000C5
:1055D00000480047255700000048004725570000B5
:1055E00000480047255700000048004725570000A5
:1055F0000048004725570000004800472557000095
:105600000048004725570000004800472557000084
:105610000048004725570000004800472557000074
:105620000048004725570000004800472557000064
:105630000048004725570000004800472557000054
:105640000048004725570000004800472557000044
:105650000048004725570000004800472557000034
:105660000048004725570000004800472557000024
:105670000048004725570000004800472557000014
:105680000048004725570000004800472557000004
:1056900000480047255700000048004725570000F4
:1056A00000480047255700000048004725570000E4
:1056B00000480047255700000048004725570000D4
:1056C00000480047255700000048004725570000C4
:1056D00000480047255700000048004725570000B4
:1056E00000480047255700000048004725570000A4
:1056F0000048004725570000004800472557000094
:105700000048004725570000004800472557000083
:105710000048004725570000004800472557000073
:1057200000002E00FFF7FEBF810081008100FD0018
:1057300015195100000551000039510000D15000E9
:1057400000BB5100000952FA00217D520000DB52DB
:105750000000C95200000153000027530000BC02A2
:105760000000451F00002D25000015238100F500D5
:105770000DBC020000E120000073250000212481FF
:1057800000F500034B00ABFFE80015292E0000DDFB
:105790002E0000892A00001B2F00005D2E00009DB6
:1057A0002E8100D9001302040101B405FF1F040675
:1057B000FF1FB405FF1FB405FF1FFC0003B405FF66
:1057C0001FFC0007FC03FF1FE803FF1FE0001B2076
:1057D00057000020570000205700002057000020ED
:1057E0005700002057000020570000F8FF0B2257F9
:1057F00000002057000020570000FAFFFD0046F08F
:105800000F4040F00F4080F00F40C0F00F4000F11B
:105810000F400090044000A0044000B0044000C0CD
:10582000044000D0044000A0064000B0064000C084
:10583000064000D0064000A00E404084000008064C
:085840000000752F0000FB01C0
:04000005000055653D
:00000001FF
