:10000000F022FF1F113C0000F53C0000F31100003E
:100010000B120000871200000F1500000000000006
:10002000000000000000000000000000B316000007
:100030005B17000000000000FB170000BD3A000045
:10004000253D00002D3D0000353D00003D3D0000F8
:10005000453D00004D3D0000553D00005D3D000068
:10006000653D00006D3D0000753D00007D3D0000D8
:10007000853D00008D3D0000953D00009D3D000048
:10008000A53D0000D93E0000D93E0000D93E000049
:10009000D93E0000D93E0000D93E0000D93E000004
:1000A000AD3D0000B53D0000BD3D0000C53D000078
:1000B000CD3D0000D53D0000D93E0000DD3D0000F3
:1000C000E53D0000ED3D0000F53D0000FD3D000078
:1000D000053E00000D3E0000153E0000D93E000028
:1000E000D93E0000D93E0000D93E0000D93E0000B4
:1000F000D93E0000D93E0000D93E0000D93E0000A4
:10010000E93B0000ED3B0000F93B0000FD3B000037
:10011000D93E0000D93E0000D93E0000D93E000083
:10012000D93E0000D93E0000D93E0000D93E000073
:10013000D93E0000D93E0000D93E0000D93E000063
:10014000D93E00001D3E0000253E00002D3E00006F
:10015000D93E0000D93E0000D93E0000D93E000043
:10016000D93E0000D93E0000353E00003D3E000073
:10017000453E00004D3E0000553E00005D3E000043
:10018000653E00006D3E0000753E00007D3E0000B3
:10019000853E00008D3E0000953E0000D93E0000E7
:1001A000D93E0000D93E0000D93E00009D3E00002F
:1001B000D93E0000D93E0000A53E0000AD3E000043
:1001C000B53E0000BD3E0000C53E0000CD3E000033
:1001D000D93E0000D93E0000D93E0000D93E0000C3
:1001E000D93E0000D93E0000D93E0000D93E0000B3
:1001F000D93E0000D93E0000D93E0000D93E0000A3
:10020000D93E0000D93E0000D93E0000D93E000092
:1003F000D93E0000D93E0000D93E0000FFFFFFFFBC
:10040000FFFFFFFFFFFFFFFFFFFFFFFFFEFFFFFFFD
:100410002DE9F0439FB00FF28419269CDFF8CC8AB7
:1004200002918DF83B4000210B914FF0FF370446BD
:1004300016461D460AE016F8011B0298A047002840
:10044000029000F099800B98401C0B90307850B1CE
:100450002528F0D1002000210590069107900891F1
:1004600009900A9103E00B989CE041F0010116F815
:10047000010F2028F9D023280CD02B2804D02D28B8
:1004800005D0302809D079E041F00201EFE741F0D2
:100490000401ECE741F00801E9E741F01001E6E76B
:1004A00000200D9009E00D98404505DA00EB80032F
:1004B00002EB4302303A0D92761C3278A2F1300002
:1004C0000A28F0D332782E2A18BF0C9723D116F8B9
:1004D000010F2A2807D128682860761C50F8042BC1
:1004E00028600C9217E02D280CBF16F8010B002095
:1004F00000220C920AE040B90C9A424505DA02EB60
:10050000820203EB4203303B0C93761C3378A3F159
:1005100030020A2AEFD3ADF838104846317800F09F
:1005200069FE08B116F8010B8DF83A009DF83A0003
:10053000682804BF3178682903D162208DF83A0019
:1005400007E06C2804BF30786C2803D171218DF846
:100550003A10761C10A804902A4616F8013B69460A
:10056000204600F05FF838B910AA6946204600F02E
:100570008BF900287FF56AAF384613E02A288FD11F
:100580002A682A6052F8040B2A6000280D9003D5CF
:1005900040420D9041F00401761C93E7686A6C7448
:1005A0007A4C00001FB0BDE8F083622820D0682894
:1005B00011D06A2803D06C2827D0712825D108686B
:1005C000C01D20F007000860D0E900230830086053
:1005D000194610467047002A0A680A60106803D05E
:1005E000121D0A6000B217E0121D0A6080B217E007
:1005F000002A0A680A60106803D0121D0A6040B21F
:100600000AE0121D0A60C0B20AE0002A0A680A6005
:10061000106803D0121D0A60C1177047121D0A60CE
:100620000021704770B51C460D46B4F125002E69B7
:10063000114600F017811C386AD0001F022867D9C4
:10064000133843D0093863D0801E16D0401E1ED008
:10065000401E02285CD9001F19D0401F00F0838083
:10066000401E33D0401E00F0CD80C01E00F0D88068
:10067000801E2BD0C01E29D0FAE06869421C6A6136
:100680000A680A6052F8043B0A603354FAE095F8AD
:100690003A000122FFF789FFC5E9000100239942D2
:1006A00004DA6869411C69612D210DE0288F8107FA
:1006B00004D56869411C69612B2105E0C00722D57A
:1006C0006869411C6961202131541CE095F83A00A9
:1006D0000022FFF76AFFC5E9000195F8380001071D
:1006E00011D5D5E900230020834208BF82420AD0F9
:1006F00044F02000782806D1686930213154401C2C
:10070000411C69613454214668693044E86083E0E3
:100710000868C01D20F007000860D0E900230830F9
:100720000860C5E90023D5E90001C80F04D0686955
:10073000411C69612D210DE0288F810704D568696E
:10074000411C69612B2105E0C00704D56869411C83
:1007500069612021315468693044E86021462846A7
:1007600000F0C4F98EE005F13A02507820B14FF064
:10077000FF340FF620205EE01078622808D0682849
:1007800024D06A2812D06C282ED071280ED02BE0ED
:100790000A680A6052F8040B0A6020B94FF0FF346F
:1007A0000FF6082047E0E96A01706BE00A680A600A
:1007B00052F8040B0A6020B94FF0FF340FF6EC102A
:1007C00039E0EA6AD317C0E900235BE00A680A60EF
:1007D00052F8040B0A6020B94FF0FF340FF6CC102A
:1007E00029E0E96A01804DE00A680A6052F8040BCA
:1007F0000A6020B94FF0FF340FF6B0101BE0E96A31
:1008000001603FE00A680A6052F8040B0A600021A8
:10081000C5E90001EE607821284600F0BBF831E020
:100820000868086050F8044B0860EC603CB94FF071
:10083000FF340FF6901000F0E9FC201A70BD2E6B0B
:10084000002E04D5204600F003FD044608E03246A1
:100850000021204600F018FD002814BF041B344678
:10086000AC610FE06869411C69612521315409E0E0
:100870006969481C686125227254210002D0411C1C
:1008800069613454002070BD2DE9FC410F460646D5
:10089000796B7869BC6A091A386A091AB869091A41
:1008A000786A091AF869091A97F838000C1B410789
:1008B00090460FD42021002C8DF800100ADD25462B
:1008C00001236A463946304600F04DFC00285DD1D0
:1008D0006D1EF5D17B6942463946304600F043FC37
:1008E000002853D130208DF800003D6A002D09DD2D
:1008F00001236A463946304600F035FC002845D1D0
:100900006D1EF5D1BB69FA683946304600F02BFC04
:1009100000283BD130208DF800007D6A002D08DDD5
:1009200001236A463946304600F01DFC70BB6D1E3F
:10093000F6D1F868B969FB6942183946304600F0CB
:1009400012FC18BB30208DF80000BD6A002D08DDB8
:1009500001236A463946304600F005FCB0B96D1EE9
:10096000F6D197F8380041070DD52021002C8DF8DD
:10097000001008DD01236A463946304600F0F3FBDB
:1009800020B9641EF6D10020BDE8F6814FF0FF309B
:10099000BDE8F6812DE9FC4704468A462569BAF18F
:1009A0006F0F08BF082605D04AF02001782914BF30
:1009B0000A2610263C27D4E90023BAF1640F18BF99
:1009C000BAF1690F9046994606D100218B4203DAAD
:1009D000D8F1000869EB49090020814508BF80452E
:1009E0001FD1206BE8B9082E4CD194F838000107CC
:1009F00048D530203B2785F83B0043E000280ED542
:100A000094F8380000F01400102808D1626B606977
:100A1000121A206A121A511A0029C8BF2162BDE8B1
:100A2000F3878DF800A0404649463246F31700F0A0
:100A300057FC3032D2B27F1E3A2A019704DB9DF870
:100A40000000A0F151018A18EA5540464946324655
:100A5000F31700F045FC804689460020814508BF19
:100A6000804503D0E068E9198842DCD3082E09D11B
:100A700094F83800010705D5E95D302902D07F1EC2
:100A80003020E855C7F13C01A161E819E060206B16
:100A90008142B3DA411A21624FF6EF70218F014093
:100AA0002187BDE8F3872DE9D04306460F4614465B
:100AB0004FF00008DFF8389412E0E00707D542460F
:100AC0004B463046394600F023FD06460F46404669
:100AD000494642464B4600F01BFD6410804689465D
:100AE000002CEAD130463946BDE8D0832DE9F34FDA
:100AF000054641F020048DB0D5E90089612C02AE95
:100B000009D0286B002848BF062003D408BF672CF3
:100B100001D101202863D5E9002358004015401C6D
:100B20000ED119030CD00320A8619DF8380061385C
:100B30001A2802D20FF2A86111E00FF2A8610EE0AC
:100B400058004015401C0FD119030DD10320A86196
:100B50009DF8380061381A2814D30FF29061E868C4
:100B6000032200F0A7FDD3E1194621F00043B3F5BD
:100B7000801F10460DD20027BB4208BFBA42019722
:100B800003D111E00FF26061E9E701AA00F0E6FD90
:100B90000AE0DFF8607307EB1352DFF85C33019271
:100BA0001940DFF858331943C5E90001612C0ED113
:100BB000E86830210170811CE9609DF838106129D6
:100BC0000CBF7821582141706869801C6861D5E9A3
:100BD00000AB2BF0004300202AF00002834204BF48
:100BE0008242002300F05A81612C40F0A980286BDA
:100BF00000284CBF2120401C00904046009F7F1CD5
:100C000049460022002300F0E1FDD94601988DF805
:100C1000082038BF89F00049001F0190002FD046FE
:100C20000DF1090040F3498140F2FF71DFF8D0B2C5
:100C30000C910646404649460022002300F0DEFDA6
:100C400080F03A814800400D00F11C0210D0002ACB
:100C50000EDD0C98824205DB09F0004040EA0B01F2
:100C6000002013E0A448084040EA025140460DE04D
:100C700029F00043002028F00002834208BF82428E
:100C80000FBF40461C22404600F0D0FD80468946FA
:100C900000F06AFEFF1F002F044609DD00F082FE0F
:100CA00002460B464046494600F08EFE8046894685
:100CB000F01D072104E004F00F0200F8012D2411BB
:100CC000002C01DD491EF6D5491E5CBF002200F84C
:100CD000012DF9D5ECE00020194602AA0A4400E0F3
:100CE0005B1E12F80149491E8442F9D00F2804D135
:100CF0000DF10900425C521C4254002904D50198B0
:100D0000001D02AE5B1C0190591E12D49DF83800E4
:100D10007218A0F13A04177830375FFA87F8B8F103
:100D2000390FC8BFA044491E02F80189F3D58DF8D8
:100D30003800286B002840F1B080591E2963ACE0D0
:100D4000404649460022002300F040FD019938BF8B
:100D500089F0004947F2975041436A4A91FBF2F209
:100D60000192D2F1070204DD40464946FFF79BFE9F
:100D70000AE0524200206449FFF795FE02460B4606
:100D80004046494600F092FE8046662C286BDFF80C
:100D90007CB106BF019F0A3706273F18142FC8BF32
:100DA000142730208DF8080089460DF1090000E075
:100DB0003046002F34DD06464046494600F09AFF93
:100DC00001460A4606F1080304200A26B2FBF6F69D
:100DD00006EB860EA2EB4E02303203F8012C0A22FB
:100DE000B6FBF2F202EB820EA6EB4E063036401E48
:100DF00003F8026DE9D1083F002F03F10806D7DDA3
:100E0000084600F08BFF02460B464046494600F07C
:100E1000DBFD00225B4600F07BFB80468946CBE78A
:100E20000DF10901401A0DF1090604E00199491E6E
:100E3000401E0191761C31783029F7D0662C02D102
:100E40000199491C03E0652C0CBF012100212B6B8B
:100E5000CB189842B8BF431E002B1ED4834204DA3D
:100E6000F05C3528A8BF392000DA30201946721E00
:100E700002EB010800E05B1E18F80199491E81454C
:100E8000F9D0392802D1705C401C7054002904D577
:100E90000198401C16465B1C0190019800B200901E
:100EA0001BB29DF838103246284600F034F82FE087
:100EB000C61D002F3FF7BEAE30460DF10901401AA6
:100EC000009903468842C8BF0B46002B0DF1090666
:100ED0003FF52FAF8342BFF6FEAE0DF10900C05CB7
:100EE00007287FF7F8AE0F20F6E60000CBCCCC0C3D
:100EF0000000244002FCFFFFFFFF0F800000E03FE6
:100F00000000F07FA08601000000F03F84D79741E9
:100F10000FB0BDE8F08F2DE9F84E83B006468B4642
:100F200092461C4600F008FF002C406A376B90F890
:100F3000009002DC01240FF2B82ABDF930504BF0CA
:100F40002000662808BF6D1C12D0672877D115F1E4
:100F5000040F7ADBBD4278DA96F838006D1C010781
:100F600002D4BC42B8BF27462DB27F1B48BF002722
:100F70002DB2F068B169002D22DC4A1C30234354A5
:100F8000002F03DC96F83800010703D5F06800F85D
:100F90000290521CEF42B8BF7D422DB2EF19684259
:100FA000A742B8BF3C46B261706224B2F461F068F7
:100FB000B36922465146184400F07CFB3F1B18E001
:100FC0002A469442084416DA2246514600F072FB43
:100FD000B0692018B0612C1B002F746203DC96F8F6
:100FE00038100A0705D5F16801F80090F069401C37
:100FF000F061B762A0E0514600F05CFBB0692818D0
:10100000641B002F03DC96F838100A0703D5F1683B
:1010100001F80090401CB06124B2A742B8BF3C4622
:10102000F068B36924B222460AEB0501184400F0C7
:1010300041FBB0692018B0613C1B74627CE0BBF1DD
:10104000610F14D14FF0700B16E0BC4204DA96F831
:1010500038100A0758BF27467F1E48BF0027BBF13C
:10106000670F14BF4FF0450B4FF0650B04E0BBF169
:10107000410F08BF4FF0500BB169F368481CB061D5
:10108000002F1AF8012B5A5403DC96F838100A077F
:1010900017D5F168431CB36101F80090002F10DDF3
:1010A000641E24B2A742B8BF3C46F06824B2224670
:1010B0005146184400F0FEFAB0692018B0613F1B99
:1010C0007762F068B1690844002D80F800B003D45D
:1010D0002B214170811C03E02D2141706D42811C48
:1010E00000206A460AE02B460A2493FBF4F505EB40
:1010F0008504A3EB440302F8013B401C2DB2002DF4
:10110000F1DC012806DC4BF02002652A04BF302206
:1011100001F8012B48B9302001F8010B07E0401E0F
:101120001DF80020303201F8012B0028F7DCF068B0
:10113000B2691044091AF16196F8380000F0140001
:1011400010280DD17169B0694118706A4118F069B1
:101150004118B06A4118706B8142BCBF411A3162BC
:1011600004B0BDE8F08EF8B505460E4617461C469D
:10117000002074B117F8011BB068A847B06030B107
:10118000F06A401CF0620020641EF3D1F2BD4FF003
:10119000FF30F2BD7072696E74665F733A20256E1F
:1011A00020646973616C6C6F776564007072696E3E
:1011B00074663A2062616420256E20617267756DE5
:1011C000656E74007072696E74665F733A20626156
:1011D0006420257320617267756D656E7400000070
:1011E0006E616E004E414E00696E6600494E4600CB
:1011F0003000FEE70278C9B28A421AB11CBF10F86B
:10120000012FF9E718BF00207047FEE780B508B945
:101210000FF21C0005490B681BB1222200219847E0
:1012200001E000F08FFD222002BD0000E802FF1F58
:10123000636F6E73747261696E742068616E646C42
:1012400065723A20626164206D6573736167650041
:1012500000F10103810704D010F8011B89B1810757
:10126000FAD10268B2F10131914311F0803F04BF1D
:1012700050F8042FF6E710F8011B11B110F8011B0C
:10128000FBE7C01A7047FEE7C9B2830706D0521EBB
:1012900022D310F8013B9942F7D11FE0083A13D34B
:1012A00002F1040241EA012141EA014150F8043B04
:1012B000121F21BF4B40A3F1013C2CEA030C1CF090
:1012C000803FF3D0C9B2001F083210F8013B521E14
:1012D00028BF91EA030FF8D818BF0120401E7047BD
:1012E000B3BBD9B1B2F5803F7DD2022A1ED98C465C
:1012F000B1FBF2F102FB11C31B0443EA1043B3FB41
:10130000F2FC02FB1C3380B240EA0343B3FBF2F071
:1013100002FB103240EA0C4000237047022A05D934
:101320008446B0FBF2F002FB10C270474AB105D10F
:1013300000F0010249085FEA3000704700220023F4
:10134000704700F003BD0B00020000210020704731
:10135000904271EB030CF6D3B3F5803F2FD2F0B57A
:10136000B3FA83F7B1FA81F4A7F10F0E3D1B534096
:10137000CEF1200602FA0EF2F3415340B5F10F0709
:1013800046D80F3C2C444140C4F12006A040F14116
:101390004140B1FBF3F603FB1611A2FB0645001B0F
:1013A000A94102D2761E8018594180EA010221FA31
:1013B0000EF362FA0EF200215A403046F0BD30B40E
:1013C000B1FBF3FC03FB1C11A2FB0C45001BA94164
:1013D00003D2ACF1010C8018594130BC02460B46D7
:1013E000604600217047B2F1807F65D3F0B5B2FA54
:1013F00082F7B1FA81F4C7F10F063D1B22FA06F31A
:1014000007F1110EF24120355A40B5F10F07B8D956
:101410004140C4F12006A040F1414140B1FBF3FC42
:1014200003FB1C11A2FB0C45001BA94103D2BCF11C
:10143000010C801859410F2F12D30F3FC90341EA05
:101440005041B1FBF3F603FB1611A2FB0645D4EBAA
:10145000C030A94102D2761E8018594146EACC3CE0
:1014600007B34140C7F12006B840F1414140B1FB0C
:10147000F3F603FB1611A2FB0645001BA94102D29D
:10148000761E8018594180EA010221FA0EF3C7F155
:10149000200462FA0EF20CFA07F05A402CFA04F11A
:1014A0003043F0BD80EA010221FA0EF3002162FA16
:1014B0000EF260465A40F0BD8C46B1FBF2F102FBE1
:1014C00011C31B0243EA1063B3FBF2FC02FB1C33A3
:1014D0001B024CEA002043EA1063B3FBF2FC02FB60
:1014E0001C331B024CEA002043EA1063B3FBF2FCFE
:1014F00002FB1C331B024CEA002043EA1063B3FBDF
:10150000F2FC02FB1C324CEA002000237047FEE78D
:10151000B0B581EA030C0CF0004C40F2FF7515EAFF
:1015200011541DBF15EA1357AC42AF4239E0E4191C
:1015300023EA455343F48013C90241F0004141EAD4
:10154000505EC7021100A7FB020200284FF0000006
:10155000EEFB01204FF00001E3FB072118BF42F032
:101560000102401800214941E3FB0E01A4F580640B
:101570000F0302D252004041494154F101046CDD95
:10158000470872F1004250F1000051EB0451A1F5FF
:1015900080115CBF41EA0C01B0BD4CEA055100204E
:1015A000B0BD05EA1357AC4214BFAF4241E050EA68
:1015B000410E1CBF52EA430E02E061460020B0BD5E
:1015C00024423C441BD15FEA070EF6D0090302BF58
:1015D00001460020AEF1140EB1FA81F7AEEB07041C
:1015E00001FA07FE0C37C7F1200100FA07F7C840DF
:1015F0004EEA000E23EA455343F48013A2E733F08A
:101600000043B3FA83F704BFB2FA82FE77440B3F7C
:10161000E41BB7F1200E2FBF02FA0EF3BB40C7F157
:10162000200E22FA0EFE38BF43EA0E03BA40641CB5
:1016300082E750EA410E14BF52EA430E6FF00001F8
:101640004FF4001717EB430F8ABF194617EB410FF2
:10165000B5E74CEA05510020B0BDD4F10104B4F166
:1016600020070FDAC4F12007520828BF42F0010218
:1016700010FA07F501FA07F7E1BF2A43E0403843C3
:10168000E1400FE0352C98DCC7F1200452EA40021B
:1016900020FA07F218BF42F0010231FA07F0A14028
:1016A0000A43002172F1004250F1000051EB0C019D
:1016B000B0BDFEE762B38B0708D0521E11F8013BA4
:1016C00000F8013B00F024808B07F6D1830740F03F
:1016D000208000BF103A07D330B4B1E83810103A78
:1016E000A0E83810F9D230BC530724BFB1E8081085
:1016F000A0E8081044BF51F8043B40F8043BD2076F
:1017000024BF31F8022B20F8022B44BF0B78037062
:101710007047121F17D35B0009D151F8043B20F822
:10172000023B1B0C121F20F8023BF6D20BE051F8D3
:10173000043B00F8013B1B0A20F8023B1B0C121F64
:1017400000F8013BF3D238BF121D521E24BF11F81E
:10175000013B00F8013BF8D87047FEE710B514468E
:1017600000F002F8226010BDC1F30A5343B14A00F1
:1017700012F5001F28D2A3F2FE32A1EB02517047EE
:1017800050EA410C20D001F0004C31EA0C01B1FAD2
:1017900081F204BFB0FA80F3D2180B3AB2F1200301
:1017A0002CBF00FA03F1914041EA0C013EBFC2F1A7
:1017B000200C20FA0CF319439040524240F2FD33C2
:1017C000D21A01EB03517047002270474FF4001CFE
:1017D0001CEB410F94BF1CEB430F09E041EA030CE3
:1017E00050EA4C0C52EA0C0C03D2994208BF9042CA
:1017F000704714BF8B4282427047FEE74FF4001CD3
:101800001CEB410F94BF1CEB430F09E041EA030CB2
:1018100050EA4C0C52EA0C0C03D28B4208BF8242B5
:10182000704714BF9942904270470000124254D44E
:1018300040F2FF7C1CEA11530FD0634531D09B1856
:1018400063453CBF01EB0251704701F0004141EAA2
:101850000C510020AFF30080704750EA410320D0C4
:1018600001F0004C91EA0C011CD0B1FA81F30B3B62
:101870009A420DD9D21A994051EA0C01C3F1200CB9
:1018800020FA0CFC61449840531C40F2FF7CD7E7DF
:10189000914041EA0C01C2F1200C20FA0CF31943EB
:1018A00090407047B0FA80F31533202BE0D3202A04
:1018B000EED3203A203B9A4209D9D21A00FA03F11A
:1018C00041EA0C010020531C40F2FF7CB8E700FA0B
:1018D00002F141EA0C0100207047524240F2FF7CC5
:1018E0001CEA11530DD06345DBD0B2EB030C3CBFB7
:1018F000A1EB025170470CF1010221EA035141F4BE
:10190000801150EA410CCCD001F0004C352A27DC84
:1019100030B481EA0C01B2F1200309DAC2F12003EC
:10192000044601FA03F5D0402843D1409C400CE026
:10193000C3F12002450020FA03F418BF44F001046B
:1019400021FA03F091400C43002174F1004550F15D
:10195000000051EB0C01244230BC7FF47BAF704798
:101960006146002076E70000C1F30A5340F2FE32E0
:101970009B1A14DDD3F120034FEAE17208DDC9029E
:1019800041EA505141F00040D84080185040704723
:1019900003F2E13010B1D24382F0004070470020E2
:1019A00070470000C11768B14840401AB0FA80F291
:1019B0009040D21CC907C2F5846241EA025202EB90
:1019C000D02140057047000070B44FF0004591EA07
:1019D000030F40F1C5816B40841A71EB030603D2FB
:1019E000001BB141121973414FF4001C1CEB410F55
:1019F00034BF7CEB430442E00C0DA4EB1356352EB0
:101A00004FDC45EAC323DB0A45EAC121C912B6F11E
:101A100020050DDD63FA05F6EB4086EA0305124268
:101A200018BF45F00105C01851F100010CD213E0B8
:101A300062FA06F5F2405540F3415A40B340F34094
:101A40005A408018594107D349085FEA30005FEADD
:101A5000350528BF45F0010501F58011420875F1F3
:101A6000004250F1000041EB04514E0016F5001FFA
:101A700070BC38BF70470020090D090570471CEB8A
:101A8000410F10D252EA43060BD0BCEB410F05D8F0
:101A90000C0DAB43661E342EB6DD02E0AB4380185E
:101AA000594170BC704770BC70470000F0B540F2FF
:101AB000FF7581EA030C0CF0004C15EA11541DBFB0
:101AC00015EA1357AC42AF42E5E0BC41C1F3130144
:101AD000C3F31303801A994143F4801304D2641EA4
:101AE0004000494180185941C90241EA5051B1FBB7
:101AF000F3F603FB1611A2FB0675D7EBC020A94134
:101B000002D2761E80185941C90241EA5051B1FBF8
:101B1000F3FE03FB1E11A2FB0E75D7EBC020A941FB
:101B200003D2AEF1010E80185941890241EA905169
:101B3000760546EA8E2EB1FBF3F603FB1611A2FBE7
:101B40000675D7EB8020A94102D2761E8018594134
:101B5000C90241EA50514EEA060EB1FBF3F603FB0F
:101B60001611A2FB0675D7EBC020A94102D2761E42
:101B700080185941C90241EA5051B1FBF3F703FB08
:101B80001711A2FB0735D3EBC020A94167F100076D
:101B90000CBF004247F0010766F3D5274FEA1E311C
:101BA000B80814F5806412DDBD0775F1004250EBF2
:101BB0000E5051EB045111F5801F5CBF41EA0C013E
:101BC000F0BD4CF07F6141F0E0410020F0BDBD0769
:101BD0006D0840EA0E5041F48011D4F10104B4F1D3
:101BE00020060ADAC4F120060200E04001FA06F3FA
:101BF000E1401843B24015430EE0342C13DCC6F12B
:101C0000200445EA40056D0820FA06F2154321FA42
:101C100006F0A1400D43002175F1004250F1000093
:101C200051EB0C01F0BD00205FEA0C01F0BDCFB913
:101C300092185B41B3FA83F704BFB2FA82F6BF1978
:101C40000B3FB7F120062FBF02FA06F3BB40C7F1E6
:101C5000200622FA06F638BF3343BA401CB1E41915
:101C6000641E33E77F4231F00041B1FA81F404BFD2
:101C7000B0FA80F6A4190B3CB4F120062FBF00FA8D
:101C800006F1A140C4F1200620FA06F638BF314320
:101C9000A0403C1B1AE7AC421ABF05EA1357AF42FB
:101CA00012E050EA41061CBF52EA4306BFE750EA81
:101CB0004107304661461CBF41EA0551F0BD52EA7A
:101CC000430C08BFC143F0BD00204FF4001616EBD3
:101CD000410F98BF16EB430F08BF16EB410F24BF0F
:101CE000C14305E016EB430F0CBF61464CEA0551BA
:101CF000F0BD0000400D491840EA81200CD2490D8A
:101D0000A1F58061491C40F0004005DBD1F11F01C5
:101D100054BFC840C017704700207047014648B103
:101D2000B0FA80F18840C91CC1F58461090501EB56
:101D3000D0214005704700000148704700000000B6
:101D4000DC01FF1F012000F0BFB800007047000059
:101D500070B44FF0004591EA030F7FF53DAE6B4044
:101D6000841A71EB030604D26E40001BB1411219B4
:101D700073414FF4001C1CEB410F34BF7CEB430656
:101D800082E00C0DA4EB1356362E7BDC012E45EAC7
:101D9000C32341DC43EA525312BFD20292025B08D2
:101DA000240545EAC12141EA5051D2EBC0209941B6
:101DB00025D407D1B0FA80F610FA06F162D00020DF
:101DC000203608E0B1FA81F6B140C6F1200220FACF
:101DD00002F21143B0404FEAF474B4EB465434F0CD
:101DE00001064FEA74040AD8D6F50016760D04F001
:101DF0000044F04061FA06F25040F1404840C00A09
:101E000040EA415021F0004128BF5FEA500550F1FF
:101E1000000044EBD12135E0DB0A45EAC121C90AC3
:101E2000B6F120050EDD42EA0242120CC5F1200691
:101E300003FA06F6EB4042EA06056D42984161F16D
:101E400000010DE062FA06F5F240554063FA06FC27
:101E500082EA0C02F3405A406D42904161EB03016B
:101E600011F4801F05D1641E620502D06D0040414F
:101E7000494121F48011430875F1004350F10000FD
:101E800041EB045170BC70471CEB410F15D223F09D
:101E9000004352EA43060BD04FEA4C0CBCEB410F17
:101EA00004D80C0D661E342EB7DDEBE7801A99417D
:101EB00050EA410608BF0021E4E708BF1CEB430FCE
:101EC00028BF6FF00001DDE780B5AFF30080024A64
:101ED00011001820ABBEFBE7260002000000000046
:101EE00000000000002F00000000070007000014A1
:101EF0007F147F1400242A7F2A12006264081323AF
:101F000000364955225000000503000000001C2245
:101F10004100000041221C000014083E0814000883
:101F2000083E0808000000A0600000080808080833
:101F3000000060600000002010080402003E5149CB
:101F4000453E0000427F4000004261514946002169
:101F500041454B31001814127F1000274545453983
:101F6000003C4A49493000017109050300364949DE
:101F7000493600064949291E000036360000000097
:101F800056360000000814224100001414141414E2
:101F9000000041221408000201510906003249598B
:101FA000513E007C1211127C007F49494936003EA7
:101FB00041414122007F4141221C007F4949494162
:101FC000007F09090901003E4149497A007F08085C
:101FD000087F0000417F4100002040413F01007F19
:101FE00008142241007F40404040007F020C027FE5
:101FF000007F0408107F003E4141413E007F0909F7
:102000000906003E4151215E007F0919294600461C
:10201000494949310001017F0101003F4040403FF3
:10202000001F2040201F003F4038403F006314083D
:102030001463000708700807006151494543000018
:102040007F41410000552A552A55000041417F003B
:102050000004020102040040404040400000010230
:102060000400002054545478007F48444438003819
:102070004444442000384444487F003854545418A1
:1020800000087E0901020018A4A4A47C007F0804B3
:1020900004780000447D4000004080847D00007F83
:1020A000102844000000417F4000007C04180478A0
:1020B000007C0804047800384444443800FC24249C
:1020C00024180018242418FC007C08040408004884
:1020D0005454542000043F444020003C4040207CA5
:1020E000001C2040201C003C4030403C0044281094
:1020F0002844001CA0A0A07C004464544C44141448
:10210000141414140000000000000000000000007F
:1021100000000000000000F8000000000000003394
:102120003000000000100C06100C0600000000003B
:102130000000000040C07840C0784000043F040424
:102140003F040400007088FC08300000001820FFE5
:10215000211E0000F008F000E018000000211C0320
:102160001E211E0000F00888700000001E2123249C
:102170001927211010160E000000000000000000BA
:1021800000000000000000E018040200000000074A
:102190001820400000020418E00000000040201851
:1021A00007000000404080F0804040000202010F24
:1021B00001020200000000F0000000000101011F08
:1021C00001010100000000000000000080B070006C
:1021D00000000000000000000000000000010101FC
:1021E000010101010000000000000000003030008B
:1021F0000000000000000000806018040060180665
:102200000100000000E010080810E000000F10209E
:1022100020100F00001010F8000000000020203FE8
:102220002020000000700808088870000030282472
:102230002221300000300888884830000018202013
:1022400020110E000000C02010F800000007042438
:10225000243F240000F8088888080800001921207D
:1022600020110E0000E0108888180000000F1120D7
:1022700020110E0000380808C83808000000003F90
:10228000000000000070880808887000001C2221EF
:1022900021221C0000E010080810E000000031229C
:1022A00022110F00000000C0C0000000000000303C
:1022B000300000000000008000000000000080608E
:1022C000000000000000804020100800000102040F
:1022D00008102000404040404040400004040404F6
:1022E00004040400000810204080000000201008B2
:1022F00004020100007048080808F00000000030E7
:1023000036010000C030C828E810E0000718272474
:1023100023140B000000C038E0000000203C230222
:102320000227382008F8888888700000203F202085
:1023300020110E00C03008080808380007182020B7
:102340002010080008F808080810E000203F2020AE
:1023500020100F0008F88888E8081000203F20208F
:102360002320180008F88888E8081000203F200083
:1023700003000000C03008080838000007182020BB
:10238000221E020008F808000008F808203F21017A
:1023900001213F20000808F8080800000020203F25
:1023A0002020000000000808F8080800C080808095
:1023B0007F00000008F888C028180800203F20018E
:1023C0002638200008F8080000000000203F2020E8
:1023D0002020300008F8F800F8F80800203F003FFF
:1023E000003F200008F830C00008F808203F200017
:1023F00007183F00E01008080810E0000F10202028
:1024000020100F0008F808080808F000203F2101FC
:1024100001010000E01008080810E0000F18242453
:1024200038504F0008F8888888887000203F2000C6
:10243000030C30200070880808083800003820217C
:1024400021221C00180808F8080818000000203F86
:102450002000000008F808000008F808001F2020ED
:1024600020201F000878880000C8380800000738BE
:102470000E010000F80800F80008F800033C07000F
:10248000073C0300081868808068180820302C0377
:10249000032C30200838C800C83808000000203F4E
:1024A0002000000010080808C8380800203826213D
:1024B00020201800000000FE020202000000007F41
:1024C00040404000000C30C000000000000000014F
:1024D0000638C00000020202FE000000004040403A
:1024E0007F0000000000040202020400000000005F
:1024F00000000000000000000000000080808080DC
:1025000080808080000202040000000000000000C3
:10251000000000000000808080800000001924225C
:1025200022223F2008F8008080000000003F112098
:1025300020110E000000008080800000000E11209D
:1025400020201100000000808088F800000E11207B
:1025500020103F200000808080800000001F222289
:1025600022221300008080F0888888180020203FF5
:10257000202000000000808080808000006B949408
:102580009493600008F8008080800000203F2100C4
:1025900000203F2000809898000000000020203F8D
:1025A00020200000000000809898000000C080807B
:1025B000807F000008F8000080808000203F240217
:1025C0002D302000000808F8000000000020203F07
:1025D000202000008080808080808000203F2000BC
:1025E0003F20003F8080008080800000203F21004D
:1025F00000203F200000808080800000001F2020FD
:1026000020201F00808000808000000080FFA1202B
:1026100020110E000000008080808000000E11203C
:1026200020A0FF80808080008080800020203F21CB
:10263000200001000000808080808000003324247E
:1026400024241900008080E0808000000000001F2A
:10265000202000008080000000808000001F2020DB
:1026600020103F20808080000080808000010E309C
:102670000806010080800080008080800F300C03FD
:102680000C300F0000808000808080000020312E00
:102690000E312000808080000080808080818E70DC
:1026A0001806010000808080808080000021302C8E
:1026B0002221300000000000807C020200000000A7
:1026C000003F404000000000FF000000000000004C
:1026D000FF0000000002027C800000000040403F3C
:1026E00000000000000601010202040400000000D6
:1026F0000000000038B5DFF89443DFF88C53216800
:1027000041F4002121600A20E9688847206840F4EC
:10271000803020600A20E9688847206820F48030F3
:1027200013E038B5D94CD84D216821F480312160AF
:102730000A20E9688847206840F4002020600A20C9
:10274000E9688847206840F4803020600A20E96802
:10275000BDE83440084770B5CC4CCB4E216821F41D
:10276000002121600546F16802208847206865F352
:10277000104020600220F1688847206840F4002063
:1027800020600220F1688847206820F40020206043
:1027900070BDF8B507460824BB4DBC4E316821F426
:1027A000002131600520E9688847380630684CBF51
:1027B00040F4803020F4803030600520E96888479C
:1027C000306840F4002030600520E96888477F00C9
:1027D000641EE3D1306820F4002030600120E968F5
:1027E0008847306840F4803030600120E968BDE8F7
:1027F000F440084738B5A54CA34D216841F4803119
:1028000021600120E9688847206840F400202060AA
:102810000120E96888470021102000F073F9FB21AE
:102820002069C0F3004028B1491EF9D1FFF779FFB4
:10283000012032BD0121102000F064F9206820F44D
:1028400000202060002032BD2DE9F0418F4E8E4FD8
:10285000316821F4002131608046F96805208847FD
:10286000306840F4803030600520F96888470021E6
:10287000102000F047F90024306840F40020306058
:102880000520F96888473069F968C0F300400028DE
:1028900014BF45F0010505F0FE05052088473068A6
:1028A00020F4002030600520F9688847072CB8BF65
:1028B0006D00641C072CDFDD0121102000F022F9DF
:1028C0004046FFF748FFE8B2BDE8F08138B504465E
:1028D0000D46FFF70FFF5420FFF75BFFFFF78AFF5E
:1028E0002046FFF756FFFFF785FF280AFFF751FF45
:1028F000FFF780FFE8B2FFF74CFFFFF77BFFFFF722
:1029000010FF61490A69BDE832400120104738B51F
:102910000446FFF7EFFE5420FFF73BFFFFF76AFF87
:102920002046FFF736FFFFF765FFFFF7E3FE552070
:10293000FFF72FFFFFF75EFF0020FFF785FF04463C
:102940000020FFF781FF0546FFF7EBFE05EB0420B3
:1029500080B232BD10B500F00BF94B490A694FF453
:10296000FA70904748F2293421460820FFF7AEFF5D
:1029700021460920FFF7AAFF21460A20FFF7A6FFFC
:1029800021460B20FFF7A2FF0A211020FFF79EFF30
:102990000A211120FFF79AFF0A211220FFF796FF64
:1029A0000A211320FFF792FF41F20104214614206F
:1029B000FFF78CFF21461520FFF788FF21461620E0
:1029C000FFF784FF21461720FFF780FF0021192021
:1029D000FFF77CFF4CF20D211B20FFF777FF4FF430
:1029E00000411E20FFF772FF4FF400411F20FFF748
:1029F0006DFF4FF400412020FFF768FF4FF40041C6
:102A00002120FFF763FF41F201411A20FFF75EFF2B
:102A10007F20FFF77CFF04467E20FFF778FF43F21C
:102A200055018C4204BF45F24941884204D0BDE8BB
:102A30001040012000F0D0B810BD000070B500219A
:102A400003281FD8DFE800F00215181B01240846F0
:102A5000FFF75DFF0E4E104D06EA00462046FFF7D9
:102A600056FF301828600B4A2868A0FB0221480A4C
:102A700070BD02210324EAE704210524E7E70621CB
:102A80000724E4E7002070BD3C02FF1F00F00F4068
:102A90000000FF0F986E1283E002FF1F78B4324CE3
:102AA00025684FF4007643099E403543256000F0C9
:102AB0001F002E4C04EB8306756955F8206026F440
:102AC000E06645F8206055F8206046F4807645F8C9
:102AD000206055F820600E4345F8206054F82330FC
:102AE00001240029596904FA00F014BF014381430D
:102AF0005961002A196814BF084321EA00001860D0
:102B000071BC7047194B81B0420953F8222000F084
:102B10001F0001230029516903FA00F014BF084384
:102B200021EA0000506101B07047104B81B04209AA
:102B300053F8222000F01F0001230029116803FA36
:102B400000F014BF084321EA0000106001B0704794
:102B5000014606484A0950F82200006901F01F01A9
:102B6000C84000F001007047388004401402FF1F85
:102B700080B5012201211320FFF790FF01220121DE
:102B80001020FFF78BFF0548016841F40021016028
:102B9000026842F48032026001BD000000F00F4084
:102BA00080B5012201214020FFF778FF0122012199
:102BB0006F20FFF773FF012201219A20FFF76EFFBC
:102BC000012201215220FFF769FFBDE808400122E0
:102BD00001215320FFF762BF05281DD8DFE800F070
:102BE00003070B0F131700220121112012E000220E
:102BF000012140200EE0002201216F200AE0002286
:102C000001219A2006E000220121522002E0002248
:102C100001215320FFF742BF704700000CB410B5EC
:102C2000DFF88443E0700A4602A9104600F0C4F9B8
:102C30000020A07010BC5DF80CFB10B50022012133
:102C40005320FFF72BFF002201215220FFF726FF20
:102C5000002201215120FFF721FF002201215020F5
:102C6000FFF71CFFDFF84443206840F48030206009
:102C70003220216821F48021216000F0EEF82068E4
:102C800040F480202060AE2000F086F8002000F0A4
:102C900083F8102000F080F8402000F07DF88120BB
:102CA00000F07AF8CF2000F077F8A12000F074F857
:102CB000C82000F071F8A62000F06EF8A82000F0FF
:102CC0006BF83F2000F068F8D32000F065F8002092
:102CD00000F062F8D52000F05FF8802000F05CF88A
:102CE000D92000F059F8F12000F056F8DA2000F071
:102CF00053F8122000F050F8DB2000F04DF840208F
:102D000000F04AF8202000F047F8022000F044F8D4
:102D10008D2000F041F8142000F03EF8A42000F0CF
:102D20003BF8A62000F038F8AF2000F035F800207E
:102D300000F058F8B02000F02FF8102000F02CF828
:102D4000002000F029F8BDE8104069E010B4DFF879
:102D50005C22116841F4002111600821136823F4FA
:102D600080331360491E030604D5136843F400330F
:102D7000136003E0146824F400341460136853F4FF
:102D80008033136000BF1468400024F480340029AD
:102D90001460E7D110BC704710B4DFF8102211683E
:102DA00021F4002111600821136823F4803313609B
:102DB000491E030604D5136843F40033136003E08F
:102DC000146824F400341460136853F480331360DF
:102DD00000BF1468400024F4803400291460E7D157
:102DE00010BC7047F8B504460025DFF8BC61A5F1BA
:102DF0005000C0B2FFF7D0FF0120FFF7CDFF102039
:102E0000FFF7CAFF002703E02046FFF79FFF7F1C64
:102E10007178F8B28842F7D36D1C082DE7DBF1BD5D
:102E200070B50024DFF88051A4F15000C0B2FFF764
:102E3000B3FF0120FFF7B0FF1020FFF7ADFF002622
:102E400003E00020FFF782FF761C6978F0B2884229
:102E5000F7D3641C082CE7DB70BD70472DE9FC41FB
:102E600004460D46904600272FE0E4B27F2CA4BF15
:102E700000246D1CA0F12006A5F15000C0B2FFF7A0
:102E80008BFF200940F01000FFF786FF04F00F00D1
:102E9000FFF782FFF6B2DFF8180106EB460100EB00
:102EA0004106A41D3078FFF751FF7078FFF74EFF01
:102EB000B078FFF74BFFF078FFF748FF3079FFF766
:102EC00045FF7079FFF742FF7F1CFFB218F807003B
:102ED0000028CAD1BDE8F3812DE9FC4704460D4620
:102EE0009246002758E0A0F120063606E4B2792C7D
:102EF000A4BF00246D1CA5F15000C0B2FFF74CFF29
:102F0000200940F010084046FFF746FF04F00F0983
:102F10004846FFF741FFDFF89C0000EB16560834E7
:102F20003078FFF713FF7078FFF710FFB078FFF7E6
:102F30000DFFF078FFF70AFF3079FFF707FF707990
:102F4000FFF704FFB079FFF701FFF079FFF7FEFE0E
:102F5000A5F14F00C0B2FFF71FFF4046FFF71CFF6F
:102F60004846FFF719FF307AFFF7F0FE707AFFF757
:102F7000EDFEB07AFFF7EAFEF07AFFF7E7FE307B6E
:102F8000FFF7E4FE707BFFF7E1FEB07BFFF7DEFEAC
:102F9000F07BFFF7DBFE7F1CFFB21AF8070000286A
:102FA000A1D1BDE8F38700005002FF1F80F00F4061
:102FB000DC1E00000421000003B581B002460020A1
:102FC000009002AB0121034878440830FDF720FA55
:102FD00003B000BD230D000080B50122032198201D
:102FE000FFF75CFD012203219920FFF757FD012225
:102FF00003219A20FFF752FD012203219B20FFF7B6
:103000004DFDBDE80840012203219C20FFF746BD8D
:1030100010B5C44C012808BF207002D021780029C7
:1030200036D09820FFF794FD78B19920FFF790FDF6
:1030300058B19A20FFF78CFD38B19B20FFF788FD2F
:1030400018B19C20FFF784FD10BB322000F078F906
:10305000002020709C20FFF77BFD08B9012010BDE7
:103060009920FFF775FD08B9022010BD9B20FFF7DE
:103070006FFD08B9032010BD9A20FFF769FD08B95C
:10308000042010BD9820FFF763FD08B9052010BD8E
:103090009820FFF75DFD012814D19920FFF758FD16
:1030A00001280FD19A20FFF753FD01280AD19B2058
:1030B000FFF74EFD012805D19C20FFF749FD0128AF
:1030C00008BF2070002010BD7CB50020FFF7A0FFD6
:1030D000012806D0052840F02381934A0121117070
:1030E00073BD914E914D7068401C0128706010D1E5
:1030F0000A24002000F040F929684118641E296064
:10310000F7D18B4AA1FB0220C0088A492860486099
:1031100073BD022846D1002028600A24002000F058
:103120002BF929684118641E2960F7D1804AA1FB58
:103130000220C008286072687E4902EB8204A1F177
:103140001403A40002EB8202185101EB8201A1F1E9
:1031500024042568401BFEF7E1FD0022764BFEF7B4
:10316000D7F900F05FF900EE905A00EE100AF8EE81
:10317000600A30EE801ABCEEC11A84ED011AB0EE7E
:10318000001AF0EE601A40EE011ABCEEE11A84ED6E
:10319000021AB0EE081A40EE010ABCEEE00A84ED15
:1031A000030A73BD0A2865DA002028600A2400207B
:1031B00000F0E2F829684118641E2960F7D15C4AE2
:1031C000A1FB0220C008286072685A4902EB820302
:1031D00001EB830302EB8202A3F1280401EB8202DC
:1031E000A2F1240560612968401AFEF797FD0022CC
:1031F000514BFEF78DF900F015F9D4ED000A00EE01
:10320000100AF8EE600A70EE800AFCEEE00AC5EDE6
:10321000000AB0EE001AD4ED000AF8EE600A40EEA3
:10322000010AFCEEE00AC5ED010AB0EE081AD4ED81
:10323000000AF8EE600A40EE010AFCEEE00AC5ED75
:10324000020AB1EE001AD4ED000AF8EE600A40EE70
:10325000010AFCEEE00AC5ED030AB1EE041AD4ED52
:10326000000AF8EE600A40EE010ABCEEE00A85EDC5
:10327000040A73BD0D2851DA002028600A240020BA
:1032800000F07AF829684118641E2960F7D1284AAD
:10329000A1FB0220C00828607268264902EB820365
:1032A0005B0001EB8305A5F1EC0460622168401A24
:1032B000FEF734FD0022214BFEF7F8FB00F0B2F8D8
:1032C00000EE100A0020A5F1C401401C00EE900A97
:1032D00094ED091AB8EE411AF8EEE01A01EE801AE0
:1032E000BCEEC11A11EE100A41F8040B10EE900A60
:1032F000401C00EE900A94ED091AB8EE411AF8EE5F
:10330000E01A01EE801ABCEEC11A11EE100A41F863
:10331000040B10EE900A0A28D7DB73BD0020706002
:1033200073BD00005C02FF1FD002FF1FD802FF1F09
:10333000CDCCCCCC0000FF1F0000D03F00002240CD
:10334000FFE7010013D00A490A6842F001020A604F
:10335000002308490B608860052048600120086050
:1033600008680206FCD50A68520852000A607047D5
:103370003880044000000440F8B584B00546684633
:10338000002100220023002480E81E00284600F0CF
:1033900023F8284600F020F8284600F01DF82846BB
:1033A00000F01AF86E4604240746284600F014F888
:1033B000316801EB47017F18C719BF08641E46F842
:1033C000047BF1D100980199029A0818039910180A
:1033D0000818800805B0F0BDF8B504460320FFF7D3
:1033E0002DFB0F4F39690546A0B288470320FFF730
:1033F00025FB06463969A0B288470320FFF71EFB6C
:10340000AE42014602D22846354606468E4238BFB5
:10341000354602D38D4238BF0D462846F2BD000026
:103420003C02FF1F01F000428B1AA3F16051B1F57D
:10343000801F0ADBB1F17F6F1FD242EAC102C100D7
:1034400071F1004142EB507070470B15C3F1090355
:10345000212B10D2890241EA905180020128494172
:1034600041F0004121FA03F0C3F12003994071F1CA
:10347000004150417047100070476FF0000013EB9F
:10348000103F5CBF000E42EAC0507047F0B585B0F7
:103490006A4600230024002538C218C200220B000F
:1034A0001AD003466C460026074696420BD0D7F842
:1034B00000C0D3F800E0F44505D1D4F800C00CF109
:1034C000010CC4F800C0761C3F1D8E42EDDB521C7F
:1034D000241D1B1D8A42E6DB00220024009B0D00F8
:1034E00009D06D462E689E4224BF33462246641C96
:1034F0002D1D8C42F6DB50F8220005B0F0BD2DE901
:10350000F84D85B000F061F800F08AF83D4CDFF826
:10351000F880A0683D4E3E4F3E4D8047834668464A
:103520000021002200230EC006C0FFF7CDFDA068D9
:103530008047A0EB0B003228F7D3A0688047834672
:10354000287800283ED0A168884782460020FFF7EF
:1035500013FF386000F0B8F800900020FFF70CFF70
:10356000386000F0B1F801900020FFF705FF3860E7
:1035700000F0AAF802900020FFF7FEFE386000F08D
:10358000A3F803900020FFF7F7FE386000F09CF8E6
:10359000049005216846FFF779FF3060A0688047F6
:1035A000A0EB0A00C8F8000000211120FFF7BDFAC7
:1035B00021694FF4FA70884701211120FFF7B5FA0D
:1035C0000020287000F03AF8AFE780B50A2000F03C
:1035D000F3F8114A114813684FF6FF010B400343FB
:1035E0000848136002689047FFF7DAFA00F066F9BE
:1035F000FFF7F2FCFFF721FB00F092F9BDE8014074
:10360000FFF7A8B93C02FF1FE402FF1FDC02FF1F07
:10361000D802FF1FD002FF1F0CED00E00005FA05E5
:1036200080B50FF2700203212420FFF755FC1449E6
:103630000A69BDE802404FF47A70104780B5FFF781
:10364000EFFB10480FF2580102680020FFF7E6FA7E
:103650000D480FF2580102680220FFF7DFFA0B480D
:103660000FF2500102680420FFF7D8FA08480FF261
:103670004C010268BDE808400620FFF7CFBA000001
:103680003C02FF1FE002FF1FD802FF1FDC02FF1FEA
:10369000E402FF1F57656C636F6D652E000000002C
:1036A000526177433A256C7500000000433A256C5F
:1036B000750000004E756D3A2575000054696D6502
:1036C0003A256C756D730000F8B53A494A688B6805
:1036D0009B1A002402EB5302904206D201240121DE
:1036E0001120FFF722FAA0B2F2BD01F5C6725368AD
:1036F000984221BF0D68EE1AA5EB5605854213D3FB
:1037000080B2FEF70BFB274A274BFDF701FF274A44
:10371000274BFEF71DFBFFF785FE00EE100ABDEEFE
:10372000C00A10EE104A21E0834221BF12689D1AA0
:1037300002EB5502904228BF6424D0D20A68D31A03
:10374000A2EB5302904214D20122091D4B680D686E
:103750008F685E1BFF1A332A0DDA05EB5605A84267
:1037600024BF03EB5703834215D3541CA0B2002897
:10377000B5D10021B4E7472A05DAA84228BF834221
:1037800009D3144607E005EB5605A84222BF03EB18
:1037900057038342541C521C091D632AD6DBE5E7FC
:1037A000000000006ADE718A8EE4B23F82734694A4
:1037B000D6439FC00000FF1FF0B43B4B1C6844F48D
:1037C00078541C6004003BD0401E0F2838D8DFE836
:1037D00000F0080B0E1114171A1D2023262C292F78
:1037E0003235042100222BE00421022228E00421AA
:1037F000042225E00421082222E004210A221FE0FD
:1038000004210C221CE004210E2219E004211022C4
:1038100016E00421122213E00421142210E00421F6
:1038200018220DE004211C220AE004211D2207E0D9
:1038300004211E2204E004211F2201E0032116229C
:103840001A481B4F8024047001F007040471194CBE
:103850002568266846F47F062660DF6002F01F03B5
:10386000256043F04003437183799C06FCD583793E
:103870005C06FCD5002404708379C3F38103032B19
:10388000FAD1D2B21032322010FB02F202EBD27225
:10389000C9B209485210491C92FBF1F1017001783C
:1038A00049084170F0BC7047388004400040064031
:1038B0000000270100F00140EC02FF1F012201215E
:1038C0001120FFF7EBB8000011B50A2881B01C4C9D
:1038D00007D10021A1702079E1784118E1700A2018
:1038E00016BD61786079091AA078814205DA002056
:1038F000A070E17820794118E17022782079E17890
:10390000121A8A4202DA0020608007E0A07801AA39
:10391000FFF7A4FAA17860794118A170019816BD4B
:1039200080B5002200216920FFF7B8F84FF4E1319B
:10393000044800F00BF804494FF00040086001BD56
:103940005002FF1F00A0064000E100E038B43F4AEB
:1039500090420AD13E4BDC6844F48064DC604FF452
:1039600040743C4B1C615C6136E03B4B98420AD191
:10397000374BDC6844F40064DC604FF44073374C30
:103980002360636028E0364B98420AD1304BDC68F4
:1039900044F48054DC604FF440742E4B5C601C6037
:1039A0001AE0304B98420AD1294BDC6844F40054A9
:1039B000DC604FF44073294C6363A3630CE02A4B33
:1039C000984209D1224B1C6844F480641C604FF477
:1039D0004073264C636023609042C37803F0F30386
:1039E000C3701CBF1C4A90428378214A837007BF72
:1039F000204B1B78204C237853430A01B3FBF2F28F
:103A000094B2B4F5005FA8BF41F6FF7204781504C4
:103A10002D0E04F0E00405F01F052C4304704270E5
:103A2000B3FBF1F1847AA1EB021104F0E00401F0A0
:103A30001F010C438472017C41F088010174C1783C
:103A400041F00C01C17031BC7047000000A006407D
:103A50002880044008C0044000B006400CB0044078
:103A600000C0064000D0064000A00E4060D00440D8
:103A700040420F00EC02FF1FED02FF1F2D492E4AAE
:103A8000097811604FF47A7010FB01F1192010765B
:103A9000516064209060192041436FF07F40814263
:103AA0000BD82648264A21F07F41491E4160F0216B
:103AB0001170002282600721016070471E488168F2
:103AC000027E8918816070471E481B4A0168906811
:103AD0005268B1FBF2F1401A70471A48DFF858C03B
:103AE0000168DCF808204FF47A704243DCF80000EB
:103AF000B1FBF0F000230021101A63EB01017047C5
:103B000070B5114E04467068804700230019594172
:103B1000441E61F1000570688047A942FBD301D8BB
:103B2000A042F8D370BD084AD3684FF47A71484375
:103B300018470000EC02FF1FB002FF1F10E000E07A
:103B400023ED00E018E000E03C02FF1F19E050F810
:103B5000042BD30744BFA9F101039A18091F0023BE
:103B6000042942F8043BF9D25FEA817C134604D56C
:103B70004FF0000CA2F800C09B1CC90744BF0021F5
:103B8000197050F8041B0029E1D1704780B500F08E
:103B900007F808490A884FF6FE7002400A8001BD06
:103BA00072B605484CF2205101804DF62811018073
:103BB00062B67047002005400E20054010B450F852
:103BC000041B79B10268436802440830DC0744BF33
:103BD000A9F10104E31852F8044B43F8044B091F00
:103BE000F9D1ECE710BC7047054800E005480168D2
:103BF00041F00101016070470348F8E70348F6E728
:103C00000C7103401C7103402C7103403C71034054
:103C100072B60548054901600A6882F308880448BD
:103C2000804762B60348004708ED00E0000000004E
:103C3000DD3C0000193D000010B5074979441831FA
:103C4000064C7C44163404E00A68081D1144884779
:103C50000146A142F8D110BD2C0000004C0000002C
:103C60004EF68851CEF20001086840F470000860FA
:103C7000BFF34F8FBFF36F8F4FF00070E1EE100A6C
:103C800070470000C9FEFFFF900000006002FF1FA8
:103C90000000000029FFFFFF60020000400200005A
:103CA0000000FF1F0000000000F00DF8002801D008
:103CB000FFF7C2FFAFF300800020AFF30080FFF7F3
:103CC0001EFC00F002F80120704700F001B800006F
:103CD00007463846FEF7F8F8FBE7000080B5FFF727
:103CE00055FF0348016841F47001016001BD000007
:103CF00088ED00E0704738B504460D46284600F0D0
:103D000005F8A84218BF0024204632BD0149FFF73C
:103D1000DBBD00BF9401FF1FAFF30080FFF7A0FFE2
:103D2000FFF7C2FF00480047D93E000000480047A7
:103D3000D93E000000480047D93E00000048004737
:103D4000D93E000000480047D93E00000048004727
:103D5000D93E000000480047D93E00000048004717
:103D6000D93E000000480047D93E00000048004707
:103D7000D93E000000480047D93E000000480047F7
:103D8000D93E000000480047D93E000000480047E7
:103D9000D93E000000480047D93E000000480047D7
:103DA000D93E000000480047D93E000000480047C7
:103DB000D93E000000480047D93E000000480047B7
:103DC000D93E000000480047D93E000000480047A7
:103DD000D93E000000480047D93E00000048004797
:103DE000D93E000000480047D93E00000048004787
:103DF000D93E000000480047D93E00000048004777
:103E0000D93E000000480047D93E00000048004766
:103E1000D93E000000480047D93E00000048004756
:103E2000D93E000000480047D93E00000048004746
:103E3000D93E000000480047D93E00000048004736
:103E4000D93E000000480047D93E00000048004726
:103E5000D93E000000480047D93E00000048004716
:103E6000D93E000000480047D93E00000048004706
:103E7000D93E000000480047D93E000000480047F6
:103E8000D93E000000480047D93E000000480047E6
:103E9000D93E000000480047D93E000000480047D6
:103EA000D93E000000480047D93E000000480047C6
:103EB000D93E000000480047D93E000000480047B6
:103EC000D93E000000480047D93E000000480047A6
:103ED000D93E000000002E00FFF7FEBFEBDD010021
:103EE000AB360000483F0000A245000052490000E8
:103EF0006F4D00002C51000020530000FB540000C7
:103F0000B35600008C5900006E5A0000A25B0000FE
:103F1000D65C00002E5E0000695F0000B95F000003
:103F2000E06000004C6100000F620000A76200002A
:103F300033630000BA63000034640000C064000012
:103F4000336500008D650000F665000066660000C0
:103F5000BB66000007670000666700009E67000000
:103F6000F06700003668000074680000CA6800004E
:103F7000F2680000266900005C6900008A690000A0
:103F8000BC690000F4690000246A0000446A000073
:103F9000726A00008E6A0000BD6A0000E56A0000D7
:103FA000086B00002E6B00003A6B0000586B00009D
:103FB0006E6B00008A6B0000B46B0000CA6B0000DF
:103FC000EE6B0000146C0000256C0000396C0000E2
:103FD000516C0000696C0000826C0000916C000064
:103FE000AA6C0000C26C0000D26C0000F06C0000F3
:103FF000016D00001C6D0000386D00004E6D00006A
:104000005D6D0000696D0000796D00008E6D00002F
:104010009A6D0000AF6D0000C06D0000D26D000011
:10402000DE6D0000F46D0000006E00000D6E0000FB
:104030001B6E0000246E00002A6E0000326E00002D
:10404000496E0000526E00005C6E00006B6E000056
:10405000716E0000856E0000926E0000986E000088
:10406000A46E0000B36E0000BF6E0000C66E0000BC
:10407000020401016002FF1FB002FF1F6002FF1F68
:104080006002FF1F000000006002FF1F0000000030
:10409000D801FF1FC401FF1F000000000000000046
:1040A0000000000000000000000000000000000010
:1040B0000000000000000000D43E0000D43E0000DC
:1040C000D43E0000D43E0000D43E0000D43E0000A8
:1040D000D43E0000FFFFFFFFFFFFFFFFD63E0000C2
:1040E000D43E0000D43E0000FFFFFFFFFFFF0000B2
:1040F00000F00F4040F00F4080F00F40C0F00F4044
:1041000000F10F400090044000A0044000B00440C3
:1041100000C0044000D004407D3A0000DB3A0000BB
:10412000C93A0000013B0000273B0000408400002A
:0C413000080600001D2C0000010000002B
:0400000500003D19A1
:00000001FF
