:020000040800F2
:10000000480500105D0200089F380008BB34000856
:100010009D3800083917000805410008000000005D
:100020000000000000000000000000006B3C000821
:10003000A51A000800000000693C00086D3C00089B
:1000400077020008770200087702000877020008AC
:100050007702000877020008811E00087702000876
:10006000871E000877020008770200087702000860
:10007000770200087702000877020008770200087C
:10008000770200087702000877020008770200086C
:10009000770200087702000877020008770200085C
:1000A000770200087702000877020008770200084C
:1000B000770200087702000877020008770200083C
:1000C000770200087702000877020008770200082C
:1000D00077020008F940000877020008770200085C
:1000E000770200087702000877020008770200080C
:1000F00077020008770200087702000877020008FC
:1001000077020008770200087702000877020008EB
:1001100077020008770200087702000877020008DB
:10012000F519000877020008770200087702000836
:1001300077020008770200087702000877020008BB
:1001400077020008770200087702000877020008AB
:10015000770200087702000877020008770200089B
:10016000770200087702000877020008770200088B
:1001700077020008770200087702000800000000FC
:1001800077020008770200084B1C012B98BF7047CC
:100190002DE9F003911C9B08B1F80480B1F802909E
:1001A0000A8831F802CC8044814402448444D9F85E
:1001B0000070D8F800601568DCF80040C9F80060ED
:1001C000C8F80070CCF800501460D9F80470D8F862
:1001D00004605568DCF80440C9F80460C8F804708D
:1001E000CCF80450546008315B1ED5D1BDE8F00353
:1001F00070474B1C012B98BF70472DE9F003911CF1
:100200009B08B1F80480B1F802900A8831F802CC5A
:1002100000EB580800EB590900EB520200EB5C0CB4
:10022000D9F80070D8F800601568DCF80040C9F80B
:100230000060C8F80070CCF80050146008315B1EF4
:10024000DFD1BDE8F0037047DFF80CD001F048F9CA
:1002500000480047914A00084805001006488047BA
:1002600006480047FEE7FEE7FEE7FEE7FEE7FEE79B
:10027000FEE7FEE7FEE7FEE7F93C0008490200085A
:100280009FED3D0A5FEA920C57D000BFD0ED000A07
:1002900090ED011A0B1D60EEA00A083041EE010A34
:1002A000F5EEC00AF1EE10FAA6BFB1EEE01A81ED4C
:1002B000001A81ED000AD0ED000A90ED011A191D17
:1002C00060EEA00A083041EE010AF5EEC00AF1EE38
:1002D00010FAA6BFB1EEE01A83ED001A83ED000A12
:1002E000D0ED000A90ED011A0B1D60EEA00A083057
:1002F00041EE010AF5EEC00AF1EE10FAA6BFB1EE2A
:10030000E01A81ED001A81ED000A90ED001AD0ED9F
:10031000010A191D21EE011A083000EEA01AB5EEEF
:10032000C01AF1EE10FAA6BFF1EEC10AC3ED000A41
:1003300083ED000ABCF1010CA8D112F0030208BF42
:10034000704700BFD0ED000A90ED011A0B4660EE39
:10035000A00A091D083041EE010AF5EEC00AF1EECF
:1003600010FAA6BFB1EEE01A83ED001A83ED000A81
:10037000521EE7D170470000000000002DE9F04157
:1003800006462DED028B8C460088736801EB8004D5
:100390004508274601EB850004EB85025FEA9508D6
:1003A0007DD000BFD1ED003AD4ED001A91ED012AC5
:1003B00094ED013A73EEA16A91ED024A91ED031AB0
:1003C000D4ED022AD4ED035A90ED008A90ED017A23
:1003D00090ED020A90ED036A92ED005AD2ED014AC7
:1003E000D2ED027AD2ED030AC1ED006A72EE036A21
:1003F00073EEE13A74EEC71AC1ED016A74EE226A37
:1004000074EE622A37EEC04AC1ED026A71EE256AC7
:10041000C1ED036A72EE436A31EE652A38EE051AC1
:1004200035EE483A80ED001A37EE241A80ED011AB5
:1004300030EE271A80ED021A36EE201A80ED031AEC
:1004400030EEC61A93ED000AD3ED010A63EE804A3E
:1004500026EEA05A66EE805A63EEA03A74EE854A04
:1004600075EEE33AC4ED004A63EE204AC4ED013A6A
:1004700061EE803A61EEA00A23EE000A74EEE31A00
:1004800030EE800AC2ED001A82ED010A93ED020AF5
:10049000D3ED030A62EE803A22EE203A00E024E037
:1004A00062EEA01A22EE002A73EE832A1030103179
:1004B00072EE611AC4ED022A24EE202AC4ED031A5A
:1004C00061EE001A61EE200A24EE000A103332EECB
:1004D000611A103430EE800A82ED021A82ED030AAE
:1004E0001032B8F101087FF45DAF2946022360465F
:1004F000726800F0D5FA72682946BDEC028B384666
:10050000BDE8F041022300F0CBBA2DE9F34F2DED09
:10051000048B87B00B980088470801EB870000EB3D
:10052000870606EB8705CDE90056DDF82C80A5F19E
:10053000040C0CEB8703CDE902014FEA5709D8F808
:1005400004800427CDE90497D1ED000A96ED000A56
:1005500090ED011A95ED013A70EE802A70EEC03AE6
:10056000D1ED010A96ED010A041F321F30EE802AF8
:1005700070EEC01A31EE230AD0ED000A32EE415A75
:1005800033EEC11A30EE434A71EEE04A95ED000AAF
:1005900070EEA11A35EE435A74EE805A72EEE04ABC
:1005A00070EEA20A71EEC01A31EE031A74EEC04A60
:1005B00030EE800A062708F1080A81ED000A90ED66
:1005C000010AD5ED010A08F1100B30EE020A08F11C
:1005D000180830EE200A81ED010A80ED004AC0EDD6
:1005E000015AC6ED004A86ED015A85ED001AC5EDA7
:1005F000011ADDF810900830083108350836A9F1E5
:1006000002095FEA590900F0078100BFD1ED000A35
:1006100096ED000AD0ED011AD5ED014A30EE802AA0
:1006200030EEC05AD1ED010A96ED010A70EE802A33
:1006300030EEC01A31EE850AD5ED000A30EE644A7C
:1006400090ED000A31EE403A30EE011A73EE205A76
:1006500032EE403A30EE020A31EE601A73EE603A42
:1006600030EE200A32EEE13A75EE611A81ED000AB1
:1006700090ED010AD5ED010A33EE643A30EE220A1C
:1006800071EEA41A30EE200A81ED010AD4ED002AA1
:10069000DCED004A54ED010A1CED010A32EEA47AA9
:1006A00032EEE49A72EEE42A52ED018A70EE807A1C
:1006B00030EEC02A72EEE82AD2ED000A93ED000A6D
:1006C00013ED018A30EEC05A72EE886A77EEE82A9E
:1006D00035EE026A32EEC85A77EE602A72EEC04AF0
:1006E00070EEC02A70EE870A72EEC22A30EE800ADF
:1006F00038EE682A84ED000A12ED010A53ED010A72
:1007000032EE492A30EE270A30EE200A04ED010AC3
:100710009AED000ADAED010A64EE007A25EEA07A7D
:1007200065EE805A24EE204A37EE877A35EEC44AC9
:1007300080ED007A80ED014A26EEA04A66EE005A6E
:1007400066EE200A26EE800A083034EE654A08314B
:1007500030EE800A82ED004A083C02ED010A9BED72
:10076000000ADBED010ADDF814E023EE804A63EEB7
:10077000205A23EE003A63EEA03A083A34EE254AB6
:100780000BEB8E0B33EE633A86ED004A0AF1080A52
:1007900086ED013AB1EE643A083663EE003A25EE92
:1007A000203A25EE000A64EEA00A33EEC33A30EE9A
:1007B000C00A8CED003A0CED010A98ED000AD8ED64
:1007C000010A08EB870861EE803A21EE203A21EE1B
:1007D000001A61EEA01AACF1080C33EE833A31EE48
:1007E000611A85ED003A62EE801A85ED011A22EE5B
:1007F000201A62EEA00A22EE000A083531EE611AD4
:1008000030EE800A83ED001A03ED010A083BB9F1CE
:1008100001097FF4FBAE00BFD1ED000A96ED000A9E
:1008200091ED011AD0ED015A30EE802A70EEC00A27
:1008300096ED010A95ED015A042371EE001A71EE4E
:10084000404A35EEA00A90ED001A31EEE54A70EE0E
:10085000E50A30EE453A95ED000A34EE454A30EEB1
:10086000855A74EEC12A72EE413A71EE240A31EED5
:10087000021A72EE802A73EEC03A70EEC00A31EEB0
:10088000000A81ED000A90ED010A95ED011A30EEA3
:10089000210A30EE010A81ED010A9AED000A9AED73
:1008A000011A63EE001A22EE812A22EE800A23EE5C
:1008B000011A71EE821A30EE410AC0ED001A80ED85
:1008C000010A9BED000A9BED011A63EE801A24EEEB
:1008D000012A24EE000A23EE811A71EE821A30EE0C
:1008E000410AC6ED001A86ED010A98ED010A98ED5D
:1008F000001A60EE801A25EE012A60EE810A25EECC
:10090000000A32EE211A30EEC00A85ED001A85ED9C
:10091000010A0B984268DDE9030100F0C1F80B9869
:10092000042304994268029800F0BAF80B98042353
:1009300004994268019800F0B3F80B9804990423D5
:100940004268009807B0BDEC048B02B0BDE8F04FE0
:1009500000F0A6B82DE9F0410488984617460D46E8
:100960000646012A20D1281DF4B1A0F1080114F097
:10097000010F06D091ED020AB1EE400A81ED020AA4
:1009800008315FEA540C0FD091ED020AB1EE400A33
:1009900081ED020A91ED040AB1EE400A81ED040AEC
:1009A0001031BCF1010CEFD1B4F5807F1BD008DC15
:1009B000102C13D0202C16D0402C19D0802C0DD008
:1009C0001CE0B4F5007F13D0B4F5806F06D0B4F509
:1009D000006F08D0B4F5805F0AD00FE0294630469A
:1009E000FFF7CCFC0AE029463046FFF78EFD05E014
:1009F000214601232846726800F052F8B8F1000F32
:100A000004D0B1892846B268FFF7BEFB012F18BF9A
:100A1000BDE8F08100EE104AB7EE001A002CF8EEA7
:100A2000400A81EE200A08BFBDE8F081A5F1080068
:100A300014F0010F0ED0D0ED020A60EE800AC0ED76
:100A4000020AD0ED030AF1EE600A60EE800AC0ED02
:100A5000030A0830610808BFBDE8F081D0ED020A42
:100A600060EE800AC0ED020AD0ED030AF1EE600AE2
:100A700060EE800AC0ED030AD0ED040A60EE800A41
:100A8000C0ED040AD0ED050AF1EE600A60EE800ABE
:100A9000C0ED050A1030491EE0D1BDE8F08100002C
:100AA0002DE9FF4F2DED108B82B09FEDFEFA0B4626
:100AB0001C46DB084FF0000C0CEB030505EB0308AC
:100AC00008EB030909EB030606EB030A00EBCC076E
:100AD00000EBC60697ED001AD6ED000A0AEB030BF1
:100AE00000EBC50500EBCA0A31EE200A71EE601A70
:100AF00095ED002ADAED000A0BEB030E00EBC808B7
:100B000032EE201A00EBCB0B32EE602AD8ED002A31
:100B1000DBED000A00EBC90900EBCE0E99ED003ABF
:100B20009EED004A72EEA03A72EEE02A73EE040ADD
:100B300033EE443A70EE636A70EE233A31EE600AA7
:100B400071EE200A33EEA01A73EEE00A87ED001A68
:100B5000C6ED000A97ED011AD6ED010AD5ED013A6E
:100B600098ED014A31EE206A71EE600A9AED011AA1
:100B700099ED015A73EE814A73EEC13A9BED011A69
:100B800034EE017A34EE411A9EED014A75EE045AB4
:100B900035EE444A36EE475A36EE076A34EEE57AC9
:100BA00074EEA54A76EE245A76EE644AC7ED015AF1
:100BB000C6ED014A76EE874AC8ED004A76EEC74A8E
:100BC000CBED004A75EE404A35EE000AC8ED014A09
:100BD0008BED010A32EE430A32EE032A20EE0F0AB1
:100BE00062EE0F4A33EEC42AA4448C4522EE0F3A3B
:100BF00033EE842A30EEC34A62EE0F3A30EE833A87
:100C000031EEC02A31EE800A71EE630A31EE231A0A
:100C100072EEE41A72EEA42A70EE013A30EE410A46
:100C2000C5ED003A8EED000A32EE200A8AED000A88
:100C300032EE600A89ED000A33EE620A85ED010AA0
:100C400033EE220A8EED010A34EE610A8AED010AC2
:100C500034EE210A89ED010AFFF42EAF082B3FBFC5
:100C600002B0BDEC108B04B0BDE8F08F4FF0000C6B
:100C7000CDF804C04FF0010CCDF800C0DDF804C081
:100C8000159DAC444FEA8C0505EB0C07CDF804C06C
:100C900007EB0C094FEA4C0808EB0C0609EB0C0AB1
:100CA00002EBCC0C02EBC80802EBC60602EBC50552
:100CB00002EBC70702EBC90902EBCA0A9CED00DA96
:100CC0009CED018AD8ED00CA96ED00CAD5ED00BAB8
:100CD00097ED00BAD9ED00AADAED008AD8ED017AD5
:100CE00096ED01AA95ED017AD7ED016A99ED016AB9
:100CF000DAED019ADDF800C00CEB0307FD1805EBF7
:100D0000030A0AEB030808EB030606EB030B00EBF0
:100D1000CC0900EBC808D9ED000A98ED000A00EBF9
:100D2000C70700EBC606D7ED001A96ED001A70EE65
:100D3000803A0BEB030E70EEC00A31EE810A00EB35
:100D4000C50500EBCB0B31EEC11AD5ED001A9BEDBA
:100D5000002A00EBCA0A00EBCE0E31EE824A71EE99
:100D6000C21A9AED002ADEED002A32EE223A32EE65
:100D7000622A73EEC42A73EE843A30EE435A30EEA0
:100D8000030A33EE803A73EEC0DA89ED003A99ED4A
:100D9000010A98ED013AD7ED013A95ED014A70EE5E
:100DA00003EA30EE433A96ED010A9AED01EADEEDF0
:100DB000014A33EE809A73EEC03A9BED010A74EE5D
:100DC000005A34EE404A3EEE240A7EEE644A3EEE7D
:100DD000E5EA7EEEA55A79EE40EA39EE009A32EE67
:100DE000AE0A72EEEE2A75EE89EA35EEC99A7EEE0B
:100DF000455AC9ED01EA3EEE055A2BEEADEA67EE23
:100E000009EA2BEE899A67EE2DDA3EEE2EEA39EEEC
:100E10006D9A88ED00EA67EEA5DA88ED019A2CEE6E
:100E2000809A6CEEA55A27EE800A39EE2D9A35EE9F
:100E3000C00A85ED009A66EE055A85ED010A2AEE94
:100E4000A20A2AEE855A66EE222A30EE250A8BED9A
:100E5000000A35EE620A73EEA42A8BED010A31EE28
:100E6000420A31EE021A33EEE42A62EE8F3A20EEA5
:100E70000F0A21EE0F1A22EE0F2A70EEC02A30EE72
:100E8000800A71EEC10A71EE811A33EE421A33EE16
:100E9000022A34EE633A34EE234A70EE043A30EE1E
:100EA000444A01E0F304353F72EE834A72EEC32AEE
:100EB00032EE613A32EE210A71EE601A71EE200ACA
:100EC0002DEE232A28EE031A2DEE033A68EE233A7C
:100ED000A44432EE011A28EE842A8C4587ED001ACC
:100EE00033EE631A29EE843A87ED011A29EE801A4F
:100EF00028EE800A32EE011A30EE430A26EEA42ACA
:100F00008EED001A8EED010A2BEE240A26EEA11AB0
:100F10006BEE211A30EE010A2CEE221A86ED000A41
:100F200031EEC20A6AEE221A86ED010A2AEE200A82
:100F30006CEE200A31EE000A8AED000A30EEE10A7A
:100F40008AED010AFFF4D8AEDDF800C00CF1010C07
:100F5000CDF800C063453FF691AEDDF854C04FF6C2
:100F6000FF7404EACC0CCDF854C0072B3FF6A0ADBB
:100F700002B0BDEC108B04B0BDE8F08F2DE9F05F3E
:100F80000546002092469B468846064681464024F8
:100F90001BE0284641464746224600F074F9534676
:100FA0005A46C01A914110D311461846224600F005
:100FB0005BF92D1A67EB01084F46224601200021FC
:100FC00000F052F917EB00094E41201EA4F1010474
:100FD000DFDC484631462A464346BDE8F09FD2B2A0
:100FE00001E000F8012B491EFBD270470022F6E712
:100FF00010B513460A4604461946FFF7F0FF20468F
:1010000010BD2DE9FE4F81EA030404F0004421F0F5
:10101000004100944FF0000B23F0004350EA01041C
:101020005ED052EA03045BD0C3F30A54C1F30A55FD
:101030002C44A4F2F3340194A0FB0254C1F3130135
:1010400041F48011C3F3130343F4801301FB024402
:1010500000FB034E840A970A44EA815447EA835707
:10106000A4FB076802958D0A05FB07854FEA932CC0
:1010700004FB0C542705029D4FEA065847EA163731
:10108000B5EB08056EEB070C870E920E47EA811749
:1010900042EA8312A7FB0201B6EB0B0164EB0004EA
:1010A0002B0D43EA0C335E1844EB1C50DA465146D4
:1010B000E7FB0201C5F313044FEA0B3343EA145371
:1010C0004FEA0432019C43EA0603A4F10C040294A3
:1010D000009CCDE900B400F0F5F803B0BDE8F08F56
:1010E00000200146F9E72DE9F04D81EA030404F000
:1010F000004B21F0004514464FF0000A23F0004158
:1011000050EA050220D054EA01021DD0C5F30A5767
:101110000246C5F31303C1F31300C1F30A5640F4AA
:10112000801543F48013A7EB0608101BD64608F27F
:10113000FD3873EB050002D308F1010801E09218B5
:101140005B41B8F1000F03DA00200146BDE8F08DE5
:1011500000204FF48011064684460EE0171B73EB07
:10116000050705D3121B63EB050306434CEA010C8C
:1011700049084FEA300092185B4150EA0107EDD16F
:1011800052EA030012D082EA040083EA0501084310
:1011900005D0101BAB4106D20122002306E000223D
:1011A0004FF0004302E06FF0010253101AEB06000B
:1011B0004CEB085110EB0A0041EB0B01BDE8F04D80
:1011C00000F071B80EB5C10F80EAE0700844CA079C
:1011D000002140F233438DE80E000A460B4600F032
:1011E00071F803B000BD00F0004230F000400AD0BA
:1011F000C10D01F56071C0F3160042EA0151C20849
:1012000040071143704700200146704730B5041E67
:1012100071F1000404DB4FF00044404264EB010133
:10122000141E73F1000405DB1C464FF000435242CC
:1012300063EB0403994208BF904230BD30B50B46C2
:10124000014600202022012409E021FA02F59D42F6
:1012500005D303FA02F5491B04FA02F52844151ECA
:10126000A2F10102F1DC30BD202A04DB203A00FAB1
:1012700002F1002070479140C2F1200320FA03F3ED
:10128000194390407047202A04DB203A21FA02F0EB
:101290000021704721FA02F3D040C2F120029140B0
:1012A00008431946704710B5141E73F1000408DA9C
:1012B000401C41F1000192185B411A4301D120F01A
:1012C000010010BD2DE9F04D92469B4611B1B1FAD7
:1012D00081F202E0B0FA80F220329046FFF7C4FFBC
:1012E00004460F4640EA0A0041EA0B0153465A46BB
:1012F000084313D0114653EA010019D0C8F1400247
:101300005046FFF7C0FF05460E4650465946424636
:10131000FFF7AAFF084305D0012004E02046394624
:10132000BDE8F08D0020054346EAE0762C433743C4
:101330000A986305E40AA0EB08000022FD0A44EACB
:1013400047540A3002D500200146E9E7010510198B
:101350006941DDE9084500196941BDE8F04DA2E7A2
:101360002DE9FE4F804681EA0300C00F0C46009035
:1013700021F0004123F00045B8EB0200A94105D25D
:101380004046214690461C460B46024623F000404C
:10139000104347D0270DC7F30A00C3F30A51029048
:1013A000401A019040286BDAC3F3130040F4801B0D
:1013B0000098924620B10023D2EB030A63EB0B0B9B
:1013C00001985946C0F140025046FFF74DFF0646CE
:1013D0000D4650465946019A00F094F810EB08006B
:1013E0006141002487EA115284EAE7731A4340D02E
:1013F000009A62B3019A012A4FEA075215DC001BDA
:1014000061EB02014FF0004202EA0752CDE90042CF
:10141000001C41F5801132462B46FFF753FF03B005
:10142000BDE8F08F40462146F9E7001B61EB020161
:10143000001C41F5801300185B412018A2F500172D
:1014400047EB030140EAD570B6196D4111E06D0814
:101450004FEA360645EAC0754FEA0752001B61EBBA
:101460000201001C41F5801149084FEA30000019C3
:10147000514132462B4603B0BDE8F04FFFF713BF92
:101480000098012240000023D0EB020263EBE073DE
:10149000009821464FEAE074B8EB000061EB0401CC
:1014A000E9E783F000435BE781F0004158E7C1F3CF
:1014B0000A52C1F3130140F2FF3341F480119A4202
:1014C00002DA00200146704740F233439A42A2F20A
:1014D000334202DC5242FFF7D6BEFFF7C5BE000022
:1014E000064C074D06E0E06840F0010394E8070071
:1014F00098471034AC42F6D3FEF7AAFE6CF400080D
:101500009CF40008202A06DBCB17203A41FA02F0AF
:1015100043EAE07306E041FA02F3D040C2F1200250
:10152000914008431946704710B50146806B026C24
:1015300012F0500F05D0026CD20626D500F078FDCF
:1015400010BD016C41F40071016401688A6812F0F9
:10155000405F17D1027EAAB9CA6A12F4700F02D096
:101560008A6852050ED44A6822F020024A60016C53
:1015700021F480710164016CC90403D4016C41F051
:101580000101016400F052FD10BD806BC26CBDE82A
:1015900010400846104710B5806B40210164416C33
:1015A00041F00401416400F043FD10BD10B5806BB3
:1015B00000F03DFD10BD000070B54FF4FA752846EF
:1015C00001F0B4F84FF4805422460F490F4800F060
:1015D0001DFE284601F0AAF80C4800F0AFFE0A4AAA
:1015E000002002F5005100BF32F81030C3F30B03A6
:1015F00000EE103A01EB8003401CB8EE400AA04216
:1016000083ED000AF0DB70BD000000202000001018
:10161000464910B54A6822F440324A604A68436835
:101620001A434A6001684A6822F480724A6001687D
:101630004A68036942EA03224A6001684A6822F064
:1016400040724A6001684A6883681A434A600168C8
:101650008A6822F400628A6001688A68C3681A4353
:101660008A60816A6FF07062D14201688A6822F0F4
:1016700070628A6001688A680CD0836A1A438A6043
:1016800001688A6822F040528A6001688A68C36AE9
:101690001A4301E022F040528A6001688A6822F011
:1016A00002028A6001688A68037E42EA43028A6015
:1016B00090F82010002901684A680FD042F40062B7
:1016C0004A6001684A6822F460424A6001684A68D8
:1016D000174C436A04EB43331A4301E022F40062DF
:1016E0004A600168CA6A22F47002CA620168CA6A62
:1016F000838B104C04EB03531A43CA6201688A6857
:1017000022F400728A6001688A6890F8303042EAF8
:1017100043228A6001688A6822F480628A600168D4
:101720008A68406942EA8020886010BD0023014039
:1017300000E0FFFF0000F0FFFEE700002DE9F05F92
:101740002DED048BF0EE408A0E4600259FED728A47
:10175000724F294607F1140307EB810282ED008ADC
:1017600003EB8102491C82ED008A0529F4DB6C4CF5
:10177000DFF8A8B1B7EE000A01210BF1280B78EED3
:10178000C00A216025E000BF00EB810292ED000A53
:1017900012ED011AB4EEC10AF1EE10FA17DD92ED66
:1017A000011AB4EEC10AF1EE10FA10DD10EE10CA03
:1017B000DFF87081C4450ADD05EB45086D1C2BF888
:1017C000281092ED000A0BEB880282ED010A491CF9
:1017D000216000EE101AB8EEC00AF4EEC00AF1EE75
:1017E00010FAD1DC002005EBD5799A46206047E05D
:1017F00018EE900AFFF7F7FC41EC190B08EB4801D3
:10180000D8463BF82100401EFFF7DCFC9FED461B4D
:1018100053EC112BFFF7F5FB53EC192BFFF763FC8F
:101820009FED431B53EC112BFFF7F0FC2CD92068E4
:1018300000EB400238F8223008EB8202DB0300EEB6
:10184000103A07EB8003B8EE400AC0EE280AC3ED59
:10185000000A92ED010A2A1A02EB420208EB820109
:1018600051ED020A0AEB8001401C70EE200A80EE66
:10187000A80AF0EE000A20EE200A81ED000A20609E
:101880008046B0EB690FB3DB9AED010ADAED020A8C
:1018900020EE000A00EEA00ADAED030A00EEA00A2C
:1018A000DAED040A00EEA00AB5EEC00AF1EE10FA75
:1018B00002DBF1EEC00A01E0F0EE480A9AED000A00
:1018C0001D49B0EEC01A11EE100A884202DC86ED06
:1018D000008A03E080EE801A86ED001A174930680E
:1018E000884203DB9FED160A86ED000A3068FFF799
:1018F0007AFC41EC100B13A153EC102B144802F0AE
:1019000003FCBDEC048B82B26423BDE8F05F104998
:10191000104801F074BD00000000000000600020CD
:10192000040000109A6C7247000000000000E040C4
:10193000000000000050B440BD378635C74BF73E6D
:10194000C74BF73E0D0A252E33660D0A0000000036
:1019500028800120080100102DE9F04104462DEDFA
:10196000028B86B014216846FFF740FB9FED180AF2
:10197000002584ED000A6F464FF480589FED158ACC
:10198000FFF71AFE42461449144800F081FA07EBAB
:101990008506B0EE480A31460F48FFF7CFFE94EDBA
:1019A000000AD6ED000A6D1C052D30EE200A84EDEC
:1019B000000AE5DBF0EE400AB1EE041A80EE810A7F
:1019C00084ED000A06B0BDEC028BBDE8F08100009A
:1019D0000000000000008045284001200020002079
:1019E0000020034920220A54401C0C28FBDB7047CE
:1019F00028820120014800F027BD00006800001087
:101A000001681823CAB2103AB2FBF3F2054B6FF328
:101A10000901032A9B5CC36500D9091D816508463D
:101A200070470000BC54000810B5014600208B69C7
:101A30008A6A4FF0C07453B1B3F5005F15D072B12C
:101A4000012A0CD0022A0AD0032A09D104E01AB1D3
:101A5000012A06D0022A03D1C96AC90100D5012092
:101A600010BDC96AA142FAD010BD002AF7D0012AE0
:101A7000F2D0022AF3D0032AF3D010BD30B50468A7
:101A8000256825F480252560046863608368402B01
:101A9000036803D099600068C26030BD9A60006836
:101AA000C16030BD7047000010B50B4C002208210A
:101AB000204600F053FF00220421204600F04EFF94
:101AC00000221021204600F049FF20460022BDE8F8
:101AD0001040202100F042BF000C024010B50B4C1A
:101AE00001220821204600F039FF0122042120466E
:101AF00000F034FF00221021204600F02FFF204686
:101B00000022BDE81040202100F028BF000C024058
:101B100010B50B4C01220821204600F01FFF0022C7
:101B20000421204600F01AFF00221021204600F078
:101B300015FF20460022BDE81040202100F00EBF16
:101B4000000C024010B50B4C01220821204600F089
:101B500005FF00220421204600F000FF0122102191
:101B6000204600F0FBFE20460022BDE81040202168
:101B700000F0F4BE000C024010B50B4C012208210D
:101B8000204600F0EBFE00220421204600F0E6FE95
:101B900000221021204600F0E1FE20460122BDE88F
:101BA0001040202100F0DABE000C0240F0B52DED0F
:101BB000028B81B09FED8D0A8DED000AFFF7A8FF23
:101BC00001F06EFE00218AA2084601F0C3FFDFED9E
:101BD0008B8A6846B0EE680AFFF7BEFEFFF700FF8B
:101BE0009DED000A9FED868A60EE080A10EE900ACD
:101BF000FFF7F9FA41EC110B82A153EC112B844849
:101C000002F082FA824A04212E2001F0A3FF41F261
:101C10009414204600F08AFD7E4E4FF48055002239
:101C20002946304600F09AFE4FF4FA77384600F025
:101C30007DFD01222946304600F090FEFFF782FF2D
:101C400001F02EFE002174A2084601F083FFB0EEE1
:101C5000680A6846FFF780FEFFF7C2FE9DED000AA6
:101C600060EE080A10EE900AFFF7BDFA41EC110B86
:101C70006EA153EC112B664802F046FA644A042127
:101C80002E2001F067FF204600F050FD002229467B
:101C9000304600F063FE384600F048FD0122294638
:101CA000304600F05BFE01F0FBFDFFF7FDFE00217A
:101CB00060A2084601F04EFFB0EE680A6846FFF7E2
:101CC0004BFEFFF78DFE9DED000A60EE080A10EE58
:101CD000900AFFF788FA41EC110B54A153EC112B39
:101CE0004B4802F011FA4A4A04212E2001F032FF3B
:101CF000204600F01BFD00222946304600F02EFE53
:101D0000384600F013FD01222946304600F026FE39
:101D100001F0C6FD00214DA2084601F01BFFFFF7B0
:101D20002BFFB0EE680A6846FFF716FEFFF758FE75
:101D30009DED000A60EE080A10EE900AFFF753FAD4
:101D400041EC110B39A153EC112B314802F0DCF9B5
:101D50002F4A04212E2001F0FDFE204600F0E6FC73
:101D600000222946304600F0F9FD384600F0DEFC3E
:101D700001222946304600F0F1FDFFF7AFFE01F0E9
:101D80008FFD002137A2084601F0E4FEB0EE680A9C
:101D90006846FFF7E1FDFFF723FE9DED000A20EE08
:101DA000080A10EE100AFFF71EFA41EC100B1FA1F3
:101DB00053EC102B164802F0A7F9154A04212E20E7
:101DC00001F0C8FE204600F0B1FC00222946304652
:101DD00000F0C4FD384600F0A9FC01222946304637
:101DE00000F0BCFD01B0BDEC028BF0BD00000000B6
:101DF0004E6F726D616C2057617665000000804502
:101E00000000C84225372E3366202525000000003B
:101E10002882012000080240546F702044697374C6
:101E20006F7274696F6E205761766500252E336678
:101E300020252500427574746F6E20446973746F99
:101E40007274696F6E2057617665000054776F2059
:101E500057617920446973746F7274696F6E20578B
:101E60006176650043726F73736F766572204469A3
:101E700073746F7274696F6E20576176650000002D
:101E8000012000F083BC042000F080BC70470000FB
:101E900070B514460D4600230E4A9FED0F0A0AE066
:101EA00000EB8301D1ED000A02EBC3015B1CC1ED25
:101EB000000A81ED010AA342F2D301230022054961
:101EC0000648FEF747FD22462946BDE87040014816
:101ED000FEF7D6B928C0002000000000DC5400083E
:101EE00078B50024009490F83C20012A19D00122F2
:101EF00080F83C200A6807230568092A13D9EE6890
:101F00000A3A02EB420293409E43EE600B788A68E5
:101F10000A3B03EB43039A400368DD682A43DA6017
:101F200010E0022078BD2E6902EB420293409E43EE
:101F30002E610B788A6803EB43039A4003681D699E
:101F40002A431A614A681F23072A13D205686E6B59
:101F5000521E02EB820293409E436E630B790A8805
:101F60005B1E92B203EB83039A4003685D6B2A43C6
:101F70005A6327E005680D2A12D22E6BD21F02EB9E
:101F8000820293409E432E630B790A88DB1F92B234
:101F900003EB83039A4003681D6B2A431A6311E025
:101FA000EE6A0D3A02EB820293409E43EE620B7999
:101FB0000A880D3B92B203EB83039A400368DD6A03
:101FC0002A43DA62164B0568144A9D4206D10D6811
:101FD000122D03D1556845F48005556005689D4272
:101FE00018D10B68102B01D0112B13D1536843F477
:101FF00000035360096810290CD10A490A4A09688C
:10200000B1FBF2F101EB8101490000E0491E0091B2
:102010000029FBD180F83C40002078BD002301401E
:10202000002001401C00001040420F007047704724
:10203000704770B504004FF0000503D0206C0026F7
:1020400010B107E0012070BD204600F01DF8666465
:1020500084F83C60206CC00610D4206C20F48850BA
:1020600040F0020020642046FFF7D2FA6664206C3C
:1020700020F0020040F00100206400E0012584F817
:102080003C60284670BD000070B586B0064614213D
:102090006846FEF7ABFF1D493068884233D11C48C3
:1020A0000025016841F480710160006800F48070CF
:1020B000059017481438016841F00101016000687B
:1020C000694600F001000590102000900320CDE942
:1020D0000105104800F066FB104C0F48C4E90005EC
:1020E0000015A560C4E90350400060618000C4E9A8
:1020F000060525622046656200F076FA08B1FFF712
:10210000C5FEB463A66306B070BD000000200140A8
:102110004438024000000240106402406800001091
:1021200018B50021009190F83C20012A07D0012227
:1021300080F83C2002689368DB0702D011E002209F
:1021400018BD936843F0010393602A4A2A4B126832
:10215000B2FBF3F202EB420200E0521E0092002AB0
:10216000FBD102689368DB0741D0036C40F2016445
:10217000A34343F48073036453685B0505D5036C84
:1021800023F4005343F480530364036CDB0404D54D
:10219000436C23F00603436400E0416480F83C1084
:1021A00016496FF02203136049680068CA06144993
:1021B00006D088421BD1816811F0405F13D016E031
:1021C0008842F8D00F4A904203D1D1F80423D206B6
:1021D000F1D00D4A90420AD1D1F8041301F01F0149
:1021E0001029E8D303E0816841F08041816000203C
:1021F00018BD00001C00001040420F0000230140E9
:10220000002001400021014000220140F8B50E46A7
:1022100000210446009190F83C00012807D00120DD
:1022200084F83C0020688368DB0702D011E00220BC
:10223000F8BD836843F0010383603748374B00687B
:10224000B0FBF3F000EB400000E0401E00900028DF
:10225000FBD120688368DB075CD0236C40F201650A
:10226000AB4343F4807323644068400505D5206C7C
:1022700020F4005040F480502064206CC00404D549
:10228000606C20F00600606400E0616484F83C103B
:10229000A16B2448224DC863A16B23480864A16B3D
:1022A0002248C86421686FF02200086020684168F5
:1022B00041F0806141602068816841F480718160F3
:1022C0002168134632464C31A06B00F0F7F968687C
:1022D0001749C006206806D088421BD1816811F0DA
:1022E000405F13D016E08842F8D0124A904203D1E2
:1022F000D1F80423D206F1D00F4A90420AD1D1F886
:10230000041301F01F011029E8D303E0816841F0B4
:10231000804181600020F8BD1C00001040420F0089
:102320000023014029150008AD1500089715000885
:1023300000200140002101400022014010B5044668
:10234000002094F83C1001290CD0012184F83C10A5
:1023500021688A6822F001028A6021688A68D207AF
:1023600002D013E0022010BD886820F480708860DD
:10237000A06B00F00FF821684A6822F080624A6082
:10238000216C21F4885141F001012164002184F87D
:102390003C1010BD2DE9F0410446876D00F0E4FAD1
:1023A000064694F835000025022806D08020606596
:1023B00084F834500120BDE8F0812068016821F0E4
:1023C000160101602068416921F080014161206CA3
:1023D00008B9A06C20B12068016821F008010160F3
:1023E0002068016821F0010101600BE000F0BCFAF7
:1023F000801B052806D92020606504F8345F03207F
:102400006070D8E720680068C007EFD194F85C10CE
:102410003F208840B86004F8345F012060700020DD
:10242000C9E790F83510022903D0802141650120C9
:102430007047052180F835100068016821F001011E
:1024400001600020704700002DE9F84304464FF07A
:102450000009CDF8009063484FF41651A56D00684F
:10246000B0FBF1F72E6894F85C10082000FA01F137
:1024700031420FD021680A6852070BD50A6822F052
:1024800004020A6094F85C108840A860606D40F017
:102490000100606594F85C104FF0010808FA01F043
:1024A000304208D021684969090604D5A860606DEA
:1024B00040F00200606594F85C10042088403042CF
:1024C00008D021680968890704D5A860606D40F0CC
:1024D0000400606594F85C1010208840304218D0E9
:1024E00021680968090714D5A860206801684903B4
:1024F00004D50068000308D5A16C07E00168C90590
:1025000003D4016821F008010160216C09B1204663
:10251000884794F85C1020208840304231D02168F0
:102520000968C9062DD5A86094F8350005282068EB
:10253000016806D0490347D5006800031DD4616CCB
:102540001CE021F0160101602068416921F0800142
:102550004161206C08B9A06C20B12068016821F0AD
:102560000801016094F85C103F208840A86084F85E
:10257000349084F83580216D1FE0E16B09B120466D
:102580008847606D00282BD0606DC00714D00520EF
:1025900084F835002068016821F00101016000988D
:1025A000401C0090B84203D820680068C007F6D1EC
:1025B00084F8349084F83580E16C002910D001B0A3
:1025C0002046BDE8F04308470168C905D5D4016835
:1025D00021F01001016084F8349084F83580CCE754
:1025E000BDE8F8831C0000102DE9F041044600F01E
:1025F000BBF906465CB1002584F83450022084F80B
:1026000035002068016821F0010101600DE0012022
:10261000BDE8F08100F0A8F9801B052805D920202D
:102620006065032084F83500F2E720680068C00781
:10263000F0D12268116820480140D4E90103184311
:10264000D4E903363343184363691843A369184335
:10265000E3691843236A18430843616A042903D1D4
:10266000D4E90B1319430843106020684069666A77
:1026700020F0070130460E43012704280CD1A06A40
:102680000643E06A40B12046FFF7CEF920B1402072
:10269000606584F83570BAE7206846612046FFF728
:1026A000AFF994F85C203F2191408160656584F822
:1026B00035700020ACE700003F8010F02DE9F041BC
:1026C0000446866D90F83400002501280DD00120C5
:1026D00084F8340094F835700020012F07D084F876
:1026E000340002252846BDE8F0810220FBE70227DE
:1026F00084F8357060652046FFF7C0F994F85C10E7
:102700003F208840B0602068016841F016010160F8
:10271000206C20B12068016841F008010160206848
:10272000016841F001010160DCE7000070B504467A
:1027300000F01AF90546601C02D0044800780444F1
:1027400000F012F9401BA042FAD370BD1000001037
:1027500010B50C4B0C4C082809D0042806D10122D6
:102760004021184600F0FAF80120606010BD0122F7
:102770004021184600F0F2F80A2002F061F900202A
:10278000F3E700000004024004000010044910B503
:102790000A68024202D00860FFF7DAFF10BD0000AD
:1027A000143C01402DE9F84F00224FF001080325A9
:1027B0004FF00F0E0B6808FA02F42340A3426ED1CB
:1027C0004E68012E05D0022E03D0112E01D0122EFC
:1027D00012D186684FEA420C05FA0CF7BE43CF6867
:1027E00007FA0CF7374387604668A6430C79C4F3B1
:1027F0000014944034434460C668570005FA07FC4F
:102800008C6826EA0C06BC403443C4604C68022C39
:1028100001D0122C13D1D40800EB8404A346D4F8C1
:10282000209054074FEAD46A0EFA0AF629EA0609FC
:102830000E6906FA0AF646EA0906CBF82060066831
:102840000C7926EA0C0604F00304BC40344304600F
:102850004C68E40065D5364C266846F48046266010
:10286000246822F0030604F480440094314C34447C
:10287000A446D4F808489607370F0EFA07F6B44373
:102880002D4EB04201D1002624E02C4EB04201D1A1
:1028900001261FE02A4EB04202D102261AE040E093
:1028A000284EB04201D1032614E0274EB04201D198
:1028B00004260FE0254EB04201D105260AE0244E41
:1028C000B04201D1062605E0224EB04201D10726D2
:1028D00000E00826BE402643CCF808681E4E346847
:1028E0004F689C43FF0300D51C4334601A4C241DE1
:1028F00026684F689E43BF0300D51E432660164ED0
:10290000083634684F689C43FF0200D51C4334608E
:10291000114E0C3634684F689C43BF0200D51C43EF
:102920003460521C102AFFF445AFBDE8F88F000058
:1029300044380240003001400000024000040240E0
:1029400000080240000C0240001002400014024047
:1029500000180240001C0240003C01400AB18161A5
:1029600070470904FBE700000148806870470000D9
:10297000100000100248816802781144816070479D
:10298000100000100B4810B5016841F4007101609F
:10299000016841F480610160016841F48071016067
:1029A000032000F06FF8002000F006F800F024F893
:1029B000002010BD003C024070B50D4D04464FF4A0
:1029C0007A712878B1FBF0F00A490968B1FBF0F0A0
:1029D00000F010FB48B9102C07D200222146501EEF
:1029E00000F030F800206C6070BD012070BD000068
:1029F000100000101C0000100A4808B5016841F4DE
:102A000080410160006800F4804000900548001F8C
:102A1000016841F080510160006800F08050009032
:102A200008BD000044380240002809DB00F01F0206
:102A3000012191404009800000F1E020C0F8001120
:102A400070470000F0B40E4B1B680C46C3F3022322
:102A5000C3F10705042D00D90425191D072901D24A
:102A6000002300E0DB1E012606FA05F1491E214085
:102A700099409E40761E16403143F0BC01F058BB91
:102A80000CED00E0064900F0070208684FF6FF036E
:102A9000184040EA0220034A1043086070470000D3
:102AA0000CED00E00000FA052DE9F0470E460500A8
:102AB00065D0DFF81481D8F80000F7B200F00F00FD
:102AC000B04207D288F80070D8F8000000F00F007C
:102AD000B04254D128683D4C810712D5400703D538
:102AE000206840F4E05020602878000703D5206873
:102AF00040F4604020602068A96820F0F00008439E
:102B000020602878C0072DD030496868083901282E
:102B100012D0022813D0032811D009688907002990
:102B20002DDA216821F0030101432160FFF71CFF2A
:102B3000814641F2883A0EE009688903EFE70968A7
:102B40008901ECE7FFF710FFA0EB0901514502D91D
:102B50000320BDE8F0872068696800F00C00B0EB46
:102B6000810FEFD1D8F80010404601F00F01B142BB
:102B700007D90770006800F00F00B04201D00120B3
:102B8000E7E72878400705D52068E96820F4E05099
:102B9000084320602878000706D52068296920F4BA
:102BA000604040EAC100206000F038F82168084A1F
:102BB000C1F30311515CC84006490860064800682B
:102BC000FFF7FAFE0020C4E7003C0240083802404C
:102BD000C45400081C0000101400001004480549EB
:102BE00000680968044AC1F38221515CC8407047FB
:102BF0001C00001008380240D4540008044805495D
:102C000000680968044AC1F34231515CC84070470A
:102C10001C00001008380240D4540008154810B5B4
:102C2000006810F00C02144813D01449042A0FD085
:102C3000082A0ED10F4C241F2268236802F03F029D
:102C40005B0207D52068C0F38810A0FB010106E0F5
:102C5000084610BD2168C1F38811A1FB00010023C3
:102C6000FEF78CF92168C1F30141491C4900B0FB12
:102C7000F1F010BD083802400024F40040787D01D6
:102C80002DE9F84F04006ED02078DFF83C93C007A0
:102C9000A9F104054AD009F104000168C1F38101DA
:102CA000012908D00068C0F3810002280AD1D9F8B0
:102CB0000000400206D52868800337D560680028E8
:102CC000E1D033E06068B0F5803F10D0B0F5A02FC0
:102CD000286810D020F480302860286820F48020F4
:102CE00028606068A8B1FFF73FFE06460DE028683F
:102CF00040F48030F4E740F480202860F7E700BF1C
:102D0000FFF732FE801B642873D828688003F7D54C
:102D10000CE0FFF729FE064605E000BFFFF724FEA2
:102D2000801B6428F0D828688003F7D42078DFF867
:102D30009C8280074FF0000A3ED5A348001D016821
:102D400011F00C0F08D00068C0F3810002280BD1ED
:102D5000D9F80000400207D42868800716D5E0683B
:102D6000012800D112E02BE1E068B8B10120C8F8D9
:102D70000000FFF7F9FD064605E000BFFFF7F4FD90
:102D8000801B0228C0D828688007F7D528682169E9
:102D900020F0F80040EAC10028600DE0C8F800A06B
:102DA000FFF7E2FD064604E0FFF7DEFD801B022888
:102DB0001FD828688007F7D42078000722D5824ED4
:102DC00083486169703671B101210160FFF7CCFD64
:102DD000074604E0FFF7C8FDC01B022809D8306889
:102DE0008007F7D50EE0C0F800A0FFF7BDFD07464D
:102DF00005E082E0FFF7B8FDC01B02287DD83068EF
:102E00008007F7D42078400768D5DFF8BCB10027E9
:102E10000BF13C0BDBF80000C0000BD4DBF800101A
:102E200041F08051CBF80010DBF80000012700F0E2
:102E300080500090674E3068C00510D4306840F470
:102E400080703060FFF790FD009005E0FFF78CFD8B
:102E50000099401A022850D83068C005F6D55A4E5D
:102E6000A0686C3601280FD00528306810D020F0FB
:102E700001003060306820F004003060A068B8B114
:102E8000FFF772FD00900FE0306840F00100F4E7BA
:102E900040F004003060F7E7FFF766FD0099411A43
:102EA00041F28830814266D830688007F4D50EE060
:102EB000FFF75AFD009007E0FFF756FD0099411A11
:102EC00041F28830814256D830688007F4D42FB15F
:102ED000DBF8001021F08051CBF80010A069C8B3D6
:102EE0003949091D0968C1F3810102294AD0022824
:102EF000504607D0C8F8600000E03CE0FFF734FD22
:102F000004463BE04746C8F86000FFF72DFD064643
:102F100005E000BFFFF728FD801B02282BD828689A
:102F20008001F7D4D4E907010843A16A2A4A490875
:102F300002EB0141626A41EA8211084394F82C10C5
:102F400040EA0161C9F8001001203866FFF70CFD66
:102F5000044606E036E000BFFFF706FD001B02282E
:102F600009D828688001F7D52CE000BFFFF7FCFCEA
:102F7000001B022802D90320BDE8F88F28688001D1
:102F8000F4D41FE00128F7D0D9F80000E26900F47A
:102F90008001914214D1226A00F03F0191420FD189
:102FA00047F6C071626A0140914209D1A26A00F4F9
:102FB0004031914204D1E16A00F07060884201D052
:102FC0000120D9E70020D7E704380240000047423B
:102FD000800E4742007000400000FFFF4FF0E021EC
:102FE0000428086903D020F004000861704740F00D
:102FF0000400FAE710B5401EB0F1807F01D3012034
:1030000010BD4FF0E02460610F21601701F090F8CF
:103010000020A06107202061002010BD70B590F84D
:103020003C20012A32D0012480F83C40022280F862
:103030003D2003685A689D6822F070060A68324392
:103040005A60134B02689A4214D0B2F1804F11D0EB
:10305000104B9A420ED0104B9A420BD00F4B9A4213
:1030600008D00F4B9A4205D00E4B9A4202D00E4B1D
:103070009A4204D1496825F080031943916080F891
:103080003D40002180F83C10084670BD022070BD14
:10309000000001400004004000080040000C004017
:1030A00000040140004001400018004010B5040039
:1030B00003D094F83D0010B107E0012010BD0020BE
:1030C00084F83C00204600F00DF8022084F83D0012
:1030D000211D206800F01EFE012084F83D00002024
:1030E00010BD000008B500680649884208D10648AE
:1030F000016841F002010160006800F002000090E8
:1031000008BD00000004004040380240022180F861
:103110003D1001688A6802F00702062A03D00A6897
:1031200042F001020A60012180F83D100020704742
:1031300070B5044690F83C00012817D0012584F8AA
:103140003C50022084F83D002068826822F077021B
:1031500022F47F4282600868502830D00DDC20289D
:103160004DD005DC98B310283BD148E0022070BD5B
:10317000302844D0402834D139E0602828D0702845
:1031800006D0B0F5805F2CD0B0F5005F29D10AE001
:10319000CB68D1E90121206800F020FE2068816819
:1031A00041F0770109E0CB68D1E90121206800F006
:1031B00015FE2068816841F48041816011E0CA6891
:1031C0004968206800F01CFE5021206807E016E0E6
:1031D000CA684968206800F024FE6021206800F079
:1031E00007FE84F83D50002084F83C0070BDCA689A
:1031F0004968206800F004FE40212068EFE722685B
:1032000001461046EBE7704770B502680446106847
:10321000D168536910F00F0F52D003F0010501F48B
:1032200090762E435FD0C20705D0CA0503D5E26B66
:1032300042F00102E263420705D5DA0703D0E26BF0
:1032400042F00202E263820705D5DA0703D0E26B9F
:1032500042F00402E263020707D501F020022A438C
:1032600003D0E26B42F00802E263E26B002A33D043
:10327000800604D5880602D5204600F0FAFD2068B5
:103280004069E16BC0F38010090700D428B32046E1
:1032900000F0E1FD2068416949061AD5416921F035
:1032A00040014161606BA0B11B490165606BFFF794
:1032B000B8F8002810D0606B016DBDE87040084779
:1032C000830610D58B060ED52046BDE8704000F071
:1032D000D0BD2046FFF797FF70BD2046FFF793FF54
:1032E0000020E06370BD030606D50B0604D520461A
:1032F000BDE8704000F09CBE4006F3D54806F1D50D
:10330000D168204621F04001D160202184F8391095
:1033100000F0D2F870BD0000473E000870B5040010
:1033200004D094F83900002510B106E0012070BDEA
:1033300084F83850204600F023F8242084F839001F
:103340002068C16821F40051C160204600F0DCFD16
:103350002068016921F4904101612068416921F0F0
:103360002A0141612068C16841F40051C160E563F0
:10337000202084F8390084F83A00002070BD000055
:1033800010B586B0044614216846FDF72FFE184993
:103390002068884229D117480021026842F01002B3
:1033A0000260006800F010000590124814380268AE
:1033B00042F001020260006800F0010005904FF445
:1033C000C06000900220CDE9010103200390072096
:1033D000049069460848FFF7E5F9002211462520C8
:1033E000FFF730FB2520FFF71FFB06B010BD0000E4
:1033F00000100140443802400000024070472DE9AF
:10340000F843044690F839001F4616460D4620281A
:1034100050D1B5B1AEB194F8380001284AD001209E
:1034200084F838004FF00008C4F83C80212084F86C
:103430003900FFF799FAA6848146E68484F838803B
:1034400026E00120BDE8F883E08C401EE084A068FF
:103450004B46B0F5805F4FF000024FF080012046F0
:10346000009703D000F015FEE8B90DE000F011FE62
:10347000C8B928882168C0F308004860206908B1ED
:103480006D1C05E0AD1C03E0216815F8010B4860D8
:10349000E08C0028D8D14B460022402120460097DE
:1034A00000F0F7FD08B10320CCE7202084F83900B4
:1034B0000020C7E70220C5E77047FEE770B5134C50
:1034C000012280212046FFF749FA4FF4FA75284679
:1034D000FFF72CF90122560231462046FFF73EFA4B
:1034E0002846FFF723F9002280212046FFF736FA0D
:1034F0002846FFF71BF9002231462046FFF72EFA37
:103500002846BDE87040FFF711B9000000040240F2
:103510007FB5002515480095019502951249039540
:10352000016001244FF480310461C0E90115057682
:1035300080F820500903C162C5604910C4618162EE
:1035400080F830404461FEF774FD08B1FEF79EFC40
:1035500004208DE8310069460448FEF7C1FC0028CC
:1035600001D0FEF793FC7FBD002001402000001039
:10357000094808B5016841F4800101600068002233
:1035800000F48000009011463820FFF75BFABDE898
:1035900008403820FFF748BA303802402DE9F04F94
:1035A00087B014216846FDF721FD8B48002401688F
:1035B00041F010010160016801F0100105910168FE
:1035C00041F004010160016801F004010591016806
:1035D00041F020010160016801F0200105910168BE
:1035E00041F080010160016801F0800105910168EE
:1035F00041F001010160016801F0010105910168DC
:1036000041F002010160016801F0020105910168C9
:1036100041F040010160016801F04001059101683D
:1036200041F0080101600068DFF8B0A100F0080077
:103630000590002241F2A8215046FFF78FF90022A1
:103640004FF421716648FFF789F94FF400490022D1
:1036500049466448FFF782F900224FF4A0516248BE
:10366000FFF77CF9DFF884B100223C215846FFF7D0
:1036700075F9002202215E48FFF770F94FF6FD70E0
:103680000326CDE90006694602945948FFF78AF8F7
:1036900042F6FA30CDE90006694602945248FFF737
:1036A00081F84EF65750CDE900066946029450461F
:1036B000FFF778F84FF42A7000900125CDE9015406
:1036C000694650460394FFF76DF80520009049487D
:1036D000CDE9010469464448FFF764F841F6EF106C
:1036E000CDE90006694602943E48FFF75BF84FF6C5
:1036F0007B50CDE90006694602943948FFF752F83D
:103700000420022703948DE8A10069463448FFF79E
:1037100049F84FF48058CDE90274CDE90085694637
:103720005046FFF73FF84FF6FF70CDE900066946B7
:1037300002943148FFF736F84FF6C370CDE9000622
:10374000694602945846FFF72DF8CDE90274CDE999
:10375000009569462348FFF725F8A80203948DE8F1
:10376000A10069462048FFF71DF8CDF80080CDE99B
:10377000015469461C480394FFF714F83C2000905C
:10378000CDE90154694658460394FFF70BF84FF40E
:1037900020700090CDE90154694611480394FFF769
:1037A00001F80097CDE90154694611480394FEF7EA
:1037B000F9FF002211460620FFF744F90620FFF723
:1037C00033F9002211460820FFF73CF90820FFF7E3
:1037D0002BF907B0BDE8F08F3038024000140240EA
:1037E000000402400000024000080240000C0240B9
:1037F00000100240000011100018024010B586B001
:1038000000241748009401940294039404941349EB
:103810000594C0E9001440F60221C0E9024180216C
:1038200004618161FFF742FC08B1FEF72FFB4FF402
:103830008050009069460A48FFF77AFC08B1FEF70D
:1038400025FB2020CDE9040404A90548FFF7E6FB89
:10385000002801D0FEF71AFB06B010BD000400409E
:10386000C80000100C4810B50A4901604FF4E1315E
:103870004160002181600C22C160C0E904128161B5
:10388000C161FFF74BFD002803D0BDE81040FEF7F3
:10389000FDBA10BD0010014008010010FEE770479E
:1038A00070B5002404F1B000C0B2002100F06CF942
:1038B0000021022000F068F90021102000F064F9D6
:1038C00000250121002000F05FF96D1CEDB2802D74
:1038D000F7D3641CE4B2082CE4D370BD2DE9F041A9
:1038E000DFF8A08186B0002220214046FFF736F89D
:1038F0001420FEF71BFF012220214046FFF72EF87F
:103900006148016841F0010101600068012400F094
:10391000010005904FF40076CDE900640225694668
:103920004046CDE90245FEF73DFF8020CDE9000489
:1039300069464046CDE90245FEF734FFCDE9005423
:10394000524F69463846CDE90245FEF72BFF082065
:10395000CDE9000469464046CDE90245FEF722FF65
:10396000012231464046FEF7F9FF01228021404600
:10397000FEF7F4FF012202213846FEF7EFFF012295
:1039800008214046FEF7EAFF0021AE2000F0FCF8D7
:103990000021022000F0F8F80021102000F0F4F8D7
:1039A0000021402000F0F0F80021812000F0ECF828
:1039B0000021CF2000F0E8F80021A12000F0E4F879
:1039C0000021C82000F0E0F80021A62000F0DCF87B
:1039D0000021A82000F0D8F800213F2000F0D4F802
:1039E0000021D32000F0D0F80021084600F0CCF8E8
:1039F0000021D52000F0C8F80021802000F0C4F894
:103A00000021D92000F0C0F80021F12000F0BCF81E
:103A10000021DA2000F0B8F80021122000F0B4F8FC
:103A20000021DB2000F0B0F80021402000F0ACF8CD
:103A30000021202000F0A8F80021022000F0A4F8C6
:103A400000218D2000F0A0F80021142000F09CF847
:103A50000021A42000F098F80021A62000F094F89E
:103A60000021AF2000F090F80021AF2000F08CF88A
:103A7000FFF716FF0021084600F00AF806B0BDE87F
:103A8000F081000000140240303802400010024073
:103A900010B50446B031C8B2002100F075F810200E
:103AA00040EA1410002100F06FF804F00F00BDE8A8
:103AB000104040F00100002100F066B82DE9F0410F
:103AC000203A00240D468046D7B27F2803D9002033
:103AD0008D1C8046EDB22946FFF7DAFF0F4E00BF7E
:103AE00004EB07100121305C00F04EF8641CE4B2D6
:103AF000082CF5D36D1CE9B24046FFF7C9FF00243E
:103B000004EB071030440121007A00F03DF8641CFA
:103B1000E4B2082CF4D3BDE8F08100008C4D00081D
:103B20002DE9F0411F4690460E46044600250DE063
:103B300018F8052031462046FFF7C0FF0834E4B2EC
:103B4000782C02D90024B61CF6B26D1CBD42EFDB06
:103B5000BDE8F0812DE9F04117460E4604460025E8
:103B60000CE031462046FFF7A9FF0834E4B2782C78
:103B700002D90024B61CF6B26D1CEDB27A5D002AA3
:103B8000EFD1BDE8F08100002DE9F0411B4E054664
:103B900009B1012200E0002280213046FEF7DEFE5E
:103BA0004FF40078002241463046FEF7D7FE144F0E
:103BB0000024002202213846FEF7D0FE280601D557
:103BC000012200E0002208213046FEF7C7FE012254
:103BD00002213846FEF7C2FE6806641C050EE4B2F8
:103BE000082CE6D3012241463046FEF7B7FE3046A8
:103BF000BDE8F04101228021FEF7B0BE0014024072
:103C0000001002400FB410B5C0B004460021684651
:103C100020224254491CFF29FBDD04EB8400402193
:103C200044AAB1EB800F00D200246846439900F00B
:103C30006BFA83B204EB84008006010E6A46002012
:103C4000FFF76EFF40B010BC5DF814FB10B5FFF736
:103C500027FE0021BDE8104001A20846FFF77ABF09
:103C6000595A30303132000070477047FEF782BE3B
:103C700030B593B030216846FDF7B8F914210CA88F
:103C8000FDF7B4F91A480025016841F08051016040
:103C9000006800F0805011901648016841F480419E
:103CA00001600068022400F480401190012000901F
:103CB000000401908001CDE90640192008904FF4DE
:103CC000A870CDE9090404200B906846FEF7D8FFE0
:103CD0000CA90F2081E831004FF4A0500F90E002B2
:103CE000109005210CA8FEF7DFFE13B030BD0000D8
:103CF00040380240007000400548016841F47001FE
:103D0000016003494FF0006080390860704700008F
:103D100088ED00E0F0B50268254C264D264E274F71
:103D2000274B4FF0804CA04209D0604507D0A842F5
:103D300005D0B04203D0B84201D0984204D122F05D
:103D4000700E4A6842EA0E02A0421BD0604519D0AC
:103D5000A84217D0B04215D0B84213D0984211D023
:103D6000184DA8420ED0184DA8420BD0174DA842AE
:103D700008D0174DA84205D0164DA84202D0164DC6
:103D8000A84203D122F44075CA682A434D6922F043
:103D900080022A4302608A68C2620A688262A04284
:103DA00001D0984201D10969016301214161F0BD4F
:103DB000000001400004004000080040000C0040EA
:103DC000000401400040014000440140004801401F
:103DD00000180040001C00400020004010B584681E
:103DE00042EA032224F47F440A432243826010BD46
:103DF000826822F070020A4342F007018160704736
:103E000010B5036A046A24F001040462846924F092
:103E1000F00444EA021423F00A020A4384610262B5
:103E200010BD10B5036A23F0100303628369046AAE
:103E300023F4704343EA023224F0A00343EA011161
:103E40008261016210BD10B5806B0021C185C18403
:103E5000FFF7D9F910BD0168CA6822F49072CA60F0
:103E600001684A6922F001024A61202180F83A1073
:103E7000704710B590F83A10222901D0022010BDE9
:103E80008168B1F5805F11D00169002901681FD0F8
:103E9000496801F07F03816A4A1C82620B70C18D00
:103EA000491E0904090CC18518D02BE00269816AFA
:103EB000002A0268526805D0D2B20A80816A491C81
:103EC0008162ECE7C2F308020A80816A891CF7E785
:103ED0004A68816A4B1C83620A70E0E70168CA681D
:103EE00022F02002CA600168CA6822F48072CA60A7
:103EF00001684A6922F001024A61202180F83A10E3
:103F0000FFF77CFA002010BD2DE9F041044600685F
:103F10000169E26821F44051114301612169A068FF
:103F2000E26908436169114308432168CA6849F29C
:103F30000C639A430243CA6020684169A26921F474
:103F4000407111434161E069192764253226B0F5BB
:103F5000004F354A354920684FF0000806D08842A6
:103F600001D0904236D1FEF749FE35E0884201D0BB
:103F7000904202D1FEF742FE01E0FEF72FFE61689B
:103F80004A18A0FB070148EB0803FCF7F7FF0146BE
:103F9000B0FBF5F00201B1FBF5F06FF018035843E8
:103FA00001EB800006EBC000B0FBF5F000F0F8007C
:103FB00002EB4002B1FBF5F0584301EB800006EB49
:103FC000C000B0FBF5F000F00700216810448860E5
:103FD000BDE8F081FEF702FE61688B0F8A00A0FB4E
:103FE0000701FCF7CBFF0146B0FBF5F06FF01802BC
:103FF000504301EB800006EB0010B0FBF5F000F041
:10400000F002B1FBF5F002EB0012B1FBF5F06FF03E
:104010001803584301EB800006EB0010B0FBF5F0ED
:1040200000F00F00D1E70000001401400010014033
:1040300090F83910212901D0022070478168B1F52C
:10404000805F016A0BD04A1C0262026809785160E5
:10405000C18C491E0904090CC1840ED017E00988DF
:104060000268C1F30801516001690029016A02D0A8
:10407000491C0162ECE7891CFBE70168CA6822F071
:104080008002CA600068C16841F04001C160002040
:1040900070472DE9F041984617460E460446069DA6
:1040A0001DE0681C1BD02DB1FEF75EFCA0EB0800E4
:1040B000A84214D92068C16821F4D071C160206879
:1040C000416921F001014161202084F8390084F820
:1040D0003A00002084F838000320BDE8F081206811
:1040E000006836EA000004D00020B842D9D0002091
:1040F000F3E70120F9E700000148FFF785B8000069
:1041000008010010FEE700000FB4084B10B504A929
:1041100002AA039800F0EEF8044602A9002000F07D
:1041200080FC204610BC5DF814FB0000234A000808
:104130000907090E002804DB00F1E02080F80014D4
:10414000704700F00F0000F1E02080F8141D704768
:1041500002E008C8121F08C1002AFAD17047704750
:10416000002001E001C1121F002AFBD170470000AE
:104170002DE9FF5F82B00021DDE90430020DDDF89A
:1041800040B0034318D044F61050A2F2FF3242432D
:104190001514119801281FD0A5EB0B00401C5FEAF5
:1041A000000A4FF000064E4FDFF83891B0465046F7
:1041B00015D5CAF1000413E0119801244AA301287F
:1041C00001D16FEA0B010298119AC0E90031C0E9F0
:1041D000024206B0BDE8F09FCBF10000DFE70446E5
:1041E0000021404A491842EB0450CDE9001012E08A
:1041F000E00707D032463B4640464946FCF701FF00
:104200008046894632463B4610461946FCF7F9FE81
:1042100006460F466410002CEAD1DDE90401DDE911
:104220000023BAF1000F06DAFCF7EBFE42464B46DC
:10423000FCF7E7FE05E0FCF756FF42464B46FCF76D
:1042400052FF04460E460022284BFCF7DFFF03D83E
:104250004FF0FF30014607E00022254B2046314653
:10426000FDF77EF8FDF723F9102409E0002C0ADBA6
:104270000A220023FCF782FE039B30321A55641E8B
:1042800050EA0102F2D1641C039AC4F111031444F0
:10429000119A012A03D0012208430DD10AE00843F4
:1042A00004D000204FF0110B119072E7A3EB0B0527
:1042B0006D1E0DE05B4504DD4FF0000205F10105C8
:1042C00004E003DA4FF00002A5F10105002AECD06A
:1042D00002981199C0E90231C0E9004579E7000070
:1042E000000014400000F03F300000000000F043E8
:1042F0000000E03F2DE9FF4F95B09B4689460646FA
:1043000000250FE2252877D100242746F84A01210D
:10431000059400E0044316F8013F203B01FA03F046
:104320001042F7D130782A2811D06FF02F0330785F
:10433000A0F13002092A16D8059A44F0020402EBD3
:10434000820203EB42021044761C0590EFE759F815
:10435000042B0592002A03DA504244F400540590DD
:1043600044F00204761C30782E2816D116F8010F7E
:1043700044F004042A280DD06FF02F023078A0F109
:104380003003092B09D807EB870302EB4303C71857
:10439000761CF3E759F8047B761C30786C280FD034
:1043A00006DC4C2817D068280DD06A2814D104E008
:1043B000742810D07A280FD10DE044F400140AE0DC
:1043C00044F4801401E044F440147278824202D133
:1043D00004F58014761C761C307866280BD013DC2C
:1043E000582877D009DC002875D04528F6D0462813
:1043F000F4D047281AD19DE118E0632835D064280D
:1044000079D0652812D195E1702873D008DC67282F
:10441000F1D069286FD06E280DD06F2806D1B5E095
:1044200073282CD0752875D0782874D05A461799DF
:1044300090476D1C75E1C4F30250022809D003288F
:104440000DD0D9F8001004280DD00D6009F1040931
:1044500067E1D9F80010EA17C1E90052F6E7D9F888
:1044600000100D80F2E70D70F0E719F8041B8DF8CD
:10447000001000208DF80100EA46012003E059F801
:1044800004AB4FF0FF3061074FF0000102D40DE0A4
:1044900008F101018846B9420FDA8045F8DB1AF8C5
:1044A00008100029F4D108E008F101018846814292
:1044B000FADB1AF808100029F6D105985B46A0EB44
:1044C000080721463846179A00F094FA284400EB72
:1044D000080507E04DE029E10DE01AF8010B5A4606
:1044E00017999047B8F10108F7D25B462146384644
:1044F000179A13E142E00A220092C4F302524FF0ED
:10450000000A022A08D059F804CB032A4FEAEC71BA
:104510000AD00DE029E02AE009F1070121F00702A5
:10452000F2E802C1914609E00FFA8CFC4FEAEC7107
:10453000042A03D14FFA8CFC4FEAEC71002907DA08
:104540000A460021DCF1000C61EB02012D2202E0A1
:10455000220504D52B228DF80420012203E0E20776
:1045600001D02022F7E7904659E00A2102E010220C
:104570000DE010214FF0000A00910BE010224FF0E7
:10458000000A44F004040827009203E008224FF0D8
:10459000000A0092C4F30252022A05D059F804CB53
:1045A0000021032A08D009E009F1070121F00702E0
:1045B000F2E802C1914605E01FFA8CFC042A01D101
:1045C0000CF0FF0C4FF00008220728D5702806D009
:1045D000009B83F0100353EA0A0305D00EE040224B
:1045E0008DF80420012208E05CEA010206D03022A6
:1045F0008DF804208DF8050002229046009B83F080
:10460000080353EA0A030AD15CEA010201D16207F6
:1046100005D530228DF804204FF001087F1E582860
:1046200004D034A003900EA802900DE036A0F9E764
:1046300053466046009AFCF7A1FC84460398825CCE
:104640000298401E029002705CEA0100F0D10298CC
:1046500006A9081A00F1200A600702D524F4803464
:1046600000E00127574502DDA7EB0A0000E000202B
:1046700000EB0A01009005984144401A0590E003C0
:1046800006D45B462146179A059800F0B3F9054415
:10469000002706E001A85A46C05D179990476D1C97
:1046A0007F1C4745F6DBE0030CD55B462146179A95
:1046B000059800F09FF9054404E030205A46179908
:1046C00090476D1C0099481E00900029F5DC08E019
:1046D000029802995A460078491C0291179990470E
:1046E0006D1CBAF10001AAF1010AF1DC65E10000DC
:1046F00009280100303132333435363738396162B8
:10470000636465660000000030313233343536377B
:1047100038394142434445460000000000F058F952
:104720000544761C307800287FF4ECAD19B028469B
:10473000BDE8F08F620700D4062709F1070222F0D6
:10474000070CFCE80223E14603F000485FEA080C8E
:1047500002D00FF2702C0DE05FEA045C02D50FF27C
:10476000682C07E05FEAC47C02D00FF2602C01E005
:10477000AFF2700C4FF0FF3823F00043CDF850C07B
:1047800065280CD006DC452809D046281DD04728CE
:104790003DD13DE0662818D067287ED138E0002161
:1047A000112F01DB112000E0781CCDE9000106A9E2
:1047B0000EA8FFF7DDFCDDE90F010E9A0391002141
:1047C000009207F1010A04914DE04FF0004000977C
:1047D000CDE9011006A90EA8FFF7CAFCDDE90F021A
:1047E00003920E9B11990022DDF80CA00093049215
:1047F00011B9791C00EB010AB7EB0A0004D4C0F12F
:10480000FF3007F1010A0490AAEB0700019044E091
:10481000012F00DA01270021112F01DD112000E016
:104820003846CDE9000106A90EA8FFF7A1FCDDE995
:104830000F010E9A0391002104910092BA462107BC
:104840000CD40399514500DA8A46BAF1010F05DD0F
:10485000009AAAF10101515C302908D0B84202DA6D
:1048600010F1040F06DA0121CDE9011015E0AAF1DB
:104870000101E9E7002805DC049901440491AAEB51
:10488000000102E0411C514500DD8A460499401AAE
:10489000401C01904FF000400290200704D4019882
:1048A000504501DBCDF8048000208DF84F000298C0
:1048B0000DF14F07B0F1004F25D02B200E9002983C
:1048C0004FF0020800280CDA404202902D200E9092
:1048D00007E00A210298FCF7B1FC3031029007F89A
:1048E000011DB8F10001A8F10108F2DC02980028CE
:1048F000EFD1791E0E980870307800F0200040F05B
:10490000450007F8020D12A8C01B00F10708149813
:10491000007800B1012000EB0A01019801EBE07181
:1049200005984144401A401E0590E00306D45B46BA
:104930002146179A059800F05DF805441498007810
:1049400018B15A46179990476D1CE00324D55B4671
:104950002146179A059800F04DF805441CE004988C
:10496000002807DBDDE90301884203DD0098405C95
:10497000179901E0179930205A469047049805F19D
:104980000105401C04900198401E019004D12E2086
:104990005A46179990476D1CBAF10001AAF1010A15
:1049A000DDDC05E017F8010B5A46179990476D1C9E
:1049B000B8F10001A8F10108F4DC5B462146179A22
:1049C0000598ABE62D0000002B0000002000000041
:1049D0002DE9F041044600251E461746880404D4FC
:1049E00005E039462020B0476D1C641EF9D52846E5
:1049F000BDE8F0812DE9F041044600251E469046B1
:104A0000C80301D5302700E02027880404D505E03D
:104A100041463846B0476D1C641EF9D52846BDE8AE
:104A2000F0810A68531C0B601070704710B5044683
:104A30000420FEF7D3FA0148046010BD0000001006
:104A400070B5054600244FF47A7603E0304600F056
:104A500005F8641CAC42F9D370BD000070B54FF08E
:104A6000E024002265690949A36909684843A169EE
:104A70009942FCD002D2A3EB010302E0A5EB0106B0
:104A800033441A440B468242F1D370BD000000103B
:104A90008AB0FDF777FFFFF7EBF8FEF77FFDFEF733
:104AA00067FDFEF735FDFEF7DDFEFEF7A7FEFEF71C
:104AB00005FDFEF713FFDFF87CB24FF4805A0022A9
:104AC000544651465D465846FDF748FF4FF4FA7686
:104AD0003046FDF72BFE012221462846FDF73EFF1A
:104AE0004820FFF7A3FF94A10020FFF78BF8FFF702
:104AF000ADF89548FEF70AFB9448FDF711FBFDF76A
:104B000055F8FDF705F84820FFF790FF3046FDF710
:104B10000DFEDFF83C9200266F464FF001080020A2
:104B200000960196029606A9202503960D54401C76
:104B30000C28FBDBFEF7B4FE002186A20846FFF737
:104B400009F89FED870A82480830FCF705FF854B7E
:104B5000854C002002A900BF54F820209A4223DA95
:104B6000814A40F2EE2C143A02EB800292ED000AE8
:104B700000EB4002C2EBC0120CEBC20C00EE90CA7C
:104B8000F8EEE00AB4EEE00AF1EE10FA12DB40F2C1
:104B9000E24C0CEBC20200EE902AF8EEE00AB4EE12
:104BA000E00AF1EE10FA05D807F8008000F13002B3
:104BB0000A5401E03E540D54401C0528CCDB312042
:104BC0008DF800808DF808009DF8020001289DF8FE
:104BD00004002ED001282ED032208DF80900342078
:104BE0008DF80B009DF8010001289DF8030034D0DA
:104BF000012834D033208DF80A0035208DF80C00C0
:104C000094ED000AB5EEC00AF1EE10FA39D094ED39
:104C1000020AB5EEC00AF1EE10FA32D094ED040AA1
:104C2000B5EEC00AF1EE10FA2BD0FEF739FE4FA216
:104C30002AE0012806D033208DF80A0035208DF8AF
:104C40000C00CFE733208DF80A0035208DF809508D
:104C50008DF80C008DF80850C4E7012806D03220EA
:104C60008DF8090034208DF80B00C9E734208DF849
:104C70000B0032208DF809008DF80A508DF80C5089
:104C8000BEE7FEF70DFE3BA204210020FEF762FF07
:104C900094ED000AB5EEC00AF1EE10FA12D094EDD0
:104CA000010AB5EEC00AF1EE10FA0BD094ED030A3A
:104CB000B5EEC00AF1EE10FA04D000BFFEF7F0FD29
:104CC0002CA207E0D9F80800B0F1834FF6DCFEF71C
:104CD000E7FD26A204210020FEF73CFF99ED020A21
:104CE000DFED260A20EE200A10EE100AFCF77BFA10
:104CF00041EC100B22A153EC102B2348FFF704FAD0
:104D0000214A02212E20FEF725FF41F29410FDF7E3
:104D10000DFD0022544651465D465846FDF71EFEE5
:104D20004FF4FA70FDF702FD012221462846FDF7F7
:104D300015FEF4E60008024048656C6C6F2C576F56
:104D4000726C642E00000000C800001020000010EB
:104D500004000010546573742057617665000000EC
:104D600000008045000048421460002031203320BC
:104D70003500000031203220340000000000C8421D
:104D8000252E336620252500288201200000000002
:104D9000000000000000000000000000000000F81B
:104DA00000000000000000333000000000100C067E
:104DB000100C0600000000000000000040C0784019
:104DC000C0784000043F04043F040400007088FCE5
:104DD00008300000001820FF211E0000F008F0003D
:104DE000E018000000211C031E211E0000F00888AE
:104DF000700000001E2123241927211010160E0018
:104E0000000000000000000000000000000000E0C2
:104E100018040200000000071820400000020418D7
:104E2000E00000000040201807000000404080F033
:104E3000804040000202010F01020200000000F069
:104E4000000000000101011F01010100000000003D
:104E50000000000080B070000000000000000000B2
:104E6000000000000001010101010101000000003B
:104E700000000000003030000000000000000000D2
:104E800080601804006018060100000000E01008AF
:104E90000810E000000F102020100F00001010F884
:104EA000000000000020203F2020000000700808C3
:104EB0000888700000302824222130000030088843
:104EC000884830000018202020110E000000C0206B
:104ED00010F8000000070424243F240000F808888C
:104EE000880808000019212020110E0000E0108819
:104EF00088180000000F112020110E00003808084B
:104F0000C83808000000003F00000000007088085A
:104F100008887000001C222121221C0000E01008DB
:104F20000810E0000000312222110F00000000C034
:104F3000C0000000000000303000000000000080D1
:104F400000000000000080600000000000008040C1
:104F500020100800000102040810200040404040DA
:104F6000404040000404040404040400000810202D
:104F70004080000000201008040201000070480872
:104F80000808F0000000003036010000C030C828DA
:104F9000E810E0000718272423140B000000C03895
:104FA000E0000000203C23020227382008F888880F
:104FB00088700000203F202020110E00C03008081B
:104FC00008083800071820202010080008F80808F2
:104FD0000810E000203F202020100F0008F88888EB
:104FE000E8081000203F20202320180008F88888B7
:104FF000E8081000203F200003000000C03008082F
:105000000838000007182020221E020008F80800B7
:105010000008F808203F210101213F20000808F87E
:10502000080800000020203F2020000000000808A1
:10503000F8080800C08080807F00000008F888C061
:1050400028180800203F20012638200008F8080012
:1050500000000000203F20202020300008F8F80049
:10506000F8F80800203F003F003F200008F830C05B
:105070000008F808203F200007183F00E01008084B
:105080000810E0000F10202020100F0008F808087A
:105090000808F000203F210101010000E01008088D
:1050A0000810E0000F18242438504F0008F88888B2
:1050B00088887000203F2000030C30200070880892
:1050C000080838000038202121221C00180808F8A0
:1050D000080818000000203F2000000008F8080021
:1050E0000008F808001F202020201F0008788800F2
:1050F00000C83808000007380E010000F80800F862
:105100000008F800033C0700073C0300081868800B
:105110008068180820302C03032C30200838C80081
:10512000C83808000000203F2000000010080808D0
:10513000C83808002038262120201800000000FE72
:10514000020202000000007F40404000000C30C01E
:1051500000000000000000010638C000000202024A
:10516000FE000000004040407F00000000000402FC
:105170000202040000000000000000000000000027
:105180000000000080808080808080800002020417
:10519000000000000000000000000000000080800F
:1051A000808000000019242222223F2008F800807D
:1051B00080000000003F112020110E000000008040
:1051C00080800000000E11202020110000000080CF
:1051D0008088F800000E112020103F200000808001
:1051E00080800000001F222222221300008080F015
:1051F000888888180020203F202000000000808040
:1052000080808000006B94949493600008F8008084
:1052100080800000203F210000203F2000809898DF
:10522000000000000020203F20200000000000803F
:105230009898000000C08080807F000008F800007F
:1052400080808000203F24022D302000000808F8D4
:10525000000000000020203F20200000808080808F
:1052600080808000203F20003F20003F8080008021
:1052700080800000203F210000203F20000080802F
:1052800080800000001F202020201F0080800080E0
:105290008000000080FFA12020110E00000000808F
:1052A00080808000000E112020A0FF808080800080
:1052B0008080800020203F212000010000008080AD
:1052C000808080000033242424241900008080E0A2
:1052D000808000000000001F20200000808000006F
:1052E00000808000001F202020103F208080800050
:1052F0000080808000010E30080601008080008060
:10530000008080800F300C030C300F000080800084
:10531000808080000020312E0E31200080808000AF
:105320000080808080818E7018060100008080805F
:10533000808080000021302C2221300000000000FD
:10534000807C020200000000003F4040000000009E
:10535000FF00000000000000FF0000000002027CCF
:10536000800000000040403F0000000000060101F6
:105370000202040400000000000000000000041409
:1053800064040CB40202423302000000000000007A
:10539000000000000000000000000000404121115A
:1053A000090503FF03050911214140000000000029
:1053B0000000000000000000000000001010D0FFFE
:1053C000900010919690F0909493100000000000CF
:1053D000000000000000000000000000040300FFC7
:1053E000000104040404FF0404040400000000009D
:1053F00000000000000000000000000000000000AD
:10540000000000000000000000000000000000009C
:105410000000000000000000000000000000363620
:10542000000000000000000000000000000000007C
:105430000000000000000000000000000000F888EC
:10544000888888FF88888888F800000000000000AD
:1054500000000000000000000000000000001F0825
:105460000808087F888888889F80F0000000000076
:105470000000000000000000000000000000FE022C
:1054800082828282FA82828282820200000000008E
:1054900000000000000000000000000080601F40CD
:1054A000404040407F4040445840400000000000E1
:1054B00000000000000000000000000000061016C0
:1054C00000061016000000000000000001020304A6
:1054D0000607080900000000010203040010000094
:1054E000EC540008ECD40008C00F00000000803F1E
:1054F00000000000ECFF7F3FD40FC93AB1FF7F3FAF
:10550000C70F493B4EFF7F3FC1CB963BC4FE7F3F59
:10551000890FC93B13FE7F3F3053FB3B39FD7F3F73
:1055200059CB163C39FC7F3F02ED2F3C11FB7F3FEE
:10553000900E493CC1F97F3F0030623C4AF87F3F02
:105540004B517B3CACF67F3F38398A3CE6F47F3FD9
:10555000B6C9963CF8F27F3F1C5AA33CE3F07F3F6C
:1055600069EAAF3CA7EE7F3F9B7ABC3C43EC7F3FB0
:10557000B00AC93CB8E97F3FA69AD53C05E77F3F12
:105580007B2AE23C2BE47F3F2DBAEE3C29E17F3FB2
:10559000B949FB3C00DE7F3F90EC033DAFDA7F3F33
:1055A0002F340A3D37D77F3FB87B103D98D37F3FDC
:1055B0002CC3163DD1CF7F3F880A1D3DE2CB7F3FF4
:1055C000CC51233DCCC77F3FF698293D8FC37F3F09
:1055D00007E02F3D2ABF7F3FFC26363D9EBA7F3F26
:1055E000D56D3C3DEAB57F3F91B4423D0FB17F3F61
:1055F0002FFB483D0DAC7F3FAF414F3DE3A67F3FC2
:105600000E88553D91A17F3F4CCE5B3D189C7F3F5E
:105610006814623D78967F3F625A683DB1907F3F43
:1056200038A06E3DC28A7F3FE9E5743DAB847F3F81
:10563000742B7B3D6D7E7F3F6CB8803D08787F3F4B
:105640000ADB833D7B717F3F94FD863DC76A7F3FC8
:105650000A208A3DEC637F3F6A428D3DE95C7F3FD3
:10566000B464903DBF557F3FE786933D6D4E7F3FCD
:1056700005A9963DF4467F3F0ACB993D543F7F3FB5
:10568000F9EC9C3D8D377F3FCF0EA03D9D2F7F3F96
:105690008C30A33D87277F3F3052A63D491F7F3F77
:1056A000BA73A93DE4167F3F2B95AC3D580E7F3F62
:1056B00080B6AF3DA4057F3FBBD7B23DC9FC7E3F5E
:1056C000DAF8B53DC7F37E3FDD19B93D9DEA7E3F6F
:1056D000C33ABC3D4CE17E3F8D5BBF3DD4D77E3F9E
:1056E000397CC23D34CE7E3FC69CC53D6DC47E3FF5
:1056F00036BDC83D7FBA7E3F86DDCB3D69B07E3F7B
:10570000B7FDCE3D2DA67E3FC81DD23DC99B7E3F35
:10571000B93DD53D3D917E3F895DD83D8B867E3F2D
:10572000377DDB3DB17B7E3FC49CDE3DB0707E3F6C
:105730002EBCE13D88657E3F76DBE43D385A7E3FF6
:105740009AFAE73DC14E7E3F9A19EB3D23437E3FD7
:105750007638EE3D5E377E3F2E57F13D722B7E3F11
:10576000C075F43D5E1F7E3F2C94F73D24137E3FB1
:1057700073B2FA3DC2067E3F92D0FD3D38FA7D3FBE
:105780004577003E88ED7D3F2E06023EB1E07D3F2D
:105790000295033EB2D37D3FC223053E8CC67D3FBA
:1057A0006EB2063E40B97D3F0541083ECCAB7D3F21
:1057B00086CF093E309E7D3FF35D0B3E6E907D3F70
:1057C0004AEC0C3E85827D3F8B7A0E3E74747D3FA1
:1057D000B708103E3D667D3FCC96113EDE577D3FBB
:1057E000CA24133E59497D3FB2B2143EAC3A7D3FC4
:1057F0008340163ED82B7D3F3DCE173EDD1C7D3FBE
:10580000E05B193EBC0D7D3F6BE91A3E73FE7C3FA9
:10581000DE761C3E03EF7C3F38041E3E6CDF7C3F8F
:105820007B911F3EAECF7C3FA51E213EC9BF7C3F72
:10583000B6AB223EBDAF7C3FAD38243E8A9F7C3F55
:105840008CC5253E318F7C3F5152273EB07E7C3F38
:10585000FCDE283E086E7C3F8D6B2A3E3A5D7C3F25
:1058600004F82B3E444C7C3F61842D3E283B7C3F1A
:10587000A2102F3EE5297C3FC99C303E7A187C3F20
:10588000D428323EE9067C3FC4B4333E31F57B3F39
:105890009840353E53E37B3F50CC363E4DD17B3F65
:1058A000EC57383E20BF7B3F6CE3393ECDAC7B3FAD
:1058B000CF6E3B3E539A7B3F15FA3C3EB2877B3F0F
:1058C0003E853E3EEA747B3F4910403EFC617B3F93
:1058D000379B413EE74E7B3F0726433EAB3B7B3F3A
:1058E000B9B0443E48287B3F4D3B463EBE147B3F0B
:1058F000C2C5473E0E017B3F1850493E37ED7A3F07
:105900004FDA4A3E3AD97A3F67644C3E16C57A3F31
:1059100060EE4D3ECBB07A3F38784F3E599C7A3F8F
:10592000F101513EC1877A3F898B523E02737A3F23
:105930000115543E1C5E7A3F589E553E10497A3FF1
:105940008F27573EDD337A3FA4B0583E841E7A3FFE
:1059500097395A3E04097A3F6AC25B3E5EF3793F4B
:105960001A4B5D3E91DD793FA8D35E3E9DC7793FDE
:10597000135C603E83B1793F5CE4613E439B793FB9
:10598000836C633EDC84793F86F4643E4E6E793FDF
:10599000667C663E9A57793F2204683EC040793F54
:1059A000BA8B693EBF29793F2F136B3E9812793F1E
:1059B0007F9A6C3E4AFB783FAB216E3ED6E3783F40
:1059C000B2A86F3E3BCC783F942F713E7BB4783FBA
:1059D00051B6723E939C783FE83C743E8684783F93
:1059E0005AC3753E526C783FA649773EF853783FCC
:1059F000CCCF783E773B783FCB557A3ED122783F6B
:105A0000A4DB7B3E040A783F56617D3E10F1773F70
:105A1000E1E67E3EF7D7773F2236803EB7BE773F3E
:105A2000C0F8803E51A5773F4ABB813EC58B773F8A
:105A3000C07D823E1372773F2240833E3A58773FC3
:105A40007002843E3C3E773FAAC4843E1724773FD1
:105A5000CE86853ECC09773FDF48863E5BEF763FBA
:105A6000DA0A873EC4D4763FC1CC873E07BA763F78
:105A7000938E883E249F763F5050893E1B84763F0C
:105A8000F8118A3EEC68763F8AD38A3E974D763F7E
:105A900007958B3E1B32763F6E568C3E7A16763FCC
:105AA000C0178D3EB3FA753FFCD88D3EC6DE753FFC
:105AB000229A8E3EB3C2753F325B8F3E7BA6753F06
:105AC0002C1C903E1C8A753F10DD903E976D753FF3
:105AD000DD9D913EED50753F945E923E1D34753FC5
